{
  "_format": "hh-sol-artifact-1",
  "contractName": "RoyaltySplitter",
  "sourceName": "contracts/src/RoyaltySplitter.sol",
  "abi": [
    {
      "inputs": [],
      "name": "AlreadyInitialized",
      "type": "error"
    },
    {
      "inputs": [],
      "name": "InvalidRecipients",
      "type": "error"
    },
    {
      "inputs": [],
      "name": "NoPaymentDue",
      "type": "error"
    },
    {
      "inputs": [],
      "name": "NotInitialized",
      "type": "error"
    },
    {
      "inputs": [],
      "name": "SharesMustTotal10000",
      "type": "error"
    },
    {
      "inputs": [],
      "name": "TransferFailed",
      "type": "error"
    },
    {
      "inputs": [],
      "name": "ZeroAddressRecipient",
      "type": "error"
    },
    {
      "anonymous": false,
      "inputs": [
        {
          "indexed": true,
          "internalType": "address",
          "name": "recipient",
          "type": "address"
        },
        {
          "indexed": false,
          "internalType": "uint256",
          "name": "amount",
          "type": "uint256"
        }
      ],
      "name": "PaymentDistributed",
      "type": "event"
    },
    {
      "anonymous": false,
      "inputs": [
        {
          "indexed": true,
          "internalType": "address",
          "name": "from",
          "type": "address"
        },
        {
          "indexed": false,
          "internalType": "uint256",
          "name": "amount",
          "type": "uint256"
        }
      ],
      "name": "PaymentReceived",
      "type": "event"
    },
    {
      "inputs": [
        {
          "internalType": "address",
          "name": "marketplace",
          "type": "address"
        },
        {
          "internalType": "address",
          "name": "currency",
          "type": "address"
        }
      ],
      "name": "claimAndDistribute",
      "outputs": [],
      "stateMutability": "nonpayable",
      "type": "function"
    },
    {
      "inputs": [],
      "name": "distribute",
      "outputs": [],
      "stateMutability": "nonpayable",
      "type": "function"
    },
    {
      "inputs": [],
      "name": "eventContract",
      "outputs": [
        {
          "internalType": "address",
          "name": "",
          "type": "address"
        }
      ],
      "stateMutability": "view",
      "type": "function"
    },
    {
      "inputs": [],
      "name": "getRecipients",
      "outputs": [
        {
          "internalType": "address[]",
          "name": "_recipients",
          "type": "address[]"
        },
        {
          "internalType": "uint256[]",
          "name": "_shares",
          "type": "uint256[]"
        }
      ],
      "stateMutability": "view",
      "type": "function"
    },
    {
      "inputs": [
        {
          "internalType": "address",
          "name": "_eventContract",
          "type": "address"
        },
        {
          "internalType": "address",
          "name": "_organizer",
          "type": "address"
        },
        {
          "internalType": "address[]",
          "name": "_recipients",
          "type": "address[]"
        },
        {
          "internalType": "uint256[]",
          "name": "_shares",
          "type": "uint256[]"
        }
      ],
      "name": "initialize",
      "outputs": [],
      "stateMutability": "nonpayable",
      "type": "function"
    },
    {
      "inputs": [],
      "name": "initialized",
      "outputs": [
        {
          "internalType": "bool",
          "name": "",
          "type": "bool"
        }
      ],
      "stateMutability": "view",
      "type": "function"
    },
    {
      "inputs": [],
      "name": "organizer",
      "outputs": [
        {
          "internalType": "address",
          "name": "",
          "type": "address"
        }
      ],
      "stateMutability": "view",
      "type": "function"
    },
    {
      "inputs": [
        {
          "internalType": "address",
          "name": "account",
          "type": "address"
        }
      ],
      "name": "pendingPayment",
      "outputs": [
        {
          "internalType": "uint256",
          "name": "",
          "type": "uint256"
        }
      ],
      "stateMutability": "view",
      "type": "function"
    },
    {
      "inputs": [],
      "name": "recipientCount",
      "outputs": [
        {
          "internalType": "uint256",
          "name": "",
          "type": "uint256"
        }
      ],
      "stateMutability": "view",
      "type": "function"
    },
    {
      "inputs": [
        {
          "internalType": "uint256",
          "name": "",
          "type": "uint256"
        }
      ],
      "name": "recipients",
      "outputs": [
        {
          "internalType": "address",
          "name": "",
          "type": "address"
        }
      ],
      "stateMutability": "view",
      "type": "function"
    },
    {
      "inputs": [
        {
          "internalType": "address",
          "name": "",
          "type": "address"
        }
      ],
      "name": "released",
      "outputs": [
        {
          "internalType": "uint256",
          "name": "",
          "type": "uint256"
        }
      ],
      "stateMutability": "view",
      "type": "function"
    },
    {
      "inputs": [
        {
          "internalType": "uint256",
          "name": "",
          "type": "uint256"
        }
      ],
      "name": "shares",
      "outputs": [
        {
          "internalType": "uint256",
          "name": "",
          "type": "uint256"
        }
      ],
      "stateMutability": "view",
      "type": "function"
    },
    {
      "inputs": [],
      "name": "totalReleased",
      "outputs": [
        {
          "internalType": "uint256",
          "name": "",
          "type": "uint256"
        }
      ],
      "stateMutability": "view",
      "type": "function"
    },
    {
      "stateMutability": "payable",
      "type": "receive"
    }
  ],
  "bytecode": "0x60808060405234601a576001600055610d7f90816100208239f35b600080fdfe608060409080825260048036101561004b575b5050361561001f57600080fd5b513481527f6ef95f06320e7a25a04a175ca677b7052bdd97131872c2192525a629f51be77060203392a2005b600091823560e01c908163158ef93e14610a725750806322eabb8e14610a5357806357a858fc14610a1a57806361203265146109f15780639852595c146109b9578063aeae177c1461098c578063aef412b91461079a578063d1bc76a114610755578063d78d610b14610622578063e274fd24146105f5578063e33b7de3146105d2578063e4fc6b6d146104465763ed3c669403610012578234610442576080366003190112610442576100fd610af3565b91610106610b0e565b67ffffffffffffffff926044359184831161043e573660238401121561043e578284013560249161013682610b5c565b9061014385519283610b24565b82825260209586830185819560051b8301019136831161043a578601905b8282106104175750505060643591888311610413573660238401121561041357828801359561018f87610b5c565b9361019c82519586610b24565b87855288850187819960051b8301019136831161040f57888b9101915b8383106103ff575050505060019a8b549160ff83166103f157835180159081156103e5575b506103d6578d808e5b61037f575b61271091500361037057506001600160a81b031990911660089190911b610100600160a81b0316178a178a55600280546001600160a01b0319166001600160a01b03938416179055519088821161035e57680100000000000000009384831161034c5760035483600355808410610328575b509060038c528a8c5b848110610306575050505050519586116102f45785116102e3575082548484558085106102bf575b50918552845b8381106102a0578580f35b8251600080516020610d2a833981519152820155918101918401610295565b6102dd9085600080516020610d2a8339815191529182019101610c9c565b8661028f565b634e487b7160e01b87526041845286fd5b50634e487b7160e01b87526041845286fd5b898385511694019381600080516020610d0a8339815191520155018b90610267565b6103469084600080516020610d0a8339815191529182019101610c9c565b8c61025e565b634e487b7160e01b8c5260418952858cfd5b634e487b7160e01b8b5260418852848bfd5b516369cbbf5360e11b81528a90fd5b85518210156103d1576001600160a01b0361039a8388610c88565b5116156103c1578e6103b881926103b1858c610c88565b5190610b74565b920191906101e7565b82516308c9926560e31b81528d90fd5b6101ec565b51635d5eb16d60e11b81528a90fd5b9050865114158f6101de565b5162dc149f60e41b81528a90fd5b82358152918101918b91016101b9565b8e80fd5b8a80fd5b81356001600160a01b0381168103610436578152908801908801610161565b8d80fd5b8c80fd5b8680fd5b8280fd5b508234610442578260031936011261044257610460610cb3565b60019060ff60015416156105c357828285924761048260059160055490610b74565b9085965b610493575b856001815580f35b600380548810156105bd576127106104b96104ad8a610a93565b905490841b1c85610b97565b046104c389610ace565b90546001600160a01b0391841b1c8116895260066020818152878b20549194909390916104ef91610baa565b9384610506575b5050509785019750849050610486565b8a8080878f61054a816105438f8e8691889b8f8f8f610525829b610ace565b9054911b1c168b5252882061053b838254610b74565b905554610b74565b8d55610ace565b905490881b1c165af161055b610c48565b50156105ad578a9288999a9b927f59d9f8b94d1de65b8eeb1b14e24d5d70c2782e96b3abef17ba687f3ee33a754a926105958b9795610ace565b9054911b1c16928851908152a29796958980806104f6565b86516312171d8360e31b81528990fd5b5061048b565b516321c4e35760e21b81529050fd5b8284346105f157816003193601126105f1576020906005549051908152f35b5080fd5b8284346105f157816003193601126105f157600154905160089190911c6001600160a01b03168152602090f35b508234610442578260031936011261044257919082519182600354908181526020809101809260038552600080516020610d0a83398151915290855b8181106107385750505085610674910386610b24565b85518082865491828152019081968652600080516020610d2a83398151915290865b81811061072457505050816106ac910382610b24565b865196879681880191885251809152606087019390855b81811061070457505050858303868301525180835291810193925b8281106106ed57505050500390f35b8351855286955093810193928101926001016106de565b82516001600160a01b0316865289985094840194918401916001016106c3565b825484529285019260019283019201610696565b82546001600160a01b03168452928401926001928301920161065e565b508290346104425760203660031901126104425735916003548310156107975750610781602092610ace565b60018060a01b0391549060031b1c169051908152f35b80fd5b5082346104425780600319360112610442576107b4610af3565b906107bd610b0e565b906107c6610cb3565b60019260ff600154161561097c57815163349e86f960e11b60208083019182526001600160a01b03958616602480850191909152835292916060810167ffffffffffffffff81118282101761096957855251889283929083905af1610829610c48565b5061083657856001815580f35b8395949392479061084c60059260055490610b74565b87985b61085f575b50505084955061048b565b60039889548110156109635761271061088661087a83610a93565b9054908d1b1c84610b97565b04998361089283610ace565b905490831b1c168a526108ae60069b8c8852888c205490610baa565b9a8b6108c1575b5050860198508561084f565b8a80808e8194896108d189610ace565b905490891b1c1683528b528b82206108ea828254610b74565b90556108f7818b54610b74565b8a558861090388610ace565b905490881b1c165af1610914610c48565b50156105ad57908798999a7f59d9f8b94d1de65b8eeb1b14e24d5d70c2782e96b3abef17ba687f3ee33a754a87868b9561094d86610ace565b9054911b1c16928a51908152a2908a99986108b5565b50610854565b634e487b7160e01b8a526041895260248afd5b81516321c4e35760e21b81528590fd5b8284346105f15760203660031901126105f1576020906109b26109ad610af3565b610bb7565b9051908152f35b8284346105f15760203660031901126105f15760209181906001600160a01b036109e1610af3565b1681526006845220549051908152f35b8284346105f157816003193601126105f15760025490516001600160a01b039091168152602090f35b5091903461079757602036600319011261079757823592548310156107975750610a45602092610a93565b91905490519160031b1c8152f35b8284346105f157816003193601126105f1576020906003549051908152f35b8390346105f157816003193601126105f15760209060ff6001541615158152f35b600454811015610ab8576004600052600080516020610d2a8339815191520190600090565b634e487b7160e01b600052603260045260246000fd5b600354811015610ab8576003600052600080516020610d0a8339815191520190600090565b600435906001600160a01b0382168203610b0957565b600080fd5b602435906001600160a01b0382168203610b0957565b90601f8019910116810190811067ffffffffffffffff821117610b4657604052565b634e487b7160e01b600052604160045260246000fd5b67ffffffffffffffff8111610b465760051b60200190565b91908201809211610b8157565b634e487b7160e01b600052601160045260246000fd5b81810292918115918404141715610b8157565b91908203918211610b8157565b610bc44760055490610b74565b9060009160038054935b848110610bdf575050505050600090565b610be881610ace565b90546001600160a01b0386811692851b9190911c168114610c0c5750600101610bce565b9350610c45945091610c2f91610c2461271094610a93565b9054911b1c90610b97565b0490600052600660205260406000205490610baa565b90565b3d15610c83573d9067ffffffffffffffff8211610b465760405191610c77601f8201601f191660200184610b24565b82523d6000602084013e565b606090565b8051821015610ab85760209160051b010190565b818110610ca7575050565b60008155600101610c9c565b600260005414610cc4576002600055565b60405162461bcd60e51b815260206004820152601f60248201527f5265656e7472616e637947756172643a207265656e7472616e742063616c6c006044820152606490fdfec2575a0e9e593c00f959f8c92f12db2869c3395a3b0502d05e2516446f71f85b8a35acfbc15ff81a39ae7d344fd709f28e8600b4aa8c65c6b64bfe7fe36bd19ba264697066735822122071a91bf4c5fc35ca98d6c7560120cef7ab5cfad8af4833f5ecd775d68990d35e64736f6c63430008190033",
  "linkReferences": {},
  "deployedLinkReferences": {}
}