{
  "_format": "hh-sol-artifact-1",
  "contractName": "Marketplace",
  "sourceName": "contracts/src/Marketplace.sol",
  "abi": [
    {
      "inputs": [
        {
          "internalType": "address",
          "name": "registry",
          "type": "address"
        }
      ],
      "stateMutability": "nonpayable",
      "type": "constructor"
    },
    {
      "inputs": [],
      "name": "ArgumentsAndValueMismatch",
      "type": "error"
    },
    {
      "inputs": [],
      "name": "AuctionDoesNotExist",
      "type": "error"
    },
    {
      "inputs": [],
      "name": "AuctionIsNotActive",
      "type": "error"
    },
    {
      "inputs": [],
      "name": "AuctionIsNotEndOrCancelled",
      "type": "error"
    },
    {
      "inputs": [],
      "name": "AuctionMustBeActiveOrPending",
      "type": "error"
    },
    {
      "inputs": [],
      "name": "BidIsNotHighEnough",
      "type": "error"
    },
    {
      "inputs": [],
      "name": "BidLoweThanReservePrice",
      "type": "error"
    },
    {
      "inputs": [],
      "name": "CanOnlySellOneNFT",
      "type": "error"
    },
    {
      "inputs": [],
      "name": "ContractIsDeprecated",
      "type": "error"
    },
    {
      "inputs": [],
      "name": "ContractMustSupportERC2981",
      "type": "error"
    },
    {
      "inputs": [],
      "name": "CurrencyIsNotSupported",
      "type": "error"
    },
    {
      "inputs": [],
      "name": "EndTimeMustBeGreaterThanStartTime",
      "type": "error"
    },
    {
      "inputs": [],
      "name": "InputValueAndPriceMismatch",
      "type": "error"
    },
    {
      "inputs": [],
      "name": "NFTContractIsNotApproved",
      "type": "error"
    },
    {
      "inputs": [],
      "name": "NotEnoughBalance",
      "type": "error"
    },
    {
      "inputs": [],
      "name": "NotEnoughStock",
      "type": "error"
    },
    {
      "inputs": [],
      "name": "NothingToClaim",
      "type": "error"
    },
    {
      "inputs": [],
      "name": "OnlyNFTOwnerCanClaim",
      "type": "error"
    },
    {
      "inputs": [],
      "name": "OnlyOwnerOrAuctionCreator",
      "type": "error"
    },
    {
      "inputs": [],
      "name": "OnlyOwnerOrSaleCreator",
      "type": "error"
    },
    {
      "inputs": [],
      "name": "SaleDoesNotExist",
      "type": "error"
    },
    {
      "inputs": [],
      "name": "SaleIsNotActive",
      "type": "error"
    },
    {
      "inputs": [],
      "name": "SaleIsNotClosed",
      "type": "error"
    },
    {
      "inputs": [],
      "name": "SaleMustBeActiveOrPending",
      "type": "error"
    },
    {
      "inputs": [],
      "name": "StockAlreadySoldOrClaimed",
      "type": "error"
    },
    {
      "inputs": [],
      "name": "UnexpectedError",
      "type": "error"
    },
    {
      "inputs": [],
      "name": "ZeroAddressNotAllowed",
      "type": "error"
    },
    {
      "anonymous": false,
      "inputs": [
        {
          "indexed": true,
          "internalType": "uint256",
          "name": "auctionId",
          "type": "uint256"
        }
      ],
      "name": "AuctionCancelled",
      "type": "event"
    },
    {
      "anonymous": false,
      "inputs": [
        {
          "indexed": true,
          "internalType": "address",
          "name": "accountOf",
          "type": "address"
        },
        {
          "indexed": true,
          "internalType": "address",
          "name": "tokenAddress",
          "type": "address"
        },
        {
          "indexed": true,
          "internalType": "uint256",
          "name": "newBalance",
          "type": "uint256"
        }
      ],
      "name": "BalanceUpdated",
      "type": "event"
    },
    {
      "anonymous": false,
      "inputs": [
        {
          "indexed": true,
          "internalType": "uint256",
          "name": "auctionId",
          "type": "uint256"
        },
        {
          "indexed": false,
          "internalType": "uint256",
          "name": "totalAmount",
          "type": "uint256"
        }
      ],
      "name": "BidPlaced",
      "type": "event"
    },
    {
      "anonymous": false,
      "inputs": [
        {
          "indexed": true,
          "internalType": "uint256",
          "name": "auctionId",
          "type": "uint256"
        },
        {
          "indexed": true,
          "internalType": "address",
          "name": "claimer",
          "type": "address"
        },
        {
          "indexed": true,
          "internalType": "address",
          "name": "recipient",
          "type": "address"
        },
        {
          "indexed": false,
          "internalType": "uint256",
          "name": "amount",
          "type": "uint256"
        }
      ],
      "name": "ClaimAuctionNFT",
      "type": "event"
    },
    {
      "anonymous": false,
      "inputs": [
        {
          "indexed": true,
          "internalType": "address",
          "name": "accountOf",
          "type": "address"
        },
        {
          "indexed": true,
          "internalType": "address",
          "name": "tokenAddress",
          "type": "address"
        },
        {
          "indexed": true,
          "internalType": "uint256",
          "name": "newBalance",
          "type": "uint256"
        }
      ],
      "name": "ClaimFunds",
      "type": "event"
    },
    {
      "anonymous": false,
      "inputs": [
        {
          "indexed": true,
          "internalType": "uint256",
          "name": "id",
          "type": "uint256"
        },
        {
          "indexed": true,
          "internalType": "address",
          "name": "owner",
          "type": "address"
        },
        {
          "indexed": true,
          "internalType": "uint256",
          "name": "amount",
          "type": "uint256"
        }
      ],
      "name": "ClaimSaleNFTs",
      "type": "event"
    },
    {
      "anonymous": false,
      "inputs": [
        {
          "indexed": true,
          "internalType": "uint256",
          "name": "auctionId",
          "type": "uint256"
        },
        {
          "components": [
            {
              "internalType": "uint128",
              "name": "id",
              "type": "uint128"
            },
            {
              "internalType": "uint128",
              "name": "nftId",
              "type": "uint128"
            },
            {
              "internalType": "bool",
              "name": "isERC721",
              "type": "bool"
            },
            {
              "internalType": "address",
              "name": "nftAddress",
              "type": "address"
            },
            {
              "internalType": "address",
              "name": "owner",
              "type": "address"
            },
            {
              "internalType": "address",
              "name": "currency",
              "type": "address"
            },
            {
              "internalType": "uint256",
              "name": "startTime",
              "type": "uint256"
            },
            {
              "internalType": "uint256",
              "name": "endTime",
              "type": "uint256"
            },
            {
              "internalType": "uint256",
              "name": "reservePrice",
              "type": "uint256"
            }
          ],
          "indexed": false,
          "internalType": "struct Marketplace.AuctionInfo",
          "name": "newAuction",
          "type": "tuple"
        }
      ],
      "name": "NewAuction",
      "type": "event"
    },
    {
      "anonymous": false,
      "inputs": [
        {
          "indexed": true,
          "internalType": "address",
          "name": "previousOwner",
          "type": "address"
        },
        {
          "indexed": true,
          "internalType": "address",
          "name": "newOwner",
          "type": "address"
        }
      ],
      "name": "OwnershipTransferred",
      "type": "event"
    },
    {
      "anonymous": false,
      "inputs": [
        {
          "indexed": true,
          "internalType": "uint256",
          "name": "saleId",
          "type": "uint256"
        },
        {
          "indexed": true,
          "internalType": "address",
          "name": "purchaser",
          "type": "address"
        },
        {
          "indexed": true,
          "internalType": "address",
          "name": "recipient",
          "type": "address"
        }
      ],
      "name": "Purchase",
      "type": "event"
    },
    {
      "anonymous": false,
      "inputs": [
        {
          "indexed": true,
          "internalType": "uint256",
          "name": "saleId",
          "type": "uint256"
        }
      ],
      "name": "SaleCancelled",
      "type": "event"
    },
    {
      "anonymous": false,
      "inputs": [
        {
          "indexed": true,
          "internalType": "uint256",
          "name": "id",
          "type": "uint256"
        },
        {
          "indexed": true,
          "internalType": "address",
          "name": "nftAddress",
          "type": "address"
        },
        {
          "indexed": true,
          "internalType": "uint256",
          "name": "nftID",
          "type": "uint256"
        }
      ],
      "name": "SaleCreated",
      "type": "event"
    },
    {
      "inputs": [],
      "name": "auctionIdCounter",
      "outputs": [
        {
          "internalType": "uint128",
          "name": "",
          "type": "uint128"
        }
      ],
      "stateMutability": "view",
      "type": "function"
    },
    {
      "inputs": [
        {
          "internalType": "uint256",
          "name": "",
          "type": "uint256"
        }
      ],
      "name": "auctions",
      "outputs": [
        {
          "internalType": "uint128",
          "name": "id",
          "type": "uint128"
        },
        {
          "internalType": "uint128",
          "name": "nftId",
          "type": "uint128"
        },
        {
          "internalType": "bool",
          "name": "isERC721",
          "type": "bool"
        },
        {
          "internalType": "address",
          "name": "nftAddress",
          "type": "address"
        },
        {
          "internalType": "address",
          "name": "owner",
          "type": "address"
        },
        {
          "internalType": "address",
          "name": "currency",
          "type": "address"
        },
        {
          "internalType": "uint256",
          "name": "startTime",
          "type": "uint256"
        },
        {
          "internalType": "uint256",
          "name": "endTime",
          "type": "uint256"
        },
        {
          "internalType": "uint256",
          "name": "reservePrice",
          "type": "uint256"
        }
      ],
      "stateMutability": "view",
      "type": "function"
    },
    {
      "inputs": [
        {
          "internalType": "uint256",
          "name": "auctionId",
          "type": "uint256"
        },
        {
          "internalType": "uint256",
          "name": "amountFromBalance",
          "type": "uint256"
        },
        {
          "internalType": "uint256",
          "name": "externalFunds",
          "type": "uint256"
        }
      ],
      "name": "bid",
      "outputs": [
        {
          "internalType": "bool",
          "name": "",
          "type": "bool"
        }
      ],
      "stateMutability": "payable",
      "type": "function"
    },
    {
      "inputs": [
        {
          "internalType": "uint256",
          "name": "",
          "type": "uint256"
        },
        {
          "internalType": "address",
          "name": "",
          "type": "address"
        }
      ],
      "name": "bids",
      "outputs": [
        {
          "internalType": "uint256",
          "name": "amount",
          "type": "uint256"
        },
        {
          "internalType": "uint256",
          "name": "timestamp",
          "type": "uint256"
        }
      ],
      "stateMutability": "view",
      "type": "function"
    },
    {
      "inputs": [
        {
          "internalType": "uint256",
          "name": "saleId",
          "type": "uint256"
        },
        {
          "internalType": "address",
          "name": "recipient",
          "type": "address"
        },
        {
          "internalType": "uint256",
          "name": "amountToBuy",
          "type": "uint256"
        },
        {
          "internalType": "uint256",
          "name": "amountFromBalance",
          "type": "uint256"
        }
      ],
      "name": "buy",
      "outputs": [
        {
          "internalType": "bool",
          "name": "",
          "type": "bool"
        }
      ],
      "stateMutability": "payable",
      "type": "function"
    },
    {
      "inputs": [
        {
          "internalType": "uint256",
          "name": "auctionId",
          "type": "uint256"
        }
      ],
      "name": "cancelAuction",
      "outputs": [],
      "stateMutability": "nonpayable",
      "type": "function"
    },
    {
      "inputs": [
        {
          "internalType": "uint256",
          "name": "saleId",
          "type": "uint256"
        }
      ],
      "name": "cancelSale",
      "outputs": [],
      "stateMutability": "nonpayable",
      "type": "function"
    },
    {
      "inputs": [
        {
          "internalType": "uint256",
          "name": "",
          "type": "uint256"
        }
      ],
      "name": "cancelledAuction",
      "outputs": [
        {
          "internalType": "bool",
          "name": "",
          "type": "bool"
        }
      ],
      "stateMutability": "view",
      "type": "function"
    },
    {
      "inputs": [
        {
          "internalType": "uint256",
          "name": "",
          "type": "uint256"
        }
      ],
      "name": "cancelledSale",
      "outputs": [
        {
          "internalType": "bool",
          "name": "",
          "type": "bool"
        }
      ],
      "stateMutability": "view",
      "type": "function"
    },
    {
      "inputs": [
        {
          "internalType": "address",
          "name": "tokenAddress",
          "type": "address"
        }
      ],
      "name": "claimFunds",
      "outputs": [],
      "stateMutability": "nonpayable",
      "type": "function"
    },
    {
      "inputs": [
        {
          "internalType": "uint256",
          "name": "saleId",
          "type": "uint256"
        }
      ],
      "name": "claimSaleNfts",
      "outputs": [],
      "stateMutability": "nonpayable",
      "type": "function"
    },
    {
      "inputs": [
        {
          "internalType": "address",
          "name": "",
          "type": "address"
        },
        {
          "internalType": "address",
          "name": "",
          "type": "address"
        }
      ],
      "name": "claimableFunds",
      "outputs": [
        {
          "internalType": "uint256",
          "name": "",
          "type": "uint256"
        }
      ],
      "stateMutability": "view",
      "type": "function"
    },
    {
      "inputs": [
        {
          "internalType": "uint256",
          "name": "",
          "type": "uint256"
        }
      ],
      "name": "claimed",
      "outputs": [
        {
          "internalType": "bool",
          "name": "",
          "type": "bool"
        }
      ],
      "stateMutability": "view",
      "type": "function"
    },
    {
      "inputs": [
        {
          "internalType": "bool",
          "name": "isERC721",
          "type": "bool"
        },
        {
          "internalType": "address",
          "name": "nftAddress",
          "type": "address"
        },
        {
          "internalType": "uint128",
          "name": "nftId",
          "type": "uint128"
        },
        {
          "internalType": "uint256",
          "name": "startTime",
          "type": "uint256"
        },
        {
          "internalType": "uint256",
          "name": "endTime",
          "type": "uint256"
        },
        {
          "internalType": "uint256",
          "name": "reservePrice",
          "type": "uint256"
        },
        {
          "internalType": "address",
          "name": "currency",
          "type": "address"
        }
      ],
      "name": "createAuction",
      "outputs": [
        {
          "internalType": "uint128",
          "name": "auctionId",
          "type": "uint128"
        }
      ],
      "stateMutability": "nonpayable",
      "type": "function"
    },
    {
      "inputs": [
        {
          "internalType": "bool",
          "name": "isERC721",
          "type": "bool"
        },
        {
          "internalType": "address",
          "name": "nftAddress",
          "type": "address"
        },
        {
          "internalType": "uint128",
          "name": "nftId",
          "type": "uint128"
        },
        {
          "internalType": "uint256",
          "name": "amount",
          "type": "uint256"
        },
        {
          "internalType": "uint256",
          "name": "startTime",
          "type": "uint256"
        },
        {
          "internalType": "uint256",
          "name": "endTime",
          "type": "uint256"
        },
        {
          "internalType": "uint256",
          "name": "price",
          "type": "uint256"
        },
        {
          "internalType": "address",
          "name": "currency",
          "type": "address"
        }
      ],
      "name": "createSale",
      "outputs": [
        {
          "internalType": "uint256",
          "name": "saleId",
          "type": "uint256"
        }
      ],
      "stateMutability": "nonpayable",
      "type": "function"
    },
    {
      "inputs": [
        {
          "internalType": "address",
          "name": "",
          "type": "address"
        }
      ],
      "name": "escrow",
      "outputs": [
        {
          "internalType": "uint256",
          "name": "",
          "type": "uint256"
        }
      ],
      "stateMutability": "view",
      "type": "function"
    },
    {
      "inputs": [
        {
          "internalType": "uint256",
          "name": "auctionId",
          "type": "uint256"
        }
      ],
      "name": "getAuctionStatus",
      "outputs": [
        {
          "internalType": "bytes32",
          "name": "",
          "type": "bytes32"
        }
      ],
      "stateMutability": "view",
      "type": "function"
    },
    {
      "inputs": [
        {
          "internalType": "uint256",
          "name": "saleId",
          "type": "uint256"
        }
      ],
      "name": "getSaleStatus",
      "outputs": [
        {
          "internalType": "bytes32",
          "name": "",
          "type": "bytes32"
        }
      ],
      "stateMutability": "view",
      "type": "function"
    },
    {
      "inputs": [
        {
          "internalType": "uint256",
          "name": "",
          "type": "uint256"
        }
      ],
      "name": "highestBidder",
      "outputs": [
        {
          "internalType": "address",
          "name": "",
          "type": "address"
        }
      ],
      "stateMutability": "view",
      "type": "function"
    },
    {
      "inputs": [
        {
          "internalType": "address",
          "name": "",
          "type": "address"
        },
        {
          "internalType": "address",
          "name": "",
          "type": "address"
        },
        {
          "internalType": "uint256[]",
          "name": "",
          "type": "uint256[]"
        },
        {
          "internalType": "uint256[]",
          "name": "",
          "type": "uint256[]"
        },
        {
          "internalType": "bytes",
          "name": "",
          "type": "bytes"
        }
      ],
      "name": "onERC1155BatchReceived",
      "outputs": [
        {
          "internalType": "bytes4",
          "name": "",
          "type": "bytes4"
        }
      ],
      "stateMutability": "nonpayable",
      "type": "function"
    },
    {
      "inputs": [
        {
          "internalType": "address",
          "name": "",
          "type": "address"
        },
        {
          "internalType": "address",
          "name": "",
          "type": "address"
        },
        {
          "internalType": "uint256",
          "name": "",
          "type": "uint256"
        },
        {
          "internalType": "uint256",
          "name": "",
          "type": "uint256"
        },
        {
          "internalType": "bytes",
          "name": "",
          "type": "bytes"
        }
      ],
      "name": "onERC1155Received",
      "outputs": [
        {
          "internalType": "bytes4",
          "name": "",
          "type": "bytes4"
        }
      ],
      "stateMutability": "nonpayable",
      "type": "function"
    },
    {
      "inputs": [
        {
          "internalType": "address",
          "name": "",
          "type": "address"
        },
        {
          "internalType": "address",
          "name": "",
          "type": "address"
        },
        {
          "internalType": "uint256",
          "name": "",
          "type": "uint256"
        },
        {
          "internalType": "bytes",
          "name": "",
          "type": "bytes"
        }
      ],
      "name": "onERC721Received",
      "outputs": [
        {
          "internalType": "bytes4",
          "name": "",
          "type": "bytes4"
        }
      ],
      "stateMutability": "nonpayable",
      "type": "function"
    },
    {
      "inputs": [],
      "name": "owner",
      "outputs": [
        {
          "internalType": "address",
          "name": "",
          "type": "address"
        }
      ],
      "stateMutability": "view",
      "type": "function"
    },
    {
      "inputs": [
        {
          "internalType": "uint256",
          "name": "",
          "type": "uint256"
        },
        {
          "internalType": "address",
          "name": "",
          "type": "address"
        }
      ],
      "name": "purchased",
      "outputs": [
        {
          "internalType": "uint256",
          "name": "",
          "type": "uint256"
        }
      ],
      "stateMutability": "view",
      "type": "function"
    },
    {
      "inputs": [],
      "name": "renounceOwnership",
      "outputs": [],
      "stateMutability": "nonpayable",
      "type": "function"
    },
    {
      "inputs": [
        {
          "internalType": "uint256",
          "name": "auctionId",
          "type": "uint256"
        }
      ],
      "name": "resolveAuction",
      "outputs": [],
      "stateMutability": "nonpayable",
      "type": "function"
    },
    {
      "inputs": [],
      "name": "saleIdCounter",
      "outputs": [
        {
          "internalType": "uint128",
          "name": "",
          "type": "uint128"
        }
      ],
      "stateMutability": "view",
      "type": "function"
    },
    {
      "inputs": [
        {
          "internalType": "uint256",
          "name": "",
          "type": "uint256"
        }
      ],
      "name": "sales",
      "outputs": [
        {
          "internalType": "uint128",
          "name": "nftId",
          "type": "uint128"
        },
        {
          "internalType": "bool",
          "name": "isERC721",
          "type": "bool"
        },
        {
          "internalType": "address",
          "name": "nftAddress",
          "type": "address"
        },
        {
          "internalType": "address",
          "name": "owner",
          "type": "address"
        },
        {
          "internalType": "address",
          "name": "currency",
          "type": "address"
        },
        {
          "internalType": "uint256",
          "name": "amount",
          "type": "uint256"
        },
        {
          "internalType": "uint256",
          "name": "purchased",
          "type": "uint256"
        },
        {
          "internalType": "uint256",
          "name": "startTime",
          "type": "uint256"
        },
        {
          "internalType": "uint256",
          "name": "endTime",
          "type": "uint256"
        },
        {
          "internalType": "uint256",
          "name": "price",
          "type": "uint256"
        }
      ],
      "stateMutability": "view",
      "type": "function"
    },
    {
      "inputs": [
        {
          "internalType": "bytes4",
          "name": "interfaceId",
          "type": "bytes4"
        }
      ],
      "name": "supportsInterface",
      "outputs": [
        {
          "internalType": "bool",
          "name": "",
          "type": "bool"
        }
      ],
      "stateMutability": "view",
      "type": "function"
    },
    {
      "inputs": [
        {
          "internalType": "address",
          "name": "newOwner",
          "type": "address"
        }
      ],
      "name": "transferOwnership",
      "outputs": [],
      "stateMutability": "nonpayable",
      "type": "function"
    }
  ],
  "bytecode": "0x60a03460c857601f6133a538819003918201601f19168301916001600160401b0383118484101760cd5780849260209460405283398101031260c857516001600160a01b03908181169081900360c8576000543360018060a01b0319821617600055604051923391167f8be0079c531659141344cd1fd0a4f28419497f9722a3daafe3b4186f6b6457e0600080a36080526132c190816100e482396080518181816107ad01528181610eba0152818161266901528181612a6c01528181612baf0152612ef10152f35b600080fd5b634e487b7160e01b600052604160045260246000fdfe6080604052600436101561001257600080fd5b60003560e01c806301ffc9a7146101f7578063150b7a02146101f2578063199de1e2146101ed578063281c6000146101e85780632ac9bf09146101e35780633f1ffcec146101de578063451df52e146101d9578063571a26a0146101d457806357d3c7c3146101cf5780635e09aa27146101ca578063693d0df2146101c5578063706910ff146101c0578063712f35fb146101bb578063715018a6146101b65780637765c52c146101b15780637a06f849146101ac5780637c1239c7146101a75780638da5cb5b146101a257806396b5a7551461019d578063b2337ce814610198578063b5f522f714610193578063bc197c811461018e578063bd94b00514610189578063c7e1533814610184578063d254d2c61461017f578063dbe7e3bd1461017a578063de0794ef14610175578063f23a6e6114610170578063f2fde38b1461016b5763f56bdc231461016657600080fd5b6122fb565b612234565b6121da565b6121b9565b612188565b61216a565b612119565b612025565b611f98565b611e50565b611e1f565b611c4f565b611c26565b6119bc565b61172a565b6116e4565b611686565b611409565b610e81565b610d78565b610d51565b610d09565b610c59565b610c25565b610bca565b61076c565b61073b565b6103cf565b610375565b3461024d57602036600319011261024d5760043563ffffffff60e01b811680910361024d57602090630271189760e51b811490811561023c575b506040519015158152f35b6301ffc9a760e01b14905038610231565b600080fd5b6001600160a01b0381160361024d57565b634e487b7160e01b600052604160045260246000fd5b67ffffffffffffffff811161028d57604052565b610263565b6040810190811067ffffffffffffffff82111761028d57604052565b90601f8019910116810190811067ffffffffffffffff82111761028d57604052565b60405190610120820182811067ffffffffffffffff82111761028d57604052565b60405190610140820182811067ffffffffffffffff82111761028d57604052565b67ffffffffffffffff811161028d57601f01601f191660200190565b81601f8201121561024d5780359061034582610312565b9261035360405194856102ae565b8284526020838301011161024d57816000926020809301838601378301015290565b3461024d57608036600319011261024d57610391600435610252565b61039c602435610252565b60643567ffffffffffffffff811161024d576103bc90369060040161032e565b50604051630a85bd0160e11b8152602090f35b3461024d57602036600319011261024d576004356103ec8161253e565b6810d05390d15313115160ba1b8114159081610728575b5061071657610435610429610422836000526003602052604060002090565b5460801c90565b6001600160801b031690565b9061045d600261044f836000526003602052604060002090565b01546001600160a01b031690565b91610482610475836000526007602052604060002090565b546001600160a01b031690565b906104b28261049b85600052600a602052604060002090565b9060018060a01b0316600052602052604060002090565b546001600160a01b03929083903387831603610710576000905b6105056104f960016104e88a6000526003602052604060002090565b015460081c6001600160a01b031690565b6001600160a01b031690565b978892156107075750610519925086612add565b8281955b61053e6001610536886000526003602052604060002090565b015460ff1690565b156106675716803b1561024d57604051635c46a7ef60e11b81523060048201526001600160a01b038716602482015260448101939093526080606484015260006084840181905290839060a490829084905af1908115610662577f4cfccb49c100bd1236b476cedfd66efc0d8b8817e6276dda17150ce64fe9055d9261062192610649575b505b6105e96105dc866000526006602052604060002090565b805460ff19166001179055565b61049b610610610603876000526003602052604060002090565b546001600160801b031690565b95600052600a602052604060002090565b5491604051941693806106446001600160801b0333961694829190602083019252565b0390a4005b8061065661065c92610279565b80610d46565b386105c3565b612355565b16803b1561024d57604051637921219560e11b81523060048201526001600160a01b038716602482015260448101939093526001606484015260a06084840152600060a4840181905290839060c490829084905af1908115610662577f4cfccb49c100bd1236b476cedfd66efc0d8b8817e6276dda17150ce64fe9055d92610621926106f4575b506105c5565b8061065661070192610279565b386106ee565b9150509561051d565b806104cc565b6040516324df06a960e11b8152600490fd5b64115391115160da1b1415905038610403565b3461024d57602036600319011261024d576004356000526005602052602060ff604060002054166040519015158152f35b606036600319011261024d576040805163190af90160e21b8152306004808301919091528035916001600160a01b03916024803592604435916020908290817f000000000000000000000000000000000000000000000000000000000000000089165afa90811561066257600091610b9b575b5015610b8c576541435449564560d01b6107f88661253e565b03610b7d5761083b61080a828561238f565b61083461082188600052600a602052604060002090565b3360009081526020919091526040902090565b549061238f565b9361088061085387600052600a602052604060002090565b61086a610475896000526007602052604060002090565b60018060a01b0316600052602052604060002090565b54851115610b6d57600661089e876000526003602052604060002090565b01548510610b5d576108bf600361044f886000526003602052604060002090565b336000908152600b602052604090209092906108dc90849061049b565b548511610b4d578282169373aaaaaaaaaaaaaaaaaaaaaaaaaaaaaaaaaaaaaaaa8514610b095750917f0fc69407039e8ba8cdd517e2a4cae9dd19697b0a500ff37a2425c59ebc649b31959391610938610a359694303386612dbe565b826109506104758a6000526007602052604060002090565b91838a61096b8561049b83600052600a602052604060002090565b5492610977848b6123a1565b6001600160a01b038416600090815260086020526040902061099c905b91825461238f565b9055851694338603610a88575b50505050505082610a46575b505050806109d13361049b87600052600a602052604060002090565b554260016109ed3361049b88600052600a602052604060002090565b0155610a2633610a07866000526007602052604060002090565b80546001600160a01b0319166001600160a01b03909216919091179055565b84519081529081906020820190565b0390a25160018152602090f35b0390f35b336000908152600b60205260409020610a5f919061049b565b610a6a8382546123a1565b90553360008051602061326c833981519152600080a43880806109b5565b610ae9936000610aa98361049b61049b96600052600a602052604060002090565b55610acd6109948561049b8560018060a01b0316600052600b602052604060002090565b90556001600160a01b03166000908152600b6020526040902090565b549160008051602061326c833981519152600080a4388281838a826109a9565b903403610b3f575091610a3593917f0fc69407039e8ba8cdd517e2a4cae9dd19697b0a500ff37a2425c59ebc649b319593610938565b8751631ad8bb2960e01b8152fd5b875163569d45cf60e11b81528490fd5b86516343214feb60e11b81528390fd5b86516314f2a19960e31b81528390fd5b5084516311836dc560e01b8152fd5b50845163c1b47abb60e01b8152fd5b610bbd915060203d602011610bc3575b610bb581836102ae565b810190612361565b386107df565b503d610bab565b3461024d57604036600319011261024d576040610c12602435610bec81610252565b600435600052600a602052826000209060018060a01b0316600052602052604060002090565b6001815491015482519182526020820152f35b3461024d57602036600319011261024d576004356000526007602052602060018060a01b0360406000205416604051908152f35b3461024d57602036600319011261024d57600480356000908152600360208181526040928390208054600182015460028301549483015496830154600584015460069094015487516001600160801b0385168152608094851c9681019690965260ff83161515978601979097526001600160a01b0360089290921c821660608601529481169184019190915290941660a082015260c081019190915260e081019290925261010082015261012090f35b3461024d57602036600319011261024d57600435610d2681610252565b60018060a01b031660005260086020526020604060002054604051908152f35b600091031261024d57565b3461024d57600036600319011261024d5760206001600160801b0360015416604051908152f35b3461024d57602036600319011261024d57600435610d9581610252565b336000908152600b60205260409020610daf90829061049b565b54908115610e6f576001600160a01b0381169073aaaaaaaaaaaaaaaaaaaaaaaaaaaaaaaaaaaaaaaa8214610e2b57336000908152600b602052604081209091610df79161049b565b55610e03823383612e19565b337fb4cdb061e5be7c8ebaa37f4b5ddd49f0ab59dd6c1d477f80245e14a29b85f44a600080a4005b336000908152600b6020526040812090918291610e48919061049b565b558080808086335af1610e596123ae565b5015610e655750610e03565b6040513d8092823efd5b6040516312d37ee560e31b8152600490fd5b608036600319011261024d57602435600435610e9c82610252565b60405163190af90160e21b81523060048201526001600160a01b03907f000000000000000000000000000000000000000000000000000000000000000082169060643590602081602481865afa908115610662576000916113ea575b50156113d8576541435449564560d01b610f118561297b565b036113c75784156113b557610f38610f33856000526002602052604060002090565b6123de565b90610f4c60a083015160c0840151906123a1565b604435116113a35760808201516001600160a01b0316336000908152600b60205260409020909390610f7f90859061049b565b548211611391576040830151610ff69290610fa4906104f9906001600160a01b031681565b946040610fb886516001600160801b031690565b610fc9610120880151604435612496565b825163152a902d60e11b81526001600160801b039092166004830152602482015294859081906044820190565b0381895afa80156106625760009460009161136c575b509181881673aaaaaaaaaaaaaaaaaaaaaaaaaaaaaaaaaaaaaaaa811461133257938161105b6110939661105160409561104c6101208d0151604435612496565b6123a1565b9030903390612dbe565b80611304575b50611073610120880151604435612496565b9082518080978194630e44f5c560e41b8352600483019190602083019252565b03915afa9182156106625761115a61114c61049b926111749661099496866000926000926112c8575b5061049b6110dd929360018060a01b0316600052600b602052604060002090565b6110e882825461238f565b905560608a018051909987918e8216908f166001600160a01b0316146112b9576001600160a01b03166000908152600b6020526040902061104c929161112d9161049b565b61113884825461238f565b90555b61104c6101208c0151604435612496565b95516001600160a01b031690565b6001600160a01b03166000908152600b6020526040902090565b9055600561118c856000526002602052604060002090565b0160443581540190556111ad3361049b866000526009602052604060002090565b805460443501905560208101511561125357516001600160801b031690803b1561024d57604051635c46a7ef60e11b81529160009183918290849082906111f9908b3060048501612505565b03925af1801561066257611240575b505b60405192169033907f2d9abaed896ece5f9f4f4484ce756b21c297e5aa6739114910fc097c750f27a5600080a460018152602090f35b8061065661124d92610279565b38611208565b516001600160801b031690803b1561024d57604051637921219560e11b815291600091839182908490829061129190604435908c30600486016124c8565b03925af18015610662576112a6575b5061120a565b806106566112b392610279565b386112a0565b5050905061104c60009161113b565b61049b93506110dd92506112f39060403d6040116112fd575b6112eb81836102ae565b8101906124a9565b93909392506110bc565b503d6112e1565b336000908152600b6020526040902061132a9061132290869061049b565b9182546123a1565b905538611061565b506113488161104c610120890151604435612496565b340361135a576110939360409161105b565b6040516328ddf2f760e01b8152600490fd5b905061138891945060403d6040116112fd576112eb81836102ae565b9390933861100c565b60405163569d45cf60e11b8152600490fd5b6040516306c67f0360e31b8152600490fd5b6040516342bcdf7f60e11b8152600490fd5b60405162ecac0160e01b8152600490fd5b60405163c1b47abb60e01b8152600490fd5b611403915060203d602011610bc357610bb581836102ae565b38610ef8565b3461024d57602036600319011261024d57600480356114278161297b565b6810d05390d15313115160ba1b8114159081611673575b506116635761145c600161044f836000526002602052604060002090565b611476610429610603846000526002602052604060002090565b928061148c846000526002602052604060002090565b01549360056114a5856000526002602052604060002090565b01546114c0600261044f876000526002602052604060002090565b936001600160a01b0391828616330361165257878114611641576114e490886123a1565b9660056114fb886000526002602052604060002090565b015561151e611514876000526002602052604060002090565b5460801c60ff1690565b156115c15716803b1561024d5760408051635c46a7ef60e11b8152309481019485526001600160a01b03909516602085015283019190915260806060830181905260009083018190529183919082908490829060a00103925af18015610662576115ae575b505b33907f549c383085c9acaba3d26a9c577b9cef834a76b82794c2b8bfbff47ca495d7d4600080a4005b806106566115bb92610279565b38611583565b16803b1561024d5760408051637921219560e11b8152309481019485526001600160a01b0390951660208501528301919091526060820185905260a06080830181905260009083018190529183919082908490829060c00103925af180156106625761162e575b50611585565b8061065661163b92610279565b38611628565b604051633ac38e7d60e11b81528590fd5b604051630e20a39360e31b81528590fd5b5060405163d47bf35d60e01b8152fd5b64115391115160da1b141590503861143e565b3461024d576000806003193601126116e1576116a0612e69565b80546001600160a01b03198116825581906001600160a01b03167f8be0079c531659141344cd1fd0a4f28419497f9722a3daafe3b4186f6b6457e08280a380f35b80fd5b3461024d57602036600319011261024d57602061170260043561253e565b604051908152f35b8015150361024d57565b604435906001600160801b038216820361024d57565b3461024d5760e036600319011261024d576004356117478161170a565b6024359061175482610252565b61175c611714565b60c435929060843560643561177086610252565b61177c86838387612ec1565b6001600160a01b038416851561193557803b1561024d5760006040518092635c46a7ef60e11b82528183816117b68a303360048501612505565b03925af1968715610662576118646118af9661187a93610a429a611922575b505b6118136117f86117e960015460801c90565b6001016001600160801b031690565b6001600160801b036001549181199060801b16911617600155565b61185461182260015460801c90565b9961184b61182e6102d0565b6001600160801b038d168152996001600160801b031660208b0152565b15156040890152565b6001600160a01b03166060870152565b3360808601526001600160a01b031660a0850152565b60c083015260e082015260a4356101008201526118aa836001600160801b03166000526003602052604060002090565b6126da565b6118cc816001600160801b03166000526003602052604060002090565b7f79b799d0b553b6bf90c621da9414550c1434e012bbbda9afa3acf3ff2f1eae9c604051806119056001600160801b0386169482612828565b0390a26040516001600160801b0390911681529081906020820190565b8061065661192f92610279565b386117d5565b803b1561024d57604051637921219560e11b81523360048201523060248201526001600160801b03851660448201526001606482015260a06084820152600060a482018190529091829060c490829084905af1968715610662576118646118af9661187a93610a429a6119a9575b506117d7565b806106566119b692610279565b386119a3565b3461024d576101008060031936011261024d576004356119db8161170a565b6024356119e781610252565b6119ef611714565b91606435936084359460a4359360e43594611a0986610252565b611a1586828a85612ec1565b8480611c1b575b611c09576001600160a01b038216938515611b9c57843b1561024d57604051635c46a7ef60e11b81529860008a80611a598c303360048501612505565b0381838a5af194851561066257611b1c610a4299611b068c976001600160801b039e611b529a611b89575b505b611aba611a9e6117e96001546001600160801b031690565b6001600160801b03166001600160801b03196001541617600155565b611af6611ad26104296001546001600160801b031690565b9c611aed611ade6102f1565b6001600160801b03909c168c52565b151560208b0152565b6001600160a01b03166040890152565b3360608801526001600160a01b03166080870152565b60a0850152600060c085015260e084015282015260c435610120820152611b4d846000526002602052604060002090565b6128bd565b6040519485941690827fa29262303591d48ce94646a46b652916ce782073349bb5dc261ac4c5237d9397600080a482526020820190565b80610656611b9692610279565b38611a84565b843b1561024d57604051637921219560e11b81529860008a80611bc5888d3033600486016124c8565b0381838a5af194851561066257611b1c610a4299611b068c976001600160801b039e611b529a611bf6575b50611a86565b80610656611c0392610279565b38611bf0565b60405163be28143960e01b8152600490fd5b506001831415611a1c565b3461024d57600036600319011261024d576000546040516001600160a01b039091168152602090f35b3461024d57602036600319011261024d57600435611c7f6104f9600261044f846000526003602052604060002090565b33141580611e01575b611def57611c958161253e565b6541435449564560d01b8114159081611dda575b50611dc857611cc56105dc826000526005602052604060002090565b611cde600361044f836000526003602052604060002090565b90611cf6610475826000526007602052604060002090565b611d0e8161049b84600052600a602052604060002090565b546001600160a01b0384166000908152600860205260409020611d328282546123a1565b9055611d576109948561049b8560018060a01b0316600052600b602052604060002090565b90556001600160a01b0381166000908152600b60205260409020611d7c90849061049b565b5460009390916001600160a01b03918216911660008051602061326c8339815191528580a47f2809c7e17bf978fbc7194c0a694b638c4215e9140cacc6c38ca36010b45697df8280a280f35b604051630c0f6b1960e01b8152600490fd5b6650454e44494e4760c81b1415905038611ca9565b604051636c86c99f60e11b8152600490fd5b50600054611e17906001600160a01b03166104f9565b331415611c88565b3461024d57602036600319011261024d576004356000526004602052602060ff604060002054166040519015158152f35b3461024d57602036600319011261024d57600435600052600260205260406000208054610a4260018060a01b0392836001820154169360028201541690611ea0600382015460018060a01b031690565b6004820154600583015490600684015492600860078601549501549560405199896001600160801b0360ff8d9c60801c1691168b969391926101209895919b9a9996936001600160801b036101408a019d1689521515602089015260018060a01b03928380921660408a015216606088015216608086015260a085015260c084015260e08301526101008201520152565b81601f8201121561024d5780359160209167ffffffffffffffff841161028d578360051b9060405194611f66858401876102ae565b8552838086019282010192831161024d578301905b828210611f89575050505090565b81358152908301908301611f7b565b3461024d5760a036600319011261024d57611fb4600435610252565b611fbf602435610252565b67ffffffffffffffff60443581811161024d57611fe0903690600401611f31565b5060643581811161024d57611ff9903690600401611f31565b5060843590811161024d5761201290369060040161032e565b5060405163bc197c8160e01b8152602090f35b3461024d57602036600319011261024d576004356120556104f9600261044f846000526002602052604060002090565b331415806120fb575b6120e95761206b8161297b565b6541435449564560d01b81141590816120d4575b506120c25761209b6105dc826000526004602052604060002090565b7f2c56893f6f6026d19bd17b7d05c9f15c522de1ae2b1c3a825f91a73c799321f2600080a2005b60405163b9df81c760e01b8152600490fd5b6650454e44494e4760c81b141590503861207f565b60405163bbc5adc560e01b8152600490fd5b50600054612111906001600160a01b03166104f9565b33141561205e565b3461024d57604036600319011261024d57602061216160243561213b81610252565b6004356000526009835260406000209060018060a01b0316600052602052604060002090565b54604051908152f35b3461024d57602036600319011261024d57602061170260043561297b565b3461024d57602036600319011261024d576004356000526006602052602060ff604060002054166040519015158152f35b3461024d57600036600319011261024d57602060015460801c604051908152f35b3461024d5760a036600319011261024d576121f6600435610252565b612201602435610252565b60843567ffffffffffffffff811161024d5761222190369060040161032e565b5060405163f23a6e6160e01b8152602090f35b3461024d57602036600319011261024d5760043561225181610252565b612259612e69565b6001600160a01b0390811680156122a757600080546001600160a01b03198116831782559092167f8be0079c531659141344cd1fd0a4f28419497f9722a3daafe3b4186f6b6457e08380a380f35b60405162461bcd60e51b815260206004820152602660248201527f4f776e61626c653a206e6577206f776e657220697320746865207a65726f206160448201526564647265737360d01b6064820152608490fd5b3461024d57604036600319011261024d57602061216160043561231d81610252565b6024359061232a82610252565b60018060a01b0316600052600b835260406000209060018060a01b0316600052602052604060002090565b6040513d6000823e3d90fd5b9081602091031261024d57516123768161170a565b90565b634e487b7160e01b600052601160045260246000fd5b9190820180921161239c57565b612379565b9190820391821161239c57565b3d156123d9573d906123bf82610312565b916123cd60405193846102ae565b82523d6000602084013e565b606090565b9060086123e96102f1565b9261241a60ff825461240d6001600160801b03821688906001600160801b03169052565b60801c1615156020860152565b60018101546001600160a01b0316604085015260028101546001600160a01b031660608501526003810154612463906001600160a01b03165b6001600160a01b03166080860152565b600481015460a0850152600581015460c0850152600681015460e085015260078101546101008501520154610120830152565b8181029291811591840414171561239c57565b919082604091031261024d57602082516124c281610252565b92015190565b926001600160801b039160c0959360018060a01b038092168652166020850152166040830152606082015260a06080820152600060a08201520190565b6001600160a01b039182168152911660208201526001600160801b03909116604082015260806060820181905260009082015260a00190565b61254d61042960015460801c90565b811180156126d2575b6126c057612578612571826000526005602052604060002090565b5460ff1690565b8015612645575b6126345761259a612571826000526006602052604060002090565b61261d5760056125cc60046125b9846000526003602052604060002090565b0154926000526003602052604060002090565b015490421061260e578042106126005742116125f4576040516316351c4b60e21b8152600490fd5b64115391115160da1b90565b506541435449564560d01b90565b506650454e44494e4760c81b90565b506e115391115108098810d31052535151608a1b90565b506810d05390d15313115160ba1b90565b5060405163190af90160e21b81523060048201526020816024816001600160a01b037f0000000000000000000000000000000000000000000000000000000000000000165afa908115610662576000916126a1575b501561257f565b6126ba915060203d602011610bc357610bb581836102ae565b3861269a565b60405163e6759c6760e01b8152600490fd5b508015612556565b906101006006916127116126f582516001600160801b031690565b85546001600160801b0319166001600160801b03909116178555565b61274861272860208301516001600160801b031690565b85546001600160801b031660809190911b6001600160801b031916178555565b6127a16001850161277161275f6040850151151590565b829060ff801983541691151516179055565b60608301516001600160a01b03168154610100600160a81b03191660089190911b610100600160a81b0316179055565b60808101516127d7906001600160a01b03165b6002860180546001600160a01b0319166001600160a01b03909216919091179055565b60a081015161280d906001600160a01b03165b6003860180546001600160a01b0319166001600160a01b03909216919091179055565b60c0810151600485015560e081015160058501550151910155565b81546001600160801b038116825260801c6020820152610120810192916101009060069061287860018201546128656040870160ff831615159052565b60081c6001600160a01b03166060860152565b600281015461288f906001600160a01b0316612453565b60038101546001600160a01b031660a0850152600481015460c0850152600581015460e08501520154910152565b906101206008916128d86126f582516001600160801b031690565b6129026128e86020830151151590565b855460ff60801b191690151560801b60ff60801b16178555565b60408101516001850180546001600160a01b0319166001600160a01b03928316179055606082015161293491166127b4565b608081015161294b906001600160a01b03166127ea565b60a0810151600485015560c0810151600585015560e0810151600685015561010081015160078501550151910155565b6129906104296001546001600160801b031690565b81118015612ad5575b612ac3576129b4612571826000526004602052604060002090565b8015612a48575b61263457610f336129d6916000526002602052604060002090565b60e0810151421061260e576101008101514210908180612a37575b612a2757811591612a14575b506125f4576040516316351c4b60e21b8152600490fd5b905060a060c082015191015114386129fd565b506541435449564560d01b919050565b5060c081015160a0820151116129f1565b5060405163190af90160e21b81523060048201526020816024816001600160a01b037f0000000000000000000000000000000000000000000000000000000000000000165afa90811561066257600091612aa4575b50156129bb565b612abd915060203d602011610bc357610bb581836102ae565b38612a9d565b604051631a6cb34560e01b8152600490fd5b508015612999565b91612af7600361044f856000526003602052604060002090565b6001600160a01b0381166000908152600860205260409020909290612b1d8282546123a1565b905560008481526003602052604090206001600160a01b0393612b7c91612b4390610422565b6040805163152a902d60e11b81526001600160801b03909216600483015260248201859052949092859184918290899082906044820190565b0392165afa91821561066257600090600093612d9c575b508451630e44f5c560e41b8152600481018590529185836024817f00000000000000000000000000000000000000000000000000000000000000008b165afa948515610662578793600097600097612d75575b505085900394612c0f6109948361049b8a60018060a01b0316600052600b602052604060002090565b90556001600160a01b0386166000908152600b60205260409020612c3490829061049b565b549183821692838560008051602061326c833981519152991689600080a4612c6b600261044f8b6000526003602052604060002090565b8482169485911603612d33575b5050505050612cb8610994612c9f61115a600261044f896000526003602052604060002090565b61086a600361044f896000526003602052604060002090565b9055612cd3600261044f856000526003602052604060002090565b9180612d27612cf1600361044f886000526003602052604060002090565b9561086a600361044f612d1661115a600261044f876000526003602052604060002090565b936000526003602052604060002090565b549416921690600080a4565b61049b9085612d64949596970396610acd6109948561049b8560018060a01b0316600052600b602052604060002090565b549184600080a43880808080612c78565b612d919398508091929750903d106112fd576112eb81836102ae565b959095943880612be6565b9050612db6919250843d86116112fd576112eb81836102ae565b919038612b93565b6040516323b872dd60e01b60208201526001600160a01b03928316602482015292909116604483015260648083019390935291815260a081019181831067ffffffffffffffff84111761028d57612e17926040526130b3565b565b60405163a9059cbb60e01b60208201526001600160a01b039092166024830152604480830193909352918152608081019167ffffffffffffffff83118284101761028d57612e17926040526130b3565b6000546001600160a01b03163303612e7d57565b606460405162461bcd60e51b815260206004820152602060248201527f4f776e61626c653a2063616c6c6572206973206e6f7420746865206f776e65726044820152fd5b6040805163190af90160e21b8082526001600160a01b0384811660048085019190915297939694602094919390927f00000000000000000000000000000000000000000000000000000000000000008516918681602481865afa90811561066257600091613096575b5015613086578851908152308a82019081528690829081906020010381855afa90811561066257600091613069575b50156130595787516315e5d47360e01b81526001600160a01b03909216828a01908152859183918290819060200103915afa9081156106625760009161303c575b501561302c5760009183918751809481936301ffc9a760e01b835282612fce8d820190602082019163152a902d60e11b9052565b0393165af19182156106625760009261300f575b505015613000571115612ff3575050565b516373b9355360e01b8152fd5b505051630510c9f160e21b8152fd5b6130259250803d10610bc357610bb581836102ae565b3880612fe2565b855163c650342f60e01b81528790fd5b6130539150843d8611610bc357610bb581836102ae565b38612f9a565b875163c1b47abb60e01b81528990fd5b6130809150863d8811610bc357610bb581836102ae565b38612f59565b88516396aabca560e01b81528a90fd5b6130ad9150873d8911610bc357610bb581836102ae565b38612f2a565b604051613111916001600160a01b03166130cc82610292565b6000806020958685527f5361666545524332303a206c6f772d6c6576656c2063616c6c206661696c656487860152868151910182855af161310b6123ae565b916131d9565b8051908161311e57505050565b828061312e938301019101612361565b156131365750565b6084906040519062461bcd60e51b82526004820152602a60248201527f5361666545524332303a204552433230206f7065726174696f6e20646964206e6044820152691bdd081cdd58d8d9595960b21b6064820152fd5b1561319457565b60405162461bcd60e51b815260206004820152601d60248201527f416464726573733a2063616c6c20746f206e6f6e2d636f6e74726163740000006044820152606490fd5b919290156131f957508151156131ed575090565b612376903b151561318d565b82519091501561320c5750805190602001fd5b6040519062461bcd60e51b82528160208060048301528251908160248401526000935b828510613252575050604492506000838284010152601f80199101168101030190fd5b848101820151868601604401529381019385935061322f56fe2047d1633ff7768462ae07d28cb16e484203bfd6d85ce832494270ebcd9081a2a2646970667358221220aa6fb02ec72f27ba9e6420894e52b6cc0e2f59b59a5c7f54a206fb54d1fd61d364736f6c63430008190033",
  "linkReferences": {},
  "deployedLinkReferences": {}
}