{
  "_format": "hh-sol-artifact-1",
  "contractName": "EventFactory",
  "sourceName": "contracts/src/EventFactory.sol",
  "abi": [
    {
      "inputs": [
        {
          "internalType": "address",
          "name": "_registry",
          "type": "address"
        },
        {
          "internalType": "uint96",
          "name": "_defaultRoyaltyPercent",
          "type": "uint96"
        },
        {
          "internalType": "uint256",
          "name": "_defaultMaxResalePercent",
          "type": "uint256"
        },
        {
          "internalType": "address",
          "name": "_splitterImplementation",
          "type": "address"
        }
      ],
      "stateMutability": "nonpayable",
      "type": "constructor"
    },
    {
      "inputs": [],
      "name": "EventNotFound",
      "type": "error"
    },
    {
      "inputs": [],
      "name": "InvalidEventDate",
      "type": "error"
    },
    {
      "inputs": [],
      "name": "InvalidMaxResalePercent",
      "type": "error"
    },
    {
      "inputs": [],
      "name": "InvalidMaxSupply",
      "type": "error"
    },
    {
      "inputs": [],
      "name": "InvalidMaxTicketsPerWallet",
      "type": "error"
    },
    {
      "inputs": [],
      "name": "InvalidRoyaltyPercent",
      "type": "error"
    },
    {
      "inputs": [],
      "name": "InvalidTicketPrice",
      "type": "error"
    },
    {
      "inputs": [],
      "name": "ZeroAddressNotAllowed",
      "type": "error"
    },
    {
      "anonymous": false,
      "inputs": [
        {
          "indexed": false,
          "internalType": "uint256",
          "name": "newMaxResalePercent",
          "type": "uint256"
        }
      ],
      "name": "DefaultMaxResaleUpdated",
      "type": "event"
    },
    {
      "anonymous": false,
      "inputs": [
        {
          "indexed": false,
          "internalType": "uint96",
          "name": "newRoyaltyPercent",
          "type": "uint96"
        }
      ],
      "name": "DefaultRoyaltyUpdated",
      "type": "event"
    },
    {
      "anonymous": false,
      "inputs": [
        {
          "indexed": true,
          "internalType": "uint256",
          "name": "eventId",
          "type": "uint256"
        },
        {
          "indexed": true,
          "internalType": "address",
          "name": "contractAddress",
          "type": "address"
        },
        {
          "indexed": true,
          "internalType": "address",
          "name": "organizer",
          "type": "address"
        },
        {
          "indexed": false,
          "internalType": "string",
          "name": "name",
          "type": "string"
        },
        {
          "indexed": false,
          "internalType": "uint256",
          "name": "eventDate",
          "type": "uint256"
        },
        {
          "indexed": false,
          "internalType": "uint256",
          "name": "ticketPrice",
          "type": "uint256"
        },
        {
          "indexed": false,
          "internalType": "uint256",
          "name": "maxSupply",
          "type": "uint256"
        }
      ],
      "name": "EventCreated",
      "type": "event"
    },
    {
      "anonymous": false,
      "inputs": [
        {
          "indexed": true,
          "internalType": "address",
          "name": "previousOwner",
          "type": "address"
        },
        {
          "indexed": true,
          "internalType": "address",
          "name": "newOwner",
          "type": "address"
        }
      ],
      "name": "OwnershipTransferred",
      "type": "event"
    },
    {
      "anonymous": false,
      "inputs": [
        {
          "indexed": true,
          "internalType": "address",
          "name": "oldRegistry",
          "type": "address"
        },
        {
          "indexed": true,
          "internalType": "address",
          "name": "newRegistry",
          "type": "address"
        }
      ],
      "name": "RegistryUpdated",
      "type": "event"
    },
    {
      "anonymous": false,
      "inputs": [
        {
          "indexed": true,
          "internalType": "address",
          "name": "eventAddress",
          "type": "address"
        },
        {
          "indexed": true,
          "internalType": "address",
          "name": "splitterAddress",
          "type": "address"
        }
      ],
      "name": "SplitterCreated",
      "type": "event"
    },
    {
      "inputs": [
        {
          "internalType": "uint256",
          "name": "",
          "type": "uint256"
        }
      ],
      "name": "allEvents",
      "outputs": [
        {
          "internalType": "address",
          "name": "",
          "type": "address"
        }
      ],
      "stateMutability": "view",
      "type": "function"
    },
    {
      "inputs": [
        {
          "internalType": "string",
          "name": "name",
          "type": "string"
        },
        {
          "internalType": "string",
          "name": "symbol",
          "type": "string"
        },
        {
          "internalType": "string",
          "name": "venue",
          "type": "string"
        },
        {
          "internalType": "uint256",
          "name": "eventDate",
          "type": "uint256"
        },
        {
          "internalType": "uint256",
          "name": "ticketPrice",
          "type": "uint256"
        },
        {
          "internalType": "uint256",
          "name": "maxSupply",
          "type": "uint256"
        },
        {
          "internalType": "string",
          "name": "baseURI",
          "type": "string"
        }
      ],
      "name": "createEvent",
      "outputs": [
        {
          "internalType": "address",
          "name": "eventAddress",
          "type": "address"
        }
      ],
      "stateMutability": "nonpayable",
      "type": "function"
    },
    {
      "inputs": [
        {
          "internalType": "string",
          "name": "name",
          "type": "string"
        },
        {
          "internalType": "string",
          "name": "symbol",
          "type": "string"
        },
        {
          "internalType": "string",
          "name": "venue",
          "type": "string"
        },
        {
          "internalType": "uint256",
          "name": "eventDate",
          "type": "uint256"
        },
        {
          "internalType": "uint256",
          "name": "ticketPrice",
          "type": "uint256"
        },
        {
          "internalType": "uint256",
          "name": "maxSupply",
          "type": "uint256"
        },
        {
          "internalType": "uint256",
          "name": "maxTicketsPerWallet",
          "type": "uint256"
        },
        {
          "internalType": "uint256",
          "name": "maxResalePercent",
          "type": "uint256"
        },
        {
          "internalType": "string",
          "name": "baseURI",
          "type": "string"
        },
        {
          "internalType": "uint96",
          "name": "royaltyPercent",
          "type": "uint96"
        },
        {
          "internalType": "address[]",
          "name": "royaltyRecipients",
          "type": "address[]"
        },
        {
          "internalType": "uint256[]",
          "name": "royaltyShares",
          "type": "uint256[]"
        }
      ],
      "name": "createEventAdvanced",
      "outputs": [
        {
          "internalType": "address",
          "name": "eventAddress",
          "type": "address"
        }
      ],
      "stateMutability": "nonpayable",
      "type": "function"
    },
    {
      "inputs": [],
      "name": "defaultMaxResalePercent",
      "outputs": [
        {
          "internalType": "uint256",
          "name": "",
          "type": "uint256"
        }
      ],
      "stateMutability": "view",
      "type": "function"
    },
    {
      "inputs": [],
      "name": "defaultRoyaltyPercent",
      "outputs": [
        {
          "internalType": "uint96",
          "name": "",
          "type": "uint96"
        }
      ],
      "stateMutability": "view",
      "type": "function"
    },
    {
      "inputs": [],
      "name": "eventCount",
      "outputs": [
        {
          "internalType": "uint256",
          "name": "",
          "type": "uint256"
        }
      ],
      "stateMutability": "view",
      "type": "function"
    },
    {
      "inputs": [
        {
          "internalType": "address",
          "name": "",
          "type": "address"
        }
      ],
      "name": "eventInfo",
      "outputs": [
        {
          "internalType": "uint256",
          "name": "id",
          "type": "uint256"
        },
        {
          "internalType": "address",
          "name": "contractAddress",
          "type": "address"
        },
        {
          "internalType": "address",
          "name": "organizer",
          "type": "address"
        },
        {
          "internalType": "string",
          "name": "name",
          "type": "string"
        },
        {
          "internalType": "string",
          "name": "venue",
          "type": "string"
        },
        {
          "internalType": "uint256",
          "name": "eventDate",
          "type": "uint256"
        },
        {
          "internalType": "uint256",
          "name": "ticketPrice",
          "type": "uint256"
        },
        {
          "internalType": "uint256",
          "name": "maxSupply",
          "type": "uint256"
        },
        {
          "internalType": "uint256",
          "name": "createdAt",
          "type": "uint256"
        }
      ],
      "stateMutability": "view",
      "type": "function"
    },
    {
      "inputs": [
        {
          "internalType": "address",
          "name": "",
          "type": "address"
        }
      ],
      "name": "eventSplitter",
      "outputs": [
        {
          "internalType": "address",
          "name": "",
          "type": "address"
        }
      ],
      "stateMutability": "view",
      "type": "function"
    },
    {
      "inputs": [
        {
          "internalType": "address",
          "name": "",
          "type": "address"
        },
        {
          "internalType": "uint256",
          "name": "",
          "type": "uint256"
        }
      ],
      "name": "eventsByOrganizer",
      "outputs": [
        {
          "internalType": "address",
          "name": "",
          "type": "address"
        }
      ],
      "stateMutability": "view",
      "type": "function"
    },
    {
      "inputs": [
        {
          "internalType": "address",
          "name": "eventAddress",
          "type": "address"
        }
      ],
      "name": "getEventInfo",
      "outputs": [
        {
          "components": [
            {
              "internalType": "uint256",
              "name": "id",
              "type": "uint256"
            },
            {
              "internalType": "address",
              "name": "contractAddress",
              "type": "address"
            },
            {
              "internalType": "address",
              "name": "organizer",
              "type": "address"
            },
            {
              "internalType": "string",
              "name": "name",
              "type": "string"
            },
            {
              "internalType": "string",
              "name": "venue",
              "type": "string"
            },
            {
              "internalType": "uint256",
              "name": "eventDate",
              "type": "uint256"
            },
            {
              "internalType": "uint256",
              "name": "ticketPrice",
              "type": "uint256"
            },
            {
              "internalType": "uint256",
              "name": "maxSupply",
              "type": "uint256"
            },
            {
              "internalType": "uint256",
              "name": "createdAt",
              "type": "uint256"
            }
          ],
          "internalType": "struct EventFactory.EventInfo",
          "name": "",
          "type": "tuple"
        }
      ],
      "stateMutability": "view",
      "type": "function"
    },
    {
      "inputs": [],
      "name": "getEvents",
      "outputs": [
        {
          "internalType": "address[]",
          "name": "",
          "type": "address[]"
        }
      ],
      "stateMutability": "view",
      "type": "function"
    },
    {
      "inputs": [
        {
          "internalType": "address",
          "name": "organizer",
          "type": "address"
        }
      ],
      "name": "getEventsByOrganizer",
      "outputs": [
        {
          "internalType": "address[]",
          "name": "",
          "type": "address[]"
        }
      ],
      "stateMutability": "view",
      "type": "function"
    },
    {
      "inputs": [
        {
          "internalType": "uint256",
          "name": "offset",
          "type": "uint256"
        },
        {
          "internalType": "uint256",
          "name": "limit",
          "type": "uint256"
        }
      ],
      "name": "getEventsPaginated",
      "outputs": [
        {
          "internalType": "address[]",
          "name": "events",
          "type": "address[]"
        },
        {
          "internalType": "uint256",
          "name": "total",
          "type": "uint256"
        }
      ],
      "stateMutability": "view",
      "type": "function"
    },
    {
      "inputs": [
        {
          "internalType": "address[]",
          "name": "eventAddresses",
          "type": "address[]"
        }
      ],
      "name": "getMultipleEventInfo",
      "outputs": [
        {
          "components": [
            {
              "internalType": "uint256",
              "name": "id",
              "type": "uint256"
            },
            {
              "internalType": "address",
              "name": "contractAddress",
              "type": "address"
            },
            {
              "internalType": "address",
              "name": "organizer",
              "type": "address"
            },
            {
              "internalType": "string",
              "name": "name",
              "type": "string"
            },
            {
              "internalType": "string",
              "name": "venue",
              "type": "string"
            },
            {
              "internalType": "uint256",
              "name": "eventDate",
              "type": "uint256"
            },
            {
              "internalType": "uint256",
              "name": "ticketPrice",
              "type": "uint256"
            },
            {
              "internalType": "uint256",
              "name": "maxSupply",
              "type": "uint256"
            },
            {
              "internalType": "uint256",
              "name": "createdAt",
              "type": "uint256"
            }
          ],
          "internalType": "struct EventFactory.EventInfo[]",
          "name": "infos",
          "type": "tuple[]"
        }
      ],
      "stateMutability": "view",
      "type": "function"
    },
    {
      "inputs": [
        {
          "internalType": "address",
          "name": "",
          "type": "address"
        }
      ],
      "name": "isEventContract",
      "outputs": [
        {
          "internalType": "bool",
          "name": "",
          "type": "bool"
        }
      ],
      "stateMutability": "view",
      "type": "function"
    },
    {
      "inputs": [],
      "name": "owner",
      "outputs": [
        {
          "internalType": "address",
          "name": "",
          "type": "address"
        }
      ],
      "stateMutability": "view",
      "type": "function"
    },
    {
      "inputs": [],
      "name": "registry",
      "outputs": [
        {
          "internalType": "contract IRegistry",
          "name": "",
          "type": "address"
        }
      ],
      "stateMutability": "view",
      "type": "function"
    },
    {
      "inputs": [],
      "name": "renounceOwnership",
      "outputs": [],
      "stateMutability": "nonpayable",
      "type": "function"
    },
    {
      "inputs": [
        {
          "internalType": "uint256",
          "name": "newMaxResalePercent",
          "type": "uint256"
        }
      ],
      "name": "setDefaultMaxResale",
      "outputs": [],
      "stateMutability": "nonpayable",
      "type": "function"
    },
    {
      "inputs": [
        {
          "internalType": "uint96",
          "name": "newRoyaltyPercent",
          "type": "uint96"
        }
      ],
      "name": "setDefaultRoyalty",
      "outputs": [],
      "stateMutability": "nonpayable",
      "type": "function"
    },
    {
      "inputs": [
        {
          "internalType": "address",
          "name": "newRegistry",
          "type": "address"
        }
      ],
      "name": "setRegistry",
      "outputs": [],
      "stateMutability": "nonpayable",
      "type": "function"
    },
    {
      "inputs": [],
      "name": "splitterImplementation",
      "outputs": [
        {
          "internalType": "address",
          "name": "",
          "type": "address"
        }
      ],
      "stateMutability": "view",
      "type": "function"
    },
    {
      "inputs": [
        {
          "internalType": "address",
          "name": "newOwner",
          "type": "address"
        }
      ],
      "name": "transferOwnership",
      "outputs": [],
      "stateMutability": "nonpayable",
      "type": "function"
    }
  ],
  "bytecode": "0x60803461015357601f6156c538819003918201601f191683019291906001600160401b038411838510176101585781608092849260409687528339810103126101535761004b8161016e565b60208201516001600160601b038116929083900361015357610073606085830151920161016e565b926000549360018060a01b03908160018060a01b0319953387891617600055885197823391167f8be0079c531659141344cd1fd0a4f28419497f9722a3daafe3b4186f6b6457e0600080a316958615610144575016938415610133576103e8821161012257606483106101115783600154161760015560018060601b0319600354161760035560045560055416176005555161554290816101838239f35b85516329c0198160e21b8152600490fd5b855163154e0bdf60e31b8152600490fd5b85516342bcdf7f60e11b8152600490fd5b6342bcdf7f60e11b8152600490fd5b600080fd5b634e487b7160e01b600052604160045260246000fd5b51906001600160a01b03821682036101535756fe6080604052600436101561001257600080fd5b60003560e01c80630f0332a3146119a857806320f5b54e146119685780632360ea321461179c578063372080d01461177e5780633bec5cff1461173c578063404aa8f9146116a457806344125c0b146115de5780634d972e8b1461159f5780634e42f6ae14611578578063715018a61461151f57806371be2e4a146115015780637b103999146114d857806380ac550b1461149d5780638da5cb5b146114745780639eb863da1461141f5780639f6271c314611387578063a91ee0dc14611305578063cbd05a0a14610b66578063d6948b7514610adf578063d78741e314610a86578063ddc120af1461020b578063e63db9b2146101e25763f2fde38b1461011957600080fd5b346101dd5760203660031901126101dd57610132611a90565b61013a611f64565b6001600160a01b0390811690811561018957600054826001600160601b0360a01b821617600055167f8be0079c531659141344cd1fd0a4f28419497f9722a3daafe3b4186f6b6457e0600080a3005b60405162461bcd60e51b815260206004820152602660248201527f4f776e61626c653a206e6577206f776e657220697320746865207a65726f206160448201526564647265737360d01b6064820152608490fd5b600080fd5b346101dd5760003660031901126101dd576005546040516001600160a01b039091168152602090f35b346101dd5760e03660031901126101dd576004356001600160401b0381116101dd5761023b903690600401611d97565b6024356001600160401b0381116101dd5761025a903690600401611d97565b906044356001600160401b0381116101dd5761027a903690600401611d97565b9060c4356001600160401b0381116101dd5761029a903690600401611d97565b92600454906001600160601b0360035416604051926102b884611cb6565b60008452604051966102c988611cb6565b60008852600097426064351115610a745760843515610a625760a43515610a5057339580516108e0575b505060405193846134f68101106001600160401b036134f6870111176108cc57916103ac9161036b6103558796956134f661201789396101806134f6890181815261033f91018c611aa6565b906134f68901820360206134f68b010152611aa6565b6134f68701810360406134f6890101528a611aa6565b6064356134f687016060810191909152608435608082015260a43560a082015260c081018c905260e081019390935282810361010090930192909252611aa6565b336134f684016101208101919091526001600160a01b0386166101408201526101600191909152039085f09283156106b25760025460001981146108b8576001016002556104026001600160a01b038516611fbc565b338552600760205260408520610422906001600160a01b03861690611ff9565b6001600160a01b038416855260096020526040808620805460ff191660011790556002549051919061045383611c71565b82526001600160a01b038581166020808501828152336040808801918252606088018a8152608089019790975260643560a089015260843560c089015260a43560e089015242610100890152938b5260089092529189208551815591516001830180549185166001600160a01b031992831617905590516002830180549190941691161790915590518051919291906001600160401b0382116107da5781906104ff6003860154611c37565b601f8111610868575b50602090601f83116001146107f95789926107ee575b50508160011b916000199060031b1c19161760038301555b60808101518051906001600160401b0382116107da576105596004850154611c37565b601f8111610796575b50602090601f831160011461072357918060089492610100948b92610718575b50508160011b916000199060031b1c19161760048501555b60a0810151600585015560c0810151600685015560e081015160078501550151910155336001600160a01b038216036106c1575b5060015483906001600160a01b0316803b156106bd57604051632072073760e21b81526001600160a01b03851660048201526001602482015291908290604490829084905af180156106b25761069a575b6020838360025461063b60405192608084526080840190611aa6565b60643583860152608435604084015260a435606084015233926001600160a01b03851692917fdc67383106966323b62e03e626ffea02277c1370a355720f5e6c83a54cb7d9c8919081900390a46040516001600160a01b039091168152f35b6106a48491611ca3565b6106ae578261061f565b8280fd5b6040513d86823e3d90fd5b5080fd5b6001600160a01b03838116808652600a6020526040862080546001600160a01b031916939092169283179091557f22142b283581f0b2a487f7a23e0422d292eb5783629173717aa106744ad70d608580a3836105ce565b015190508a80610582565b906004850189526020892091895b601f198516811061077e575092600894926001926101009583601f19811610610765575b505050811b01600485015561059a565b015160001960f88460031b161c191690558a8080610755565b91926020600181928685015181550194019201610731565b60048501895260208920601f840160051c8101602085106107d3575b601f830160051c820181106107c8575050610562565b8a81556001016107b2565b50806107b2565b634e487b7160e01b88526041600452602488fd5b01519050888061051e565b9250600385018952602089209089935b601f198416851061084d576001945083601f19811610610834575b505050811b016003830155610536565b015160001960f88460031b161c19169055888080610824565b81810151835560209485019460019093019290910190610809565b90915060038501895260208920601f840160051c8101602085106108b1575b90849392915b601f830160051c820181106108a3575050610508565b8b815585945060010161088d565b5080610887565b634e487b7160e01b86526011600452602486fd5b634e487b7160e01b89526041600452602489fd5b909195506e5af43d82803e903d91602b57fd5bf3600554763d602d80600a3d3981f3363d3d373d3d3d363d7300000062ffffff8260881c16176000526001600160781b03199060781b1617602052603760096000f0916001600160a01b03831615610a12576001600160a01b0383163b156101dd57604051633b4f19a560e21b8152600060048201523360248201526080604482015291829190610988906084840190611b65565b6003198382030160648401526020808351928381520192019060005b8181106109f95750600093928390039150829050836001600160a01b0387165af180156109ed576109d9575b509388806102f3565b6109e4919850611ca3565b600096886109d0565b6040513d6000823e3d90fd5b82518452859450602093840193909201916001016109a4565b60405162461bcd60e51b8152602060048201526016602482015275115490cc4c4d8dce8818dc99585d194819985a5b195960521b6044820152606490fd5b60405163066f305360e21b8152600490fd5b6040516306f6808b60e01b8152600490fd5b604051631081237360e21b8152600490fd5b346101dd5760403660031901126101dd57610a9f611a90565b6024359060018060a01b038091166000526007602052604060002080548310156101dd57602092610acf91611c1f565b9190546040519260031b1c168152f35b346101dd5760203660031901126101dd576004356001600160601b0381168091036101dd57610b0c611f64565b6103e88111610b54576020817f35804d3532228d15c4fe3fa7a4fb8100c86dc285216e9c806f5d6f2cef552839926001600160601b03196003541617600355604051908152a1005b60405163154e0bdf60e31b8152600490fd5b346101dd576101803660031901126101dd576004356001600160401b0381116101dd57610b97903690600401611d97565b6024356001600160401b0381116101dd57610bb6903690600401611d97565b906044356001600160401b0381116101dd57610bd6903690600401611d97565b90610104356001600160401b0381116101dd57610bf7903690600401611d97565b61012435936001600160601b03851685036101dd57610144356001600160401b0381116101dd57610c2c903690600401611ba2565b959092610164356001600160401b0381116101dd57610c4f903690600401611ba2565b90946103e86001600160601b03851611610b5457606460e435106112f357610c7689611e33565b98610c846040519a8b611cd1565b808a5260208a0191368260051b8201116101dd5780925b8260051b820184106112d15750505050610cb481611e33565b90610cc26040519283611cd1565b808252602082018096368360051b8201116101dd5780915b8360051b820183106112c15750505050426064351115610a745760009760843515610a625760a43515610a505733958151611199575b50505060405192836134f68101106001600160401b036134f6860111176107da57610da4849392610d646103556001600160601b03946134f661201789396101806134f6890181815261033f91018c611aa6565b6064356134f687016060810191909152608435608082015260a43560a082015260c43560c082015260e43560e08201528082036101009091015290611aa6565b336134f685016101208101919091526001600160a01b0387166101408201529190921661016090910152039085f09283156106b25760025460001981146108b857600101600255610dfd6001600160a01b038516611fbc565b338552600760205260408520610e1d906001600160a01b03861690611ff9565b6001600160a01b038416855260096020526040808620805460ff1916600117905560025490519190610e4e83611c71565b82526001600160a01b038581166020808501828152336040808801918252606088018a8152608089019790975260643560a089015260843560c089015260a43560e089015242610100890152938b5260089092529189208551815591516001830180549185166001600160a01b031992831617905590516002830180549190941691161790915590518051919291906001600160401b0382116107da578190610efa6003860154611c37565b601f8111611149575b50602090601f83116001146110da5789926110cf575b50508160011b916000199060031b1c19161760038301555b60808101518051906001600160401b0382116107da57610f546004850154611c37565b601f811161108b575b50602090601f831160011461103257918060089492610100948b926107185750508160011b916000199060031b1c191617600485015560a0810151600585015560c0810151600685015560e081015160078501550151910155336001600160a01b038216036106c1575060015483906001600160a01b0316803b156106bd57604051632072073760e21b81526001600160a01b03851660048201526001602482015291908290604490829084905af180156106b25761069a576020838360025461063b60405192608084526080840190611aa6565b906004850189526020892091895b601f1985168110611073575092600894926001926101009583601f1981161061076557505050811b01600485015561059a565b91926020600181928685015181550194019201611040565b60048501895260208920601f840160051c8101602085106110c8575b601f830160051c820181106110bd575050610f5d565b8a81556001016110a7565b50806110a7565b015190508880610f19565b9250600385018952602089209089935b601f198416851061112e576001945083601f19811610611115575b505050811b016003830155610f31565b015160001960f88460031b161c19169055888080611105565b818101518355602094850194600190930192909101906110ea565b90915060038501895260208920601f840160051c810160208510611192575b90849392915b601f830160051c82018110611184575050610f03565b8b815585945060010161116e565b5080611168565b90919295506e5af43d82803e903d91602b57fd5bf3600554763d602d80600a3d3981f3363d3d373d3d3d363d7300000062ffffff8260881c16176000526001600160781b03199060781b1617602052603760096000f0926001600160a01b03841615610a12576001600160a01b0384163b156101dd57604051633b4f19a560e21b815260006004820152336024820152608060448201529283929190602090611246906084860190611b65565b84810360031901606486015291518083529101919060005b8181106112a85750600093928390039150829050836001600160a01b0387165af180156109ed57611294575b5092878080610d10565b61129f919750611ca3565b6000958761128a565b825184528594506020938401939092019160010161125e565b8235815260209283019201610cda565b83356001600160a01b03811690036101dd578335815260209384019301610c9b565b6040516329c0198160e21b8152600490fd5b346101dd5760203660031901126101dd5761131e611a90565b611326611f64565b6001600160a01b0390811690811561137557600154826001600160601b0360a01b821617600155167f482b97c53e48ffa324a976e2738053e9aff6eee04d8aac63b10e19411d869b82600080a3005b6040516342bcdf7f60e11b8152600490fd5b346101dd576020806003193601126101dd576001600160a01b0390816113ab611a90565b16600052600781526040600020916040518093849184825491828152019160005284600020936000905b868383106114035785906113eb82870383611cd1565b6113ff604051928284938452830190611b65565b0390f35b86548216855260019687019689965094019391909101906113d5565b346101dd5760203660031901126101dd5760043561143b611f64565b606481106112f3576020817f2a5829f3eaa25a5364b7d6d685935aa8cb77c791b2af178e0c452dab42ff9f8092600455604051908152a1005b346101dd5760003660031901126101dd576000546040516001600160a01b039091168152602090f35b346101dd5760203660031901126101dd5760206001600160a01b03806114c1611a90565b16600052600a825260406000205416604051908152f35b346101dd5760003660031901126101dd576001546040516001600160a01b039091168152602090f35b346101dd5760003660031901126101dd576020600254604051908152f35b346101dd5760003660031901126101dd57611538611f64565b600080546001600160a01b0319811682556001600160a01b03167f8be0079c531659141344cd1fd0a4f28419497f9722a3daafe3b4186f6b6457e08280a3005b346101dd5760003660031901126101dd5760206001600160601b0360035416604051908152f35b346101dd5760203660031901126101dd576001600160a01b036115c0611a90565b166000526009602052602060ff604060002054166040519015158152f35b346101dd5760203660031901126101dd576001600160a01b0380611600611a90565b16600052600860205260406000209081549181600182015416916002820154169261162d60038301611cf2565b9161163a60048201611cf2565b9261168a60058301549461167c60068501549360086007870154960154966040519a8b9a610120928c5260208c015260408b01528060608b0152890190611aa6565b908782036080890152611aa6565b9360a086015260c085015260e08401526101008301520390f35b346101dd5760003660031901126101dd57604051806006549182815260208091019260066000527ff652222313e28459528d920b65115c16c04f3efc82aaedc97be59f3f377c0d3f916000905b82821061171c576113ff8561170881890382611cd1565b604051918291602083526020830190611b65565b83546001600160a01b0316865294850194600193840193909101906116f1565b346101dd5760203660031901126101dd576004356006548110156101dd57611765602091611bd2565b905460405160039290921b1c6001600160a01b03168152f35b346101dd5760003660031901126101dd576020600454604051908152f35b346101dd576020806003193601126101dd576004356001600160401b0381116101dd576117cd903690600401611ba2565b91906117d883611e33565b906117e66040519283611cd1565b8382526117f284611e33565b601f19018360005b8281106119525750505060005b84811061186f5750506040519082820192808352815180945260408301938160408260051b8601019301916000955b8287106118435785850386f35b90919293828061185f600193603f198a82030186528851611ae6565b9601920196019592919092611836565b6001906001600160a01b038061188e611889848a88611f40565b611f50565b166000526009865260ff604060002054166118ab575b5001611807565b806118ba611889848a88611f40565b1660005260088087526040600020604051926118d584611c71565b815484528086830154168985015260028201541660408401526118fa60038201611cf2565b606084015261190b60048201611cf2565b6080840152600581015460a0840152600681015460c0840152600781015460e084015201546101008201526119408286611e6d565b5261194b8185611e6d565b50866118a4565b61195a611ded565b8282870101520184906117fa565b346101dd5760403660031901126101dd5761199e61198a602435600435611e81565b604051928392604084526040840190611b65565b9060208301520390f35b346101dd576020806003193601126101dd576119c2611a90565b906119cb611ded565b506001600160a01b03918216600081815260098352604090205460ff1615611a7e57600052600881526008604060002060405193611a0885611c71565b8154855280600183015416848601526002820154166040850152611a2e60038201611cf2565b6060850152611a3f60048201611cf2565b6080850152600581015460a0850152600681015460c0850152600781015460e085015201546101008301526113ff604051928284938452830190611ae6565b604051635add554360e01b8152600490fd5b600435906001600160a01b03821682036101dd57565b919082519283825260005b848110611ad2575050826000602080949584010152601f8019910116010190565b602081830181015184830182015201611ab1565b90611b39611b2761012084518452602085015160018060a01b0380911660208601526040860151166040850152606085015190806060860152840190611aa6565b60808401518382036080850152611aa6565b9160a081015160a083015260c081015160c083015260e081015160e08301526101008091015191015290565b90815180825260208080930193019160005b828110611b85575050505090565b83516001600160a01b031685529381019392810192600101611b77565b9181601f840112156101dd578235916001600160401b0383116101dd576020808501948460051b0101116101dd57565b600654811015611c095760066000527ff652222313e28459528d920b65115c16c04f3efc82aaedc97be59f3f377c0d3f0190600090565b634e487b7160e01b600052603260045260246000fd5b8054821015611c095760005260206000200190600090565b90600182811c92168015611c67575b6020831014611c5157565b634e487b7160e01b600052602260045260246000fd5b91607f1691611c46565b61012081019081106001600160401b03821117611c8d57604052565b634e487b7160e01b600052604160045260246000fd5b6001600160401b038111611c8d57604052565b602081019081106001600160401b03821117611c8d57604052565b90601f801991011681019081106001600160401b03821117611c8d57604052565b90604051918260008254611d0581611c37565b90818452602094600191600181169081600014611d755750600114611d36575b505050611d3492500383611cd1565b565b600090815285812095935091905b818310611d5d575050611d349350820101388080611d25565b85548884018501529485019487945091830191611d44565b92505050611d3494925060ff191682840152151560051b820101388080611d25565b81601f820112156101dd578035906001600160401b038211611c8d5760405192611dcb601f8401601f191660200185611cd1565b828452602083830101116101dd57816000926020809301838601378301015290565b60405190611dfa82611c71565b81610100600091828152826020820152826040820152606080820152606060808201528260a08201528260c08201528260e08201520152565b6001600160401b038111611c8d5760051b60200190565b91908201809211611e5757565b634e487b7160e01b600052601160045260246000fd5b8051821015611c095760209160051b010190565b916006549182841015611f2357611e989084611e4a565b828111611f1c575b838103908111611e5757611eb381611e33565b611ec06040519182611cd1565b818152601f19611ecf83611e33565b01366020830137809460005b838110611ee85750505050565b80611efd611ef860019385611e4a565b611bd2565b838060a01b0391549060031b1c16611f158286611e6d565b5201611edb565b5081611ea0565b50909150604051611f3381611cb6565b6000815260003681379190565b9190811015611c095760051b0190565b356001600160a01b03811681036101dd5790565b6000546001600160a01b03163303611f7857565b606460405162461bcd60e51b815260206004820152602060248201527f4f776e61626c653a2063616c6c6572206973206e6f7420746865206f776e65726044820152fd5b600654600160401b811015611c8d57806001611fdb9201600655611bd2565b60018060a09493941b038084549260031b9316831b921b1916179055565b8054600160401b811015611c8d57611fdb91600182018155611c1f56fe6080604052346108f6576134f680380380610019816108fb565b928339810190610180818303126108f65780516001600160401b0381116108f65782610046918301610920565b60208201516001600160401b0381116108f65783610065918401610920565b60408301519092906001600160401b0381116108f65784610087918301610920565b936060820151608083015160a08401519060c08501519260e0860151946101008701519060018060401b0382116108f6576100c3918801610920565b986100d1610120880161098b565b976101606100e26101408a0161098b565b980151996001600160601b038b168b036108f65781516001600160401b0381116103ad57600054600181811c911680156108ec575b602082101461053857601f811161089e575b50806020601f821160011461082d57600091610822575b508160011b916000199060031b1c1916176000555b8051906001600160401b0382116103ad5760015490600182811c92168015610818575b60208310146105385781601f8493116107bd575b50602090601f83116001146107455760009261073a575b50508160011b916000199060031b1c1916176001555b6101c23361099f565b6001600e556001600160a01b03891615610728578051906001600160401b0382116103ad5760105490600182811c9216801561071e575b60208310146105385781601f8493116106c3575b50602090601f831160011461064b57600092610640575b50508160011b916000199060031b1c1916176010555b8051906001600160401b0382116103ad5760115490600182811c92168015610636575b60208310146105385781601f8493116105db575b50602090601f831160011461056357600092610558575b50508160011b916000199060031b1c1916176011555b60125560135560145560155560165583516001600160401b0381116103ad57601754600181811c9116801561054e575b602082101461053857601f81116104d3575b50602094601f821160011461046b57948192939495600092610460575b50508160011b916000199060031b1c1916176017555b601880546001600160a01b03199081166001600160a01b0385161790915560198054821633179055906127106001600160601b03851611610408576001600160a01b03169081156103c3576040805190810194906001600160401b038611818710176103ad5761039e95604052838152602060018060601b03831691015260a01b1617600b5561099f565b604051612a8d90816109e98239f35b634e487b7160e01b600052604160045260246000fd5b60405162461bcd60e51b815260206004820152601960248201527f455243323938313a20696e76616c6964207265636569766572000000000000006044820152606490fd5b60405162461bcd60e51b815260206004820152602a60248201527f455243323938313a20726f79616c7479206665652077696c6c206578636565646044820152692073616c65507269636560b01b6064820152608490fd5b0151905038806102fd565b601f19821695601760005260206000209160005b8881106104bb575083600195969798106104a2575b505050811b01601755610313565b015160001960f88460031b161c19169055388080610494565b9192602060018192868501518155019401920161047f565b60176000527fc624b66cc0138b8fabc209247f72d758e1cf3343756d543badbf24212bed8c15601f830160051c8101916020841061052e575b601f0160051c01905b81811061052257506102e0565b60008155600101610515565b909150819061050c565b634e487b7160e01b600052602260045260246000fd5b90607f16906102ce565b015190503880610288565b60116000908152935060008051602061347683398151915291905b601f19841685106105c0576001945083601f198116106105a7575b505050811b0160115561029e565b015160001960f88460031b161c19169055388080610599565b8181015183556020948501946001909301929091019061057e565b6011600052909150600080516020613476833981519152601f840160051c81016020851061062f575b90849392915b601f830160051c82018110610620575050610271565b6000815585945060010161060a565b5080610604565b91607f169161025d565b015190503880610224565b6010600090815293506000805160206134d683398151915291905b601f19841685106106a8576001945083601f1981161061068f575b505050811b0160105561023a565b015160001960f88460031b161c19169055388080610681565b81810151835560209485019460019093019290910190610666565b60106000529091506000805160206134d6833981519152601f840160051c810160208510610717575b90849392915b601f830160051c8201811061070857505061020d565b600081558594506001016106f2565b50806106ec565b91607f16916101f9565b6040516342bcdf7f60e11b8152600490fd5b0151905038806101a3565b6001600090815293506000805160206134b683398151915291905b601f19841685106107a2576001945083601f19811610610789575b505050811b016001556101b9565b015160001960f88460031b161c1916905538808061077b565b81810151835560209485019460019093019290910190610760565b60016000529091506000805160206134b6833981519152601f840160051c810160208510610811575b90849392915b601f830160051c8201811061080257505061018c565b600081558594506001016107ec565b50806107e6565b91607f1691610178565b905083015138610140565b60008080529250600080516020613496833981519152905b601f1983168410610886576001935082601f1981161061086d575b5050811b01600055610155565b85015160001960f88460031b161c191690553880610860565b85810151825560209384019360019092019101610845565b60008052600080516020613496833981519152601f830160051c8101602084106108e5575b601f830160051c820181106108d9575050610129565b600081556001016108c3565b50806108c3565b90607f1690610117565b600080fd5b6040519190601f01601f191682016001600160401b038111838210176103ad57604052565b919080601f840112156108f65782516001600160401b0381116103ad57602090610952601f8201601f191683016108fb565b928184528282870101116108f65760005b81811061097857508260009394955001015290565b8581018301518482018401528201610963565b51906001600160a01b03821682036108f657565b600d80546001600160a01b039283166001600160a01b0319821681179092559091167f8be0079c531659141344cd1fd0a4f28419497f9722a3daafe3b4186f6b6457e0600080a356fe6080604081815260048036101561001557600080fd5b600092833560e01c90816301ffc9a7146118485750806305aaff31146117e257806306fdde0314611731578063081812fc14611711578063095ea7b3146115a45780631209b1f61461158557806318160ddd1461156657806321846c7614611400578063219a4414146113ab57806323b872dd1461138657806324600fc3146112cf5780632a55205a1461122d5780632b2f0a0c1461120e5780632f745c59146111e557806342842e0e146111b15780634bfbe5df146111925780634f6ccce7146110ff578063543cb81f1461104057806355f804b314610e8f5780635817b00414610d495780635d50483214610d095780635da6a04114610c225780636352211e14610bf1578063642b5f9b14610bc557806367aa23e214610b635780636e7ffd4714610b3c57806370a0823114610b0f578063715018a614610ab25780637514d7cb14610a895780638043c9c014610a6b5780638da5cb5b14610a425780639106d7ba14610a2357806395d89b411461096f578063a1277600146107d3578063a22cb46514610704578063ac67b4d0146106e5578063b88d4fde14610657578063c45a01551461062e578063c63a80ef146105f6578063c87b56dd146104eb578063d547cfb714610410578063d5abeb01146103f1578063e22bda35146103bc578063e2bb3ccf14610338578063e985e9c5146102e65763f2fde38b1461021d57600080fd5b346102e25760203660031901126102e25761023661194a565b9061023f6127b1565b6001600160a01b03918216928315610290575050600d54826001600160601b0360a01b821617600d55167f8be0079c531659141344cd1fd0a4f28419497f9722a3daafe3b4186f6b6457e08380a380f35b906020608492519162461bcd60e51b8352820152602660248201527f4f776e61626c653a206e6577206f776e657220697320746865207a65726f206160448201526564647265737360d01b6064820152fd5b8280fd5b50503461033457806003193601126103345760ff8160209361030661194a565b61030e611965565b6001600160a01b0391821683526005875283832091168252855220549151911615158152f35b5080fd5b505034610334578160031936011261033457601254601354601454600f5460185461039295936001600160a01b039091169290610373611aff565b956103a061037f611bc5565b8751998a9960e08b5260e08b0190611925565b9089820360208b0152611925565b958701526060860152608085015260a084015260c08301520390f35b5050346103345781600319360112610334576103ed906103da611bc5565b9051918291602083526020830190611925565b0390f35b5050346103345781600319360112610334576020906014549051908152f35b8284346104e857806003193601126104e857815191828260175461043381611ac5565b90818452602095600191876001821691826000146104c1575050600114610477575b5050506103ed9291610468910385611a14565b51928284938452830190611925565b919086935060178352600080516020612a388339815191525b8284106104a957505050820101816104686103ed610455565b8054848a018601528895508794909301928101610490565b60ff19168782015293151560051b8601909301935084925061046891506103ed9050610455565b80fd5b5090346102e257602091826003193601126105f25735600081815260026020526040902054610524906001600160a01b03161515611ec2565b8352600a825280832092815180948290805461053f81611ac5565b91828552600191886001821691826000146105cb57505060011461058d575b5050506103ed939291610572910386611a14565b815161057d816119f8565b5251928284938452830190611925565b8552868520879350859291905b8284106105b357505050820101816105726103ed61055e565b8054848b01860152899550889490930192810161059a565b60ff19168782015293151560051b8601909301935084925061057291506103ed905061055e565b8380fd5b5050346103345760203660031901126103345760209181906001600160a01b0361061e61194a565b168152601c845220549051908152f35b50503461033457816003193601126103345760195490516001600160a01b039091168152602090f35b8382346103345760803660031901126103345761067261194a565b9061067b611965565b916044356064359367ffffffffffffffff85116106e157366023860112156106e1576106b66106d9948660246106de98369301359101611a52565b926106c96106c484336124bd565b611d55565b6106d4838383612585565b612972565b61285c565b80f35b8580fd5b5050346103345781600319360112610334576020906016549051908152f35b5090346102e257806003193601126102e25761071e61194a565b90602435918215158093036107cf576001600160a01b03169233841461078d5750338452600560205280842083855260205280842060ff1981541660ff8416179055519081527f17307eab39ab6107e8899845ad3d59bd9653f200f220920489ca2b5937696c3160203392a380f35b6020606492519162461bcd60e51b8352820152601960248201527f4552433732313a20617070726f766520746f2063616c6c6572000000000000006044820152fd5b8480fd5b5090602092836003193601126104e8578235906107ee612009565b600f946107fd83600f54611ccb565b6014541061095f5760139461081484601354611c64565b340361095157601254421015610943576015548015159081610926575b506109185750338252601c815283822061084c848254611ccb565b905561085783611f4c565b94825b848110610873576001600e558551806103ed8982611a89565b60019081895401808a558354818752601b86528887205580610895838b611f7e565b526108a0813361205f565b6108e5856108df6108b084612205565b8b519283916108d06108c3838501611cd8565b9182815194859201611902565b0103601f198101835282611a14565b826122ce565b83549088519182527fdbaaf4c87ce30816c961a81d110622a3227ede77953d4383d514ff88ab2e0fd3863393a30161085a565b845163c0e54d7360e01b8152fd5b9050338452601c835261093c8587862054611ccb565b1138610831565b845163437eb95360e01b8152fd5b845163569e8c1160e01b8152fd5b505050516352df9fe560e01b8152fd5b8284346104e857806003193601126104e85781519182826001936001549461099686611ac5565b91828552602096876001821691826000146104c15750506001146109c7575050506103ed9291610468910385611a14565b9190869350600183527fb10e2d527612073b26eecdfd717e6a320cf44b4afac2b0732d9fcbe2b7fa0cf65b828410610a0b57505050820101816104686103ed610455565b8054848a0186015288955087949093019281016109f2565b505034610334578160031936011261033457602090600f549051908152f35b505034610334578160031936011261033457600d5490516001600160a01b039091168152602090f35b5050346103345781600319360112610334576103ed906103da611aff565b50503461033457816003193601126103345760185490516001600160a01b039091168152602090f35b83346104e857806003193601126104e857610acb6127b1565b600d80546001600160a01b0319811690915581906001600160a01b03167f8be0079c531659141344cd1fd0a4f28419497f9722a3daafe3b4186f6b6457e08280a380f35b50503461033457602036600319011261033457602090610b35610b3061194a565b611f92565b9051908152f35b50346102e25760203660031901126102e2576020928291358152601b845220549051908152f35b8284346104e85760203660031901126104e857610b7e61194a565b91610b8883611f92565b610b9181611f4c565b925b818110610ba7578251806103ed8682611a89565b80610bb460019287611de7565b610bbe8287611f7e565b5201610b93565b50346102e25760203660031901126102e2578160209360ff92358152601a855220541690519015158152f35b5091346104e85760203660031901126104e85750610c1160209235611f0e565b90516001600160a01b039091168152f35b50346102e25760203660031901126102e2576018548135916001600160a01b0391821633141580610cfb575b610ced576000838152600260205260409020546001600160a01b031615610cdf57828552601a60205260ff8486205416610cd1575060207f32925aefa541c29eaf0d325823fe8ab33af9907c54c122bb705b970297221c0091838652601a8252848620600160ff19825416179055610cc584611f0e565b9451944286521693a380f35b8351630869773360e41b8152fd5b8351630ccf9c7760e31b8152fd5b835163327d424160e01b8152fd5b5081600d5416331415610c4e565b5091903461033457816003193601126103345760145491600f548303928311610d36576020838351908152f35b634e487b7160e01b815260118452602490fd5b50346102e25760209160206003193601126105f25767ffffffffffffffff9180358381116106e157366023820112156106e157808201359384116106e15760246005913660248760051b83010111610e8b576018546001600160a01b039390841633141580610e7d575b610e6d57885b878110610dc4578980f35b80821b83018401356000818152600260205260409020546001600160a01b031615610e5d57808b52601a808b5260ff898d205416610e4d579060019291818d528b52888c208360ff1982541617905586610e1d82611f0e565b16907f32925aefa541c29eaf0d325823fe8ab33af9907c54c122bb705b970297221c008c8b51428152a301610db9565b8851630869773360e41b81528890fd5b8751630ccf9c7760e31b81528790fd5b855163327d424160e01b81528590fd5b5083600d5416331415610db3565b8780fd5b50829034610334576020806003193601126102e25767ffffffffffffffff9180358381116107cf57366023820112156107cf57610ed59036906024818501359101611a52565b601854909590336001600160a01b0391821614159081611031575b50611024575084519283116110115750610f0b601754611ac5565b601f8111610fc0575b50602090601f8311600114610f5157508293829392610f46575b50508160011b916000199060031b1c19161760175580f35b015190508380610f2e565b60178452601f19831694600080516020612a38833981519152929185905b878210610fa8575050836001959610610f8f575b505050811b0160175580f35b015160001960f88460031b161c19169055838080610f83565b80600185968294968601518155019501930190610f6f565b60178452600080516020612a38833981519152601f840160051c81019160208510611007575b601f0160051c01905b818110610ffc5750610f14565b848155600101610fef565b9091508190610fe6565b634e487b7160e01b845260419052602483fd5b5163327d424160e01b8152fd5b9050600d541633141587610ef0565b509190346103345760203660031901126103345782356000818152600260205260409020549092906001600160a01b0316156110ef5761107f83611f0e565b928152601a60205260ff828220541615928391826110b9575b50825193151584526001600160a01b03166020840152159082015260609150f35b909350601254906201518082018092116110dc5750606094504211159238611098565b634e487b7160e01b815260118652602490fd5b8151630ccf9c7760e31b81528490fd5b5082346104e85760203660031901126104e8575080359060085482101561113a5760208361112c84611e75565b91905490519160031b1c8152f35b608490602084519162461bcd60e51b8352820152602c60248201527f455243373231456e756d657261626c653a20676c6f62616c20696e646578206f60448201526b7574206f6620626f756e647360a01b6064820152fd5b5050346103345781600319360112610334576020906012549051908152f35b505034610334576106d96106de916111c836611991565b919251926111d5846119f8565b8684526106c96106c484336124bd565b505034610334578060031936011261033457602090610b3561120561194a565b60243590611de7565b5050346103345781600319360112610334576020906015549051908152f35b8284346104e8578161123e3661197b565b92908152600c60205220825190611254826119c6565b546001600160a01b0380821680845260a09290921c6020840152919290156112a3575b611292612710916001600160601b0360208601511690611c64565b049151169082519182526020820152f35b915061271061129284516112b6816119c6565b600b54848116825260a01c602082015293915050611277565b50346102e257826003193601126102e2576112e8612009565b6018546001600160a01b03908116913383141580611378575b610ced5747928315611369578580808681945af161131d611db7565b501561135b57507feaff4b37086828766ad3268786972c0cd24259d4c87a80f9d3963a3c3d999b0d91602091601854169351908152a26001600e5580f35b83516312171d8360e31b8152fd5b5083516367e3990d60e01b8152fd5b5081600d5416331415611301565b83346104e8576106de61139836611991565b916113a66106c484336124bd565b612585565b50346102e2576113ba3661197b565b6000828152600260205260409020549092906001600160a01b031615610cdf57506113f6838560649360209752601b8752205460165490611c64565b0410159051908152f35b5091908160031936011261033457611416612009565b600f54601454111561155757601354340361154857601254421015611539576015548015159081611506575b506114f757338252602092601c8452818320805491600183018093116114e45750556001600f54019182600f55828152601b84528134912055611485823361205f565b6114ae836114a861149585612205565b84519283916108d06108c3838501611cd8565b836122ce565b8051348152827fdbaaf4c87ce30816c961a81d110622a3227ede77953d4383d514ff88ab2e0fd3853393a36001600e5551908152f35b634e487b7160e01b855260119052602484fd5b5163c0e54d7360e01b81529050fd5b9050338352601c6020528183205460018101809111611526571138611442565b634e487b7160e01b845260118552602484fd5b5163437eb95360e01b81529050fd5b5163569e8c1160e01b81529050fd5b516352df9fe560e01b81529050fd5b5050346103345781600319360112610334576020906008549051908152f35b5050346103345781600319360112610334576020906013549051908152f35b50346102e257816003193601126102e2576115bd61194a565b6024359290916001600160a01b03919082806115d887611f0e565b169416938085146116c4578033149081156116a5575b501561163d57848652602052842080546001600160a01b0319168317905561161583611f0e565b167f8c5be1e5ebec7d5bd14f71427d1e84f3dd0314c0f7b2291e5b200ac8c7c3b9258480a480f35b6020608492519162461bcd60e51b8352820152603d60248201527f4552433732313a20617070726f76652063616c6c6572206973206e6f7420746f60448201527f6b656e206f776e6572206f7220617070726f76656420666f7220616c6c0000006064820152fd5b90508652600560205281862033875260205260ff8287205416386115ee565b506020608492519162461bcd60e51b8352820152602160248201527f4552433732313a20617070726f76616c20746f2063757272656e74206f776e656044820152603960f91b6064820152fd5b5091346104e85760203660031901126104e85750610c1160209235611c8d565b8284346104e857806003193601126104e8578151918282835461175381611ac5565b90818452602095600191876001821691826000146104c1575050600114611787575050506103ed9291610468910385611a14565b91908693508280527f290decd9548b62a8d60345a988386fc84ba6bc95484008f6362f93160ef3e5635b8284106117ca57505050820101816104686103ed610455565b8054848a0186015288955087949093019281016117b1565b50346102e25760203660031901126102e25780356000818152600260205260409020549091906001600160a01b03161561183a5750611832828460649360209652601b8652205460165490611c64565b049051908152f35b8251630ccf9c7760e31b8152fd5b925050346102e25760203660031901126102e2573563ffffffff60e01b81168091036102e2576020925063152a902d60e11b811490811561188b575b5015158152f35b632483248360e11b8114915081156118a5575b5038611884565b63780e9d6360e01b8114915081156118bf575b503861189e565b6380ac58cd60e01b8114915081156118f1575b81156118e0575b50386118b8565b6301ffc9a760e01b149050386118d9565b635b5e139f60e01b811491506118d2565b60005b8381106119155750506000910152565b8181015183820152602001611905565b9060209161193e81518092818552858086019101611902565b601f01601f1916010190565b600435906001600160a01b038216820361196057565b600080fd5b602435906001600160a01b038216820361196057565b6040906003190112611960576004359060243590565b6060906003190112611960576001600160a01b0390600435828116810361196057916024359081168103611960579060443590565b6040810190811067ffffffffffffffff8211176119e257604052565b634e487b7160e01b600052604160045260246000fd5b6020810190811067ffffffffffffffff8211176119e257604052565b90601f8019910116810190811067ffffffffffffffff8211176119e257604052565b67ffffffffffffffff81116119e257601f01601f191660200190565b929192611a5e82611a36565b91611a6c6040519384611a14565b829481845281830111611960578281602093846000960137010152565b602090602060408183019282815285518094520193019160005b828110611ab1575050505090565b835185529381019392810192600101611aa3565b90600182811c92168015611af5575b6020831014611adf57565b634e487b7160e01b600052602260045260246000fd5b91607f1691611ad4565b6040519060008260105491611b1383611ac5565b80835292602090600190818116908115611ba15750600114611b40575b5050611b3e92500383611a14565b565b91509260106000527f1b6847dc741a1b0cd08d278845f9d819d87b734759afb55fe2de5cb82a9ae672936000925b828410611b895750611b3e9450505081016020013880611b30565b85548885018301529485019487945092810192611b6e565b91505060209250611b3e94915060ff191682840152151560051b8201013880611b30565b6040519060008260115491611bd983611ac5565b80835292602090600190818116908115611ba15750600114611c03575050611b3e92500383611a14565b91509260116000527f31ecc21a745e3968a04e9570e4425bc18fa8019c68028196b546d1669c200c68936000925b828410611c4c5750611b3e9450505081016020013880611b30565b85548885018301529485019487945092810192611c31565b81810292918115918404141715611c7757565b634e487b7160e01b600052601160045260246000fd5b600081815260026020526040902054611cb0906001600160a01b03161515611ec2565b6000908152600460205260409020546001600160a01b031690565b91908201809211611c7757565b60175460009291611ce882611ac5565b91600190818116908115611d425750600114611d0357505050565b90919293506017600052600080516020612a38833981519152906000915b848310611d2f575050500190565b8181602092548587015201920191611d21565b60ff191683525050811515909102019150565b15611d5c57565b60405162461bcd60e51b815260206004820152602d60248201527f4552433732313a2063616c6c6572206973206e6f7420746f6b656e206f776e6560448201526c1c881bdc88185c1c1c9bdd9959609a1b6064820152608490fd5b3d15611de2573d90611dc882611a36565b91611dd66040519384611a14565b82523d6000602084013e565b606090565b611df081611f92565b821015611e1c5760018060a01b0316600052600660205260406000209060005260205260406000205490565b60405162461bcd60e51b815260206004820152602b60248201527f455243373231456e756d657261626c653a206f776e657220696e646578206f7560448201526a74206f6620626f756e647360a81b6064820152608490fd5b600854811015611eac5760086000527ff3f7a9fe364faab93b216da50a3214154f22a0a2b415b23a84c8169e8b636ee30190600090565b634e487b7160e01b600052603260045260246000fd5b15611ec957565b60405162461bcd60e51b815260206004820152601860248201527f4552433732313a20696e76616c696420746f6b656e20494400000000000000006044820152606490fd5b6000908152600260205260409020546001600160a01b0316611f31811515611ec2565b90565b67ffffffffffffffff81116119e25760051b60200190565b90611f5682611f34565b611f636040519182611a14565b8281528092611f74601f1991611f34565b0190602036910137565b8051821015611eac5760209160051b010190565b6001600160a01b03168015611fb257600052600360205260406000205490565b60405162461bcd60e51b815260206004820152602960248201527f4552433732313a2061646472657373207a65726f206973206e6f7420612076616044820152683634b21037bbb732b960b91b6064820152608490fd5b6002600e541461201a576002600e55565b60405162461bcd60e51b815260206004820152601f60248201527f5265656e7472616e637947756172643a207265656e7472616e742063616c6c006044820152606490fd5b9060409182519261206f846119f8565b60008085526001600160a01b038316918215806121c2576000868152600260205260409020546120ab906001600160a01b031615155b156129eb565b60085490868452602091600983528084862055600160401b8110156121ae57926002889693611b3e9a989693612108896120ef8960016106d99f9b01600855611e75565b90919082549060031b91821b91600019901b1916179055565b15612181575b600086815260026020526040902054612131906001600160a01b031615156120a5565b848452600381528284208054600101905585845252812080546001600160a01b031916831790557fddf252ad1be2c89b69c2b068fc378daa952ba7f163c4a11628f55a4df523b3ef8180a4612880565b61218a87611f92565b8585526006825283852081865282528684862055868552600782528385205561210e565b634e487b7160e01b85526041600452602485fd5b6064825162461bcd60e51b815260206004820152602060248201527f4552433732313a206d696e7420746f20746865207a65726f20616464726573736044820152fd5b80156122b057600081805b612298575061221e81611a36565b9061222c6040519283611a14565b808252601f1961223b82611a36565b013660208401375b80928015612291576000198201918211611c77578193600a926030908484068201809211611c775785511115611eac5760f81b6001600160f81b03191660001a908401601f01530491612243565b5050905090565b906000198114611c77576001600a9101910480612210565b506040516122bd816119c6565b60018152600360fc1b602082015290565b6000818152600260205260409020549192916001600160a01b03161561246157600090808252602091600a8352604081209085519067ffffffffffffffff821161244d5761231c8354611ac5565b601f811161240a575b508490601f831160011461238657907ff8e1a15aba9398e019f0b49df1a4fde98ee17ae345cb5f6b5e2c27f5033e8ce796978361237b575b50508160011b916000199060031b1c19161790555b604051908152a1565b01519050388061235d565b9196601f198816848452868420935b8181106123f357509160019391897ff8e1a15aba9398e019f0b49df1a4fde98ee17ae345cb5f6b5e2c27f5033e8ce7999a94106123da575b505050811b019055612372565b015160001960f88460031b161c191690553880806123cd565b929387600181928786015181550195019301612395565b838252858220601f840160051c810191878510612443575b601f0160051c01905b8181106124385750612325565b82815560010161242b565b9091508190612422565b634e487b7160e01b81526041600452602490fd5b60405162461bcd60e51b815260206004820152602e60248201527f45524337323155524953746f726167653a2055524920736574206f66206e6f6e60448201526d32bc34b9ba32b73a103a37b5b2b760911b6064820152608490fd5b906001600160a01b0380806124d184611f0e565b16931691838314938415612504575b5083156124ee575b50505090565b6124fa91929350611c8d565b16143880806124e8565b909350600052600560205260406000208260005260205260ff6040600020541692386124e0565b1561253257565b60405162461bcd60e51b815260206004820152602560248201527f4552433732313a207472616e736665722066726f6d20696e636f72726563742060448201526437bbb732b960d91b6064820152608490fd5b6125a99161259284611f0e565b6001600160a01b039384841693918516841461252b565b838216938415612760578391826126bd575090506008549085600052600960205281604060002055600160401b8210156119e25761260f926125f6876120ef856001899701600855611e75565b82860361268a575b5061260886611f0e565b161461252b565b7fddf252ad1be2c89b69c2b068fc378daa952ba7f163c4a11628f55a4df523b3ef60008481526004602052604081206001600160601b0360a01b9081815416905583825260036020526040822060001981540190558482526040822060018154019055858252600260205284604083209182541617905580a4565b61269390611f92565b604060008781526006602052818120838252602052888282205588815260076020522055386125fe565b8583036126cf575b5061260f926125f6565b6126da919250611f92565b600019810191908211611c775761260f9284926000908882526020906007825260409182842054828103612729575b508a845283838120558684526006815282842091845252812055926126c5565b8785526006825283852083865282528385205488865260068352848620828752835280858720558552600782528385205538612709565b60405162461bcd60e51b8152602060048201526024808201527f4552433732313a207472616e7366657220746f20746865207a65726f206164646044820152637265737360e01b6064820152608490fd5b600d546001600160a01b031633036127c557565b606460405162461bcd60e51b815260206004820152602060248201527f4f776e61626c653a2063616c6c6572206973206e6f7420746865206f776e65726044820152fd5b60809060208152603260208201527f4552433732313a207472616e7366657220746f206e6f6e20455243373231526560408201527131b2b4bb32b91034b6b83632b6b2b73a32b960711b60608201520190565b1561286357565b60405162461bcd60e51b81528061287c60048201612809565b0390fd5b909190803b1561296a576020604051809281630a85bd0160e11b96878252336004830152816128c960009889938460248501526044840152608060648401526084830190611925565b03926001600160a01b03165af190829082612921575b5050612913576128ed611db7565b8051908161290e5760405162461bcd60e51b81528061287c60048201612809565b602001fd5b6001600160e01b0319161490565b909192506020813d602011612962575b8161293e60209383611a14565b810103126103345751906001600160e01b0319821682036104e857509038806128df565b3d9150612931565b505050600190565b9290803b156129e2576129c29160209160018060a01b039460405180958194829389630a85bd0160e11b9b8c86523360048701521660248501526044840152608060648401526084830190611925565b03916000968791165af190829082612921575050612913576128ed611db7565b50505050600190565b156129f257565b60405162461bcd60e51b815260206004820152601c60248201527f4552433732313a20746f6b656e20616c7265616479206d696e746564000000006044820152606490fdfec624b66cc0138b8fabc209247f72d758e1cf3343756d543badbf24212bed8c15a26469706673582212208f37e99e42efa536fddd6ffaae70a6806f166d637c8ced84afdd63990189a8b164736f6c6343000819003331ecc21a745e3968a04e9570e4425bc18fa8019c68028196b546d1669c200c68290decd9548b62a8d60345a988386fc84ba6bc95484008f6362f93160ef3e563b10e2d527612073b26eecdfd717e6a320cf44b4afac2b0732d9fcbe2b7fa0cf61b6847dc741a1b0cd08d278845f9d819d87b734759afb55fe2de5cb82a9ae672a26469706673582212208ec572406f02ee475e79cd1bf9e6f382027de0cec1aec79544e574be5f74a52964736f6c63430008190033",
  "linkReferences": {},
  "deployedLinkReferences": {}
}