{
  "_format": "hh-sol-artifact-1",
  "contractName": "ERC1155Holder",
  "sourceName": "contracts/lib/openzeppelin-contracts.git/contracts/token/ERC1155/utils/ERC1155Holder.sol",
  "abi": [
    {
      "inputs": [
        {
          "internalType": "address",
          "name": "",
          "type": "address"
        },
        {
          "internalType": "address",
          "name": "",
          "type": "address"
        },
        {
          "internalType": "uint256[]",
          "name": "",
          "type": "uint256[]"
        },
        {
          "internalType": "uint256[]",
          "name": "",
          "type": "uint256[]"
        },
        {
          "internalType": "bytes",
          "name": "",
          "type": "bytes"
        }
      ],
      "name": "onERC1155BatchReceived",
      "outputs": [
        {
          "internalType": "bytes4",
          "name": "",
          "type": "bytes4"
        }
      ],
      "stateMutability": "nonpayable",
      "type": "function"
    },
    {
      "inputs": [
        {
          "internalType": "address",
          "name": "",
          "type": "address"
        },
        {
          "internalType": "address",
          "name": "",
          "type": "address"
        },
        {
          "internalType": "uint256",
          "name": "",
          "type": "uint256"
        },
        {
          "internalType": "uint256",
          "name": "",
          "type": "uint256"
        },
        {
          "internalType": "bytes",
          "name": "",
          "type": "bytes"
        }
      ],
      "name": "onERC1155Received",
      "outputs": [
        {
          "internalType": "bytes4",
          "name": "",
          "type": "bytes4"
        }
      ],
      "stateMutability": "nonpayable",
      "type": "function"
    },
    {
      "inputs": [
        {
          "internalType": "bytes4",
          "name": "interfaceId",
          "type": "bytes4"
        }
      ],
      "name": "supportsInterface",
      "outputs": [
        {
          "internalType": "bool",
          "name": "",
          "type": "bool"
        }
      ],
      "stateMutability": "view",
      "type": "function"
    }
  ],
  "bytecode": "0x608080604052346015576102d8908161001b8239f35b600080fdfe60808060405260048036101561001457600080fd5b600091823560e01c90816301ffc9a71461012b57508063bc197c81146100a05763f23a6e611461004357600080fd5b3461009c5760a036600319011261009c5761005c61017f565b5061006561019a565b5060843567ffffffffffffffff811161009857610085925036910161024f565b5060405163f23a6e6160e01b8152602090f35b8280fd5b5080fd5b503461009c5760a036600319011261009c576100ba61017f565b506100c361019a565b5067ffffffffffffffff604435818111610127576100e490369084016101ec565b50606435818111610127576100fc90369084016101ec565b5060843590811161009857610114925036910161024f565b5060405163bc197c8160e01b8152602090f35b8380fd5b91905034610098576020366003190112610098573563ffffffff60e01b81168091036100985760209250630271189760e51b811490811561016e575b5015158152f35b6301ffc9a760e01b14905038610167565b600435906001600160a01b038216820361019557565b600080fd5b602435906001600160a01b038216820361019557565b6040519190601f01601f1916820167ffffffffffffffff8111838210176101d657604052565b634e487b7160e01b600052604160045260246000fd5b81601f820112156101955780359160209167ffffffffffffffff84116101d6578360051b90838061021e8185016101b0565b809781520192820101928311610195578301905b828210610240575050505090565b81358152908301908301610232565b81601f820112156101955780359067ffffffffffffffff82116101d65761027f601f8301601f19166020016101b0565b92828452602083830101116101955781600092602080930183860137830101529056fea26469706673582212208eb0892ec2ad84a4bf84bc9f47926e73dd2ddd27465ad715cecb8d2a9a31afeb64736f6c63430008190033",
  "linkReferences": {},
  "deployedLinkReferences": {}
}