{
  "_format": "hh-sol-artifact-1",
  "contractName": "TicketMarketplace",
  "sourceName": "contracts/src/TicketMarketplace.sol",
  "abi": [
    {
      "inputs": [
        {
          "internalType": "address",
          "name": "registry",
          "type": "address"
        }
      ],
      "stateMutability": "nonpayable",
      "type": "constructor"
    },
    {
      "inputs": [],
      "name": "CannotBuyOwnListing",
      "type": "error"
    },
    {
      "inputs": [],
      "name": "ContractIsDeprecated",
      "type": "error"
    },
    {
      "inputs": [],
      "name": "ContractMustSupportERC2981",
      "type": "error"
    },
    {
      "inputs": [],
      "name": "CurrencyNotSupported",
      "type": "error"
    },
    {
      "inputs": [],
      "name": "IncorrectPayment",
      "type": "error"
    },
    {
      "inputs": [],
      "name": "ListingDoesNotExist",
      "type": "error"
    },
    {
      "inputs": [],
      "name": "ListingNotActive",
      "type": "error"
    },
    {
      "inputs": [],
      "name": "NFTContractNotApproved",
      "type": "error"
    },
    {
      "inputs": [],
      "name": "NotEnoughBalance",
      "type": "error"
    },
    {
      "inputs": [],
      "name": "NothingToClaim",
      "type": "error"
    },
    {
      "inputs": [],
      "name": "OnlySellerOrOwner",
      "type": "error"
    },
    {
      "inputs": [],
      "name": "PriceExceedsCap",
      "type": "error"
    },
    {
      "inputs": [],
      "name": "TicketAlreadyUsed",
      "type": "error"
    },
    {
      "inputs": [],
      "name": "TransferFailed",
      "type": "error"
    },
    {
      "inputs": [],
      "name": "ZeroAddressNotAllowed",
      "type": "error"
    },
    {
      "anonymous": false,
      "inputs": [
        {
          "indexed": true,
          "internalType": "address",
          "name": "user",
          "type": "address"
        },
        {
          "indexed": true,
          "internalType": "address",
          "name": "currency",
          "type": "address"
        },
        {
          "indexed": false,
          "internalType": "uint256",
          "name": "amount",
          "type": "uint256"
        }
      ],
      "name": "FundsClaimed",
      "type": "event"
    },
    {
      "anonymous": false,
      "inputs": [
        {
          "indexed": true,
          "internalType": "uint256",
          "name": "listingId",
          "type": "uint256"
        }
      ],
      "name": "ListingCancelled",
      "type": "event"
    },
    {
      "anonymous": false,
      "inputs": [
        {
          "indexed": true,
          "internalType": "uint256",
          "name": "listingId",
          "type": "uint256"
        },
        {
          "indexed": true,
          "internalType": "address",
          "name": "nftAddress",
          "type": "address"
        },
        {
          "indexed": true,
          "internalType": "uint256",
          "name": "tokenId",
          "type": "uint256"
        },
        {
          "indexed": false,
          "internalType": "address",
          "name": "seller",
          "type": "address"
        },
        {
          "indexed": false,
          "internalType": "uint256",
          "name": "price",
          "type": "uint256"
        }
      ],
      "name": "ListingCreated",
      "type": "event"
    },
    {
      "anonymous": false,
      "inputs": [
        {
          "indexed": true,
          "internalType": "address",
          "name": "previousOwner",
          "type": "address"
        },
        {
          "indexed": true,
          "internalType": "address",
          "name": "newOwner",
          "type": "address"
        }
      ],
      "name": "OwnershipTransferred",
      "type": "event"
    },
    {
      "anonymous": false,
      "inputs": [
        {
          "indexed": true,
          "internalType": "uint256",
          "name": "listingId",
          "type": "uint256"
        },
        {
          "indexed": true,
          "internalType": "address",
          "name": "buyer",
          "type": "address"
        },
        {
          "indexed": true,
          "internalType": "address",
          "name": "seller",
          "type": "address"
        },
        {
          "indexed": false,
          "internalType": "uint256",
          "name": "price",
          "type": "uint256"
        }
      ],
      "name": "TicketSold",
      "type": "event"
    },
    {
      "inputs": [
        {
          "internalType": "address",
          "name": "",
          "type": "address"
        },
        {
          "internalType": "uint256",
          "name": "",
          "type": "uint256"
        }
      ],
      "name": "activeListingByToken",
      "outputs": [
        {
          "internalType": "uint256",
          "name": "",
          "type": "uint256"
        }
      ],
      "stateMutability": "view",
      "type": "function"
    },
    {
      "inputs": [
        {
          "internalType": "uint256",
          "name": "listingId",
          "type": "uint256"
        },
        {
          "internalType": "uint256",
          "name": "amountFromBalance",
          "type": "uint256"
        }
      ],
      "name": "buyTicket",
      "outputs": [],
      "stateMutability": "payable",
      "type": "function"
    },
    {
      "inputs": [
        {
          "internalType": "uint256",
          "name": "listingId",
          "type": "uint256"
        }
      ],
      "name": "cancelListing",
      "outputs": [],
      "stateMutability": "nonpayable",
      "type": "function"
    },
    {
      "inputs": [
        {
          "internalType": "address",
          "name": "nftAddress",
          "type": "address"
        },
        {
          "internalType": "uint256",
          "name": "tokenId",
          "type": "uint256"
        },
        {
          "internalType": "uint256",
          "name": "price",
          "type": "uint256"
        }
      ],
      "name": "checkPriceCap",
      "outputs": [
        {
          "internalType": "bool",
          "name": "valid",
          "type": "bool"
        },
        {
          "internalType": "uint256",
          "name": "maxPrice",
          "type": "uint256"
        }
      ],
      "stateMutability": "view",
      "type": "function"
    },
    {
      "inputs": [
        {
          "internalType": "address",
          "name": "currency",
          "type": "address"
        }
      ],
      "name": "claimFunds",
      "outputs": [],
      "stateMutability": "nonpayable",
      "type": "function"
    },
    {
      "inputs": [
        {
          "internalType": "address",
          "name": "",
          "type": "address"
        },
        {
          "internalType": "address",
          "name": "",
          "type": "address"
        }
      ],
      "name": "claimableFunds",
      "outputs": [
        {
          "internalType": "uint256",
          "name": "",
          "type": "uint256"
        }
      ],
      "stateMutability": "view",
      "type": "function"
    },
    {
      "inputs": [
        {
          "internalType": "uint256",
          "name": "offset",
          "type": "uint256"
        },
        {
          "internalType": "uint256",
          "name": "limit",
          "type": "uint256"
        }
      ],
      "name": "getActiveListings",
      "outputs": [
        {
          "components": [
            {
              "internalType": "uint256",
              "name": "id",
              "type": "uint256"
            },
            {
              "internalType": "uint256",
              "name": "tokenId",
              "type": "uint256"
            },
            {
              "internalType": "address",
              "name": "nftAddress",
              "type": "address"
            },
            {
              "internalType": "address",
              "name": "seller",
              "type": "address"
            },
            {
              "internalType": "address",
              "name": "currency",
              "type": "address"
            },
            {
              "internalType": "uint256",
              "name": "price",
              "type": "uint256"
            },
            {
              "internalType": "uint256",
              "name": "createdAt",
              "type": "uint256"
            },
            {
              "internalType": "bool",
              "name": "active",
              "type": "bool"
            }
          ],
          "internalType": "struct TicketMarketplace.Listing[]",
          "name": "activeListings",
          "type": "tuple[]"
        },
        {
          "internalType": "uint256",
          "name": "total",
          "type": "uint256"
        }
      ],
      "stateMutability": "view",
      "type": "function"
    },
    {
      "inputs": [
        {
          "internalType": "uint256",
          "name": "listingId",
          "type": "uint256"
        }
      ],
      "name": "getListing",
      "outputs": [
        {
          "components": [
            {
              "internalType": "uint256",
              "name": "id",
              "type": "uint256"
            },
            {
              "internalType": "uint256",
              "name": "tokenId",
              "type": "uint256"
            },
            {
              "internalType": "address",
              "name": "nftAddress",
              "type": "address"
            },
            {
              "internalType": "address",
              "name": "seller",
              "type": "address"
            },
            {
              "internalType": "address",
              "name": "currency",
              "type": "address"
            },
            {
              "internalType": "uint256",
              "name": "price",
              "type": "uint256"
            },
            {
              "internalType": "uint256",
              "name": "createdAt",
              "type": "uint256"
            },
            {
              "internalType": "bool",
              "name": "active",
              "type": "bool"
            }
          ],
          "internalType": "struct TicketMarketplace.Listing",
          "name": "",
          "type": "tuple"
        }
      ],
      "stateMutability": "view",
      "type": "function"
    },
    {
      "inputs": [
        {
          "internalType": "address",
          "name": "nftAddress",
          "type": "address"
        }
      ],
      "name": "getListingsByNFT",
      "outputs": [
        {
          "components": [
            {
              "internalType": "uint256",
              "name": "id",
              "type": "uint256"
            },
            {
              "internalType": "uint256",
              "name": "tokenId",
              "type": "uint256"
            },
            {
              "internalType": "address",
              "name": "nftAddress",
              "type": "address"
            },
            {
              "internalType": "address",
              "name": "seller",
              "type": "address"
            },
            {
              "internalType": "address",
              "name": "currency",
              "type": "address"
            },
            {
              "internalType": "uint256",
              "name": "price",
              "type": "uint256"
            },
            {
              "internalType": "uint256",
              "name": "createdAt",
              "type": "uint256"
            },
            {
              "internalType": "bool",
              "name": "active",
              "type": "bool"
            }
          ],
          "internalType": "struct TicketMarketplace.Listing[]",
          "name": "nftListings",
          "type": "tuple[]"
        }
      ],
      "stateMutability": "view",
      "type": "function"
    },
    {
      "inputs": [
        {
          "internalType": "address",
          "name": "seller",
          "type": "address"
        }
      ],
      "name": "getListingsBySeller",
      "outputs": [
        {
          "components": [
            {
              "internalType": "uint256",
              "name": "id",
              "type": "uint256"
            },
            {
              "internalType": "uint256",
              "name": "tokenId",
              "type": "uint256"
            },
            {
              "internalType": "address",
              "name": "nftAddress",
              "type": "address"
            },
            {
              "internalType": "address",
              "name": "seller",
              "type": "address"
            },
            {
              "internalType": "address",
              "name": "currency",
              "type": "address"
            },
            {
              "internalType": "uint256",
              "name": "price",
              "type": "uint256"
            },
            {
              "internalType": "uint256",
              "name": "createdAt",
              "type": "uint256"
            },
            {
              "internalType": "bool",
              "name": "active",
              "type": "bool"
            }
          ],
          "internalType": "struct TicketMarketplace.Listing[]",
          "name": "sellerListings",
          "type": "tuple[]"
        }
      ],
      "stateMutability": "view",
      "type": "function"
    },
    {
      "inputs": [],
      "name": "getRegistry",
      "outputs": [
        {
          "internalType": "address",
          "name": "",
          "type": "address"
        }
      ],
      "stateMutability": "view",
      "type": "function"
    },
    {
      "inputs": [
        {
          "internalType": "address",
          "name": "nftAddress",
          "type": "address"
        },
        {
          "internalType": "uint256",
          "name": "tokenId",
          "type": "uint256"
        },
        {
          "internalType": "uint256",
          "name": "price",
          "type": "uint256"
        },
        {
          "internalType": "address",
          "name": "currency",
          "type": "address"
        }
      ],
      "name": "listTicket",
      "outputs": [
        {
          "internalType": "uint256",
          "name": "listingId",
          "type": "uint256"
        }
      ],
      "stateMutability": "nonpayable",
      "type": "function"
    },
    {
      "inputs": [],
      "name": "listingIdCounter",
      "outputs": [
        {
          "internalType": "uint256",
          "name": "",
          "type": "uint256"
        }
      ],
      "stateMutability": "view",
      "type": "function"
    },
    {
      "inputs": [
        {
          "internalType": "uint256",
          "name": "",
          "type": "uint256"
        }
      ],
      "name": "listings",
      "outputs": [
        {
          "internalType": "uint256",
          "name": "id",
          "type": "uint256"
        },
        {
          "internalType": "uint256",
          "name": "tokenId",
          "type": "uint256"
        },
        {
          "internalType": "address",
          "name": "nftAddress",
          "type": "address"
        },
        {
          "internalType": "address",
          "name": "seller",
          "type": "address"
        },
        {
          "internalType": "address",
          "name": "currency",
          "type": "address"
        },
        {
          "internalType": "uint256",
          "name": "price",
          "type": "uint256"
        },
        {
          "internalType": "uint256",
          "name": "createdAt",
          "type": "uint256"
        },
        {
          "internalType": "bool",
          "name": "active",
          "type": "bool"
        }
      ],
      "stateMutability": "view",
      "type": "function"
    },
    {
      "inputs": [
        {
          "internalType": "address",
          "name": "",
          "type": "address"
        },
        {
          "internalType": "address",
          "name": "",
          "type": "address"
        },
        {
          "internalType": "uint256",
          "name": "",
          "type": "uint256"
        },
        {
          "internalType": "bytes",
          "name": "",
          "type": "bytes"
        }
      ],
      "name": "onERC721Received",
      "outputs": [
        {
          "internalType": "bytes4",
          "name": "",
          "type": "bytes4"
        }
      ],
      "stateMutability": "nonpayable",
      "type": "function"
    },
    {
      "inputs": [],
      "name": "owner",
      "outputs": [
        {
          "internalType": "address",
          "name": "",
          "type": "address"
        }
      ],
      "stateMutability": "view",
      "type": "function"
    },
    {
      "inputs": [],
      "name": "renounceOwnership",
      "outputs": [],
      "stateMutability": "nonpayable",
      "type": "function"
    },
    {
      "inputs": [
        {
          "internalType": "address",
          "name": "newOwner",
          "type": "address"
        }
      ],
      "name": "transferOwnership",
      "outputs": [],
      "stateMutability": "nonpayable",
      "type": "function"
    }
  ],
  "bytecode": "0x60a0346100d357601f611d2b38819003918201601f19168301916001600160401b038311848410176100d8578084926020946040528339810103126100d357516001600160a01b03808216918290036100d3576000543360018060a01b0319821617600055604051913391167f8be0079c531659141344cd1fd0a4f28419497f9722a3daafe3b4186f6b6457e0600080a36001805581156100c45750608052604051611c3c90816100ef82396080518181816102d901528181610cb10152610f230152f35b6342bcdf7f60e11b8152600490fd5b600080fd5b634e487b7160e01b600052604160045260246000fdfe6040608081526004908136101561001557600080fd5b60009160e08335811c908163107a274a146113f1578163150b7a0214611367578163231701e914611347578163298ec20814610ef3578163305a67a814610d87578163373d5eb314610ce05781635ab1bd5314610c9b578163693d0df214610b59578163715018a614610aff5781638da5cb5b14610ad6578163975101cb146109545781639daf65cb14610912578163c128b231146108da578163d8cba25114610745578163da898da41461028f578163de74e57b1461020557508063f2fde38b146101395763f56bdc23146100ea57600080fd5b3461013557816003193601126101355760209282610106611517565b9161010f61152d565b6001600160a01b0393841682529386522091166000908152908352819020549051908152f35b8280fd5b503461013557602036600319011261013557610153611517565b9061015c6119e2565b6001600160a01b039182169283156101b3575050600054826bffffffffffffffffffffffff60a01b821617600055167f8be0079c531659141344cd1fd0a4f28419497f9722a3daafe3b4186f6b6457e0600080a380f35b906020608492519162461bcd60e51b8352820152602660248201527f4f776e61626c653a206e6577206f776e657220697320746865207a65726f206160448201526564647265737360d01b6064820152fd5b9190503461028b57602036600319011261028b5782610100948235815260036020522080549360018201549260018060a01b039081600285015416918060038601541691850154169160058501549360ff6007600688015497015416968151998a5260208a01528801526060870152608086015260a085015260c0840152151590820152f35b8380fd5b9050828434610742576080366003190112610742576102ac611517565b6024948535926001600160a01b039160443591606435848116929083900361073d576102d661198c565b847f0000000000000000000000000000000000000000000000000000000000000000169988519a63190af90160e21b97888d528c843091015260209c8d818581865afa908115610733578e8792610716575b5050156107065787908b51998a52169788848201528c818481855afa9081156106fc5785916106df575b50156106cf578b82918b51928380926315e5d47360e01b825289888301525afa90811561066d5784916106b2575b50156106a35788516301ffc9a760e01b815263152a902d60e11b838201528b818381878c5af190811561066d578491610686575b501561067757885163642b5f9b60e01b81528281018990528b8183818b5afa90811561066d578491610650575b506106415784895191630866910560e21b835289848401528201528a816044818a5afa9081156105d7578391610614575b50156106065785825260058a528782208783528a528782205480151590816105ef575b506105e157853b156105d3578751635c46a7ef60e11b8152338282019081523060208201526040810189905260806060820181905260009082015283908290819060a0010381838b5af180156105d757918b918a94936105b6575b506002546001019a8b978896876002558651936104ac85611543565b888552858501928d8452888601918d8352606087013381526080880194855260a08801958d875260c089019742895289019960018b528d8c52600390528b8b20985189555160018901558260028901945116936bffffffffffffffffffffffff60a01b94858254161790558260038901915116848254161790558601925116908254161790555160058301555160068201556007019051151560ff198254169060ff1617905585815260058a528181208782528a522055845180913390610588918360209093929193604081019460018060a01b031681520152565b037fbfe9724d0a7254cfbb4f315c27418ff3751aebb099764b83fb3a4e2ca00e69d091a46001805551908152f35b8394506105c591939250611576565b6105d357908988928c610490565b5080fd5b89513d85823e3d90fd5b87516366cb03e960e01b8152fd5b83525060038a528782206007015460ff168b610435565b87516364cb15f160e01b8152fd5b61063491508b3d8d1161063a575b61062c818361158a565b81019061165e565b8b610412565b503d610622565b508751630869773360e41b8152fd5b61066791508c8d3d1061063a5761062c818361158a565b8c6103e1565b8a513d86823e3d90fd5b508751630510c9f160e21b8152fd5b61069d91508c8d3d1061063a5761062c818361158a565b8c6103b4565b5087516301537ee960e11b8152fd5b6106c991508c8d3d1061063a5761062c818361158a565b8c610380565b895163d7a9485d60e01b81528390fd5b6106f691508d803d1061063a5761062c818361158a565b8d610352565b8b513d87823e3d90fd5b8a5163c1b47abb60e01b81528490fd5b61072c9250803d1061063a5761062c818361158a565b8e8e610328565b8c513d88823e3d90fd5b600080fd5b80fd5b90503461028b57602091826003193601126108d657610762611517565b60028054956001600160a01b0395889593871693909160015b89811115610884575061078d87611724565b938a9760015b8b8111158061087b575b1561086557808d528c8b8086600393848b522092830154168a811480610857575b6107d4575b5050506107cf906116fd565b610793565b60ff600761084e946107cf969f948f8d958c51966107f188611543565b84548852600185015490880152828c850154168d8801526060870152820154166080850152600581015460a0850152600681015460c085015201541615158882015261083d828b611774565b52610848818a611774565b506116fd565b99908b386107c3565b5060ff6007840154166107be565b8351868152806108778189018a6115de565b0390f35b50818a1061079d565b808b526003808552828c20908101548a16871490816108c7575b506108b2575b6108ad906116fd565b61077b565b966108bf6108ad916116fd565b9790506108a4565b60ff915060070154163861089e565b8480fd5b83853461074257506108f46108ee366115c8565b9061179e565b8251838152928392610908918401906115de565b9060208301520390f35b505050346105d357806003193601126105d35760209181906001600160a01b0361093a611517565b168152600584528181206024358252845220549051908152f35b84848434610135576020908160031936011261028b57610972611517565b60028054909690956001600160a01b0395909490928616918560015b89811115610a8557506109a087611724565b93819760015b8b81111580610a7c575b15610a6a578084528c8b6003808952818b8820938401541686811480610a5c575b6109e8575b505050506109e3906116fd565b6109a6565b6007610a52946109e3969f948f8f8e9660ff968285935199610a098b611543565b87548b526001880154908b0152890152840154166060870152820154166080850152600581015460a0850152600681015460c085015201541615158882015261083d828b611774565b99908b8f806109d6565b5060ff6007850154166109d1565b8751868152806108778189018a6115de565b50818a106109b0565b80825260038452858220858a8d83015416149081610ac7575b50610ab2575b610aad906116fd565b61098e565b96610abf610aad916116fd565b979050610aa4565b60ff915060070154168c610a9e565b505050346105d357816003193601126105d357905490516001600160a01b039091168152602090f35b8434610742578060031936011261074257610b186119e2565b600080546001600160a01b0319811682556001600160a01b03167f8be0079c531659141344cd1fd0a4f28419497f9722a3daafe3b4186f6b6457e08280a380f35b5050346101355760208060031936011261028b57610b75611517565b92610b7e61198c565b3385528282528085206001600160a01b0390941660008181529483529381902054928315610c8d5733865280835281862085600052835285826000205573aaaaaaaaaaaaaaaaaaaaaaaaaaaaaaaaaaaaaaaa851415600014610c405750805163a9059cbb60e01b83820152336024820152604480820185905281527f716942921e9b67ee05c4c2ffcf216f189086c9053b444c8928a49db4bdb1ae8e929190610c3290610c2c60648261158a565b86611a3a565b519283523392a36001805580f35b8580808087335af1610c506116cd565b5015610c7f5750907f716942921e9b67ee05c4c2ffcf216f189086c9053b444c8928a49db4bdb1ae8e91610c32565b90516312171d8360e31b8152fd5b90516312d37ee560e31b8152fd5b505050346105d357816003193601126105d357517f00000000000000000000000000000000000000000000000000000000000000006001600160a01b03168152602090f35b838584346105d35760603660031901126105d3576020610cfe611517565b84516305aaff3160e01b8152602480359482019490945292839182906001600160a01b03165afa918215610d7c578092610d47575b505081519080604435111582526020820152f35b9091506020823d602011610d74575b81610d636020938361158a565b810103126107425750518280610d33565b3d9150610d56565b8351903d90823e3d90fd5b828585346105d35760203660031901126105d357823590610da661198c565b818352600360205280832090600782019485549560ff871615610ee45760038401805490916001600160a01b0391821633141580610ed7575b610ec757879860ff989798191690558060028601818154168852600560205260018689209701968754895260205287868120555416915416935490803b15610ec3578351635c46a7ef60e11b8152309381019384526001600160a01b0390951660208401526040830191909152608060608301819052600090830152849184919082908490829060a00103925af1908115610eba5750610ea6575b50807f411aee90354c51b1b04cd563fcab2617142a9d50da19232d888547c8a1b7fd8a91a26001805580f35b610eaf90611576565b6105d3578183610e7a565b513d84823e3d90fd5b8580fd5b845163754e373960e01b81528490fd5b5081885416331415610ddf565b5090516366cb03e960e01b8152fd5b828585610eff366115c8565b90610f0861198c565b825163190af90160e21b815230868201526001600160a01b037f000000000000000000000000000000000000000000000000000000000000000081169660209283816024818c5afa90811561133d578891611320575b5015611312578387526003835285872097600789019860ff8a5416156113025760038101928484541633146112f45784818301541691600581015498338c528288528a8c20848d5288528a8c205481116112e457610fbc818b611676565b73aaaaaaaaaaaaaaaaaaaaaaaaaaaaaaaaaaaaaaaa85146112ce578b51906323b872dd60e01b8a83015233602483015230604483015260648201526064815260a0810181811067ffffffffffffffff8211176112bb578c5261101e9085611a3a565b80611297575b50600281019260018785541692019485548c519063152a902d60e11b8252858201528b60248201528c81604481875afa90811561128b57908e92918391611268575b50908d8d6024825180948193630e44f5c560e41b83528b8301525afa90811561125c57908f8f90888e8e8e6110fb99989785908698611225575b50908280921686528484528686208c875284528686206110c18982546116c0565b9055549190981697168714611214576110f695968352528d8282209088835252206110ed8482546116c0565b90555b8d611676565b611676565b90878754168d528389528b8d20908d52885261111b8b8d209182546116c0565b9055835491813b15611210578a51635c46a7ef60e11b81523091810191825233602083015260408201939093526080606082018190526000908201528b91839182908490829060a00103925af18015611206576111cb575b5083907f2bbc64d6afd28a753f6c5e4aaa894f1d684c44a0e080167eae104ac8505cfebd969798999a60ff19815416905554168952600584528789209054895283528787812055541694519384523393a46001805580f35b907f2bbc64d6afd28a753f6c5e4aaa894f1d684c44a0e080167eae104ac8505cfebd969798996111fb8693611576565b999897965090611173565b89513d8c823e3d90fd5b8b80fd5b5050919350506110f69150916110f0565b8398508392915061124b90883d8a11611255575b611243818361158a565b810190611699565b98909192506110a0565b503d611239565b8f8f51903d90823e3d90fd5b90506112829192508d803d1061125557611243818361158a565b91909138611066565b8e8e51903d90823e3d90fd5b338c528288528a8c20848d5288526112b38b8d20918254611676565b90558c611024565b634e487b7160e01b8e526041855260248efd5b341461101e578a5163569e8c1160e01b81528390fd5b8a5163569d45cf60e11b81528390fd5b88516350eadcb160e01b8152fd5b87516366cb03e960e01b81528390fd5b855163c1b47abb60e01b8152fd5b6113379150843d861161063a5761062c818361158a565b89610f5e565b87513d8a823e3d90fd5b505050346105d357816003193601126105d3576020906002549051908152f35b5050913461074257608036600319011261074257611383611517565b5061138c61152d565b506064359267ffffffffffffffff84116105d357366023850112156105d3578301356113b7816115ac565b936113c48451958661158a565b818552366024838301011161013557906020948160248794018483013701015251630a85bd0160e11b8152f35b9193905034610742576020366003190112610742578335611410611620565b50801580156114b2575b6114a2579160ff600785846114a0966101009998965260036020522084519661144288611543565b815488526001820154602089015260028201546001600160a01b03908116878a01526003830154811660608a015290820154166080880152600581015460a0880152600681015460c0880152015416151590840152519182906114bd565bf35b505050516335aacf6560e11b8152fd5b50600254811161141a565b60e080918051845260208101516020850152604081015160018060a01b038091166040860152806060830151166060860152608082015116608085015260a081015160a085015260c081015160c085015201511515910152565b600435906001600160a01b038216820361073d57565b602435906001600160a01b038216820361073d57565b610100810190811067ffffffffffffffff82111761156057604052565b634e487b7160e01b600052604160045260246000fd5b67ffffffffffffffff811161156057604052565b90601f8019910116810190811067ffffffffffffffff82111761156057604052565b67ffffffffffffffff811161156057601f01601f191660200190565b604090600319011261073d576004359060243590565b90815180825260208080930193019160005b8281106115fe575050505090565b90919293826101008261161460019489516114bd565b019501939291016115f0565b6040519061162d82611543565b8160e06000918281528260208201528260408201528260608201528260808201528260a08201528260c08201520152565b9081602091031261073d5751801515810361073d5790565b9190820391821161168357565b634e487b7160e01b600052601160045260246000fd5b919082604091031261073d5781516001600160a01b038116810361073d5760209092015190565b9190820180921161168357565b3d156116f8573d906116de826115ac565b916116ec604051938461158a565b82523d6000602084013e565b606090565b60001981146116835760010190565b67ffffffffffffffff81116115605760051b60200190565b9061172e8261170c565b61173b604051918261158a565b828152809261174c601f199161170c565b019060005b82811061175d57505050565b602090611768611620565b82828501015201611751565b80518210156117885760209160051b010190565b634e487b7160e01b600052603260045260246000fd5b600092600192600290600254945b8581111561194f575085808510801590611947575b61191b578085916117d284846116c0565b1161190a575b50506117e381611724565b9560009360009260015b8881111580611901575b156118f65780600052896003896020918083526040806000209160ff6007840154169384611835575b50505050505050611830906116fd565b6117ed565b908c918e989e1015611864575b50505050505050611855611830916116fd565b9690508938808080808d611820565b948b94600661084895856118309b9f96956118e99a6118559c97519661188988611543565b84548852600185015490880152908301546001600160a01b0390811692870192909252820154811660608601526004820154166080850152600581015460a0850152015460c0830152151560e08201526118e38383611774565b52611774565b95918b9138808a81611842565b505094509450505050565b508185106117f7565b6119149250611676565b83386117d8565b955050509150506040516020810181811067ffffffffffffffff82111761156057604052600081529190565b5081156117c1565b80600052600360205260ff60076040600020015416611977575b611972906116fd565b6117ac565b95611984611972916116fd565b969050611969565b60026001541461199d576002600155565b60405162461bcd60e51b815260206004820152601f60248201527f5265656e7472616e637947756172643a207265656e7472616e742063616c6c006044820152606490fd5b6000546001600160a01b031633036119f657565b606460405162461bcd60e51b815260206004820152602060248201527f4f776e61626c653a2063616c6c6572206973206e6f7420746865206f776e65726044820152fd5b60408051908101916001600160a01b031667ffffffffffffffff83118284101761156057611aaa926040526000806020958685527f5361666545524332303a206c6f772d6c6576656c2063616c6c206661696c656487860152868151910182855af1611aa46116cd565b91611b32565b805190828215928315611b1a575b50505015611ac35750565b6084906040519062461bcd60e51b82526004820152602a60248201527f5361666545524332303a204552433230206f7065726174696f6e20646964206e6044820152691bdd081cdd58d8d9595960b21b6064820152fd5b611b2a935082018101910161165e565b388281611ab8565b91929015611b945750815115611b46575090565b3b15611b4f5790565b60405162461bcd60e51b815260206004820152601d60248201527f416464726573733a2063616c6c20746f206e6f6e2d636f6e74726163740000006044820152606490fd5b825190915015611ba75750805190602001fd5b6040519062461bcd60e51b82528160208060048301528251908160248401526000935b828510611bed575050604492506000838284010152601f80199101168101030190fd5b8481018201518686016044015293810193859350611bca56fea2646970667358221220ea34f6aa601260011de2b02c8dd1ef6b91ffa38f0fa52d9b6e60f0d811bcad7764736f6c63430008190033",
  "linkReferences": {},
  "deployedLinkReferences": {}
}