{
  "_format": "hh-sol-artifact-1",
  "contractName": "EventTicket",
  "sourceName": "contracts/src/EventTicket.sol",
  "abi": [
    {
      "inputs": [
        {
          "internalType": "string",
          "name": "_name",
          "type": "string"
        },
        {
          "internalType": "string",
          "name": "_symbol",
          "type": "string"
        },
        {
          "internalType": "string",
          "name": "_venue",
          "type": "string"
        },
        {
          "internalType": "uint256",
          "name": "_eventDate",
          "type": "uint256"
        },
        {
          "internalType": "uint256",
          "name": "_ticketPrice",
          "type": "uint256"
        },
        {
          "internalType": "uint256",
          "name": "_maxSupply",
          "type": "uint256"
        },
        {
          "internalType": "uint256",
          "name": "_maxTicketsPerWallet",
          "type": "uint256"
        },
        {
          "internalType": "uint256",
          "name": "_maxResalePricePercent",
          "type": "uint256"
        },
        {
          "internalType": "string",
          "name": "_baseURI",
          "type": "string"
        },
        {
          "internalType": "address",
          "name": "_organizer",
          "type": "address"
        },
        {
          "internalType": "address",
          "name": "_royaltyReceiver",
          "type": "address"
        },
        {
          "internalType": "uint96",
          "name": "_royaltyPercent",
          "type": "uint96"
        }
      ],
      "stateMutability": "nonpayable",
      "type": "constructor"
    },
    {
      "inputs": [],
      "name": "EventAlreadyPassed",
      "type": "error"
    },
    {
      "inputs": [],
      "name": "ExceedsMaxPerWallet",
      "type": "error"
    },
    {
      "inputs": [],
      "name": "IncorrectPayment",
      "type": "error"
    },
    {
      "inputs": [],
      "name": "InvalidResalePrice",
      "type": "error"
    },
    {
      "inputs": [],
      "name": "NoFundsToWithdraw",
      "type": "error"
    },
    {
      "inputs": [],
      "name": "NotTicketHolder",
      "type": "error"
    },
    {
      "inputs": [],
      "name": "OnlyOrganizerOrOwner",
      "type": "error"
    },
    {
      "inputs": [],
      "name": "SoldOut",
      "type": "error"
    },
    {
      "inputs": [],
      "name": "TicketAlreadyUsed",
      "type": "error"
    },
    {
      "inputs": [],
      "name": "TicketDoesNotExist",
      "type": "error"
    },
    {
      "inputs": [],
      "name": "TransferFailed",
      "type": "error"
    },
    {
      "inputs": [],
      "name": "ZeroAddressNotAllowed",
      "type": "error"
    },
    {
      "anonymous": false,
      "inputs": [
        {
          "indexed": true,
          "internalType": "address",
          "name": "owner",
          "type": "address"
        },
        {
          "indexed": true,
          "internalType": "address",
          "name": "approved",
          "type": "address"
        },
        {
          "indexed": true,
          "internalType": "uint256",
          "name": "tokenId",
          "type": "uint256"
        }
      ],
      "name": "Approval",
      "type": "event"
    },
    {
      "anonymous": false,
      "inputs": [
        {
          "indexed": true,
          "internalType": "address",
          "name": "owner",
          "type": "address"
        },
        {
          "indexed": true,
          "internalType": "address",
          "name": "operator",
          "type": "address"
        },
        {
          "indexed": false,
          "internalType": "bool",
          "name": "approved",
          "type": "bool"
        }
      ],
      "name": "ApprovalForAll",
      "type": "event"
    },
    {
      "anonymous": false,
      "inputs": [
        {
          "indexed": false,
          "internalType": "uint256",
          "name": "_fromTokenId",
          "type": "uint256"
        },
        {
          "indexed": false,
          "internalType": "uint256",
          "name": "_toTokenId",
          "type": "uint256"
        }
      ],
      "name": "BatchMetadataUpdate",
      "type": "event"
    },
    {
      "anonymous": false,
      "inputs": [
        {
          "indexed": true,
          "internalType": "address",
          "name": "organizer",
          "type": "address"
        },
        {
          "indexed": false,
          "internalType": "uint256",
          "name": "amount",
          "type": "uint256"
        }
      ],
      "name": "FundsWithdrawn",
      "type": "event"
    },
    {
      "anonymous": false,
      "inputs": [
        {
          "indexed": false,
          "internalType": "uint256",
          "name": "_tokenId",
          "type": "uint256"
        }
      ],
      "name": "MetadataUpdate",
      "type": "event"
    },
    {
      "anonymous": false,
      "inputs": [
        {
          "indexed": true,
          "internalType": "address",
          "name": "previousOwner",
          "type": "address"
        },
        {
          "indexed": true,
          "internalType": "address",
          "name": "newOwner",
          "type": "address"
        }
      ],
      "name": "OwnershipTransferred",
      "type": "event"
    },
    {
      "anonymous": false,
      "inputs": [
        {
          "indexed": true,
          "internalType": "uint256",
          "name": "tokenId",
          "type": "uint256"
        },
        {
          "indexed": true,
          "internalType": "address",
          "name": "holder",
          "type": "address"
        },
        {
          "indexed": false,
          "internalType": "uint256",
          "name": "timestamp",
          "type": "uint256"
        }
      ],
      "name": "TicketMarkedUsed",
      "type": "event"
    },
    {
      "anonymous": false,
      "inputs": [
        {
          "indexed": true,
          "internalType": "uint256",
          "name": "tokenId",
          "type": "uint256"
        },
        {
          "indexed": true,
          "internalType": "address",
          "name": "buyer",
          "type": "address"
        },
        {
          "indexed": false,
          "internalType": "uint256",
          "name": "price",
          "type": "uint256"
        }
      ],
      "name": "TicketPurchased",
      "type": "event"
    },
    {
      "anonymous": false,
      "inputs": [
        {
          "indexed": true,
          "internalType": "uint256",
          "name": "tokenId",
          "type": "uint256"
        },
        {
          "indexed": true,
          "internalType": "address",
          "name": "holder",
          "type": "address"
        },
        {
          "indexed": false,
          "internalType": "bool",
          "name": "isValid",
          "type": "bool"
        }
      ],
      "name": "TicketVerified",
      "type": "event"
    },
    {
      "anonymous": false,
      "inputs": [
        {
          "indexed": true,
          "internalType": "address",
          "name": "from",
          "type": "address"
        },
        {
          "indexed": true,
          "internalType": "address",
          "name": "to",
          "type": "address"
        },
        {
          "indexed": true,
          "internalType": "uint256",
          "name": "tokenId",
          "type": "uint256"
        }
      ],
      "name": "Transfer",
      "type": "event"
    },
    {
      "inputs": [
        {
          "internalType": "address",
          "name": "to",
          "type": "address"
        },
        {
          "internalType": "uint256",
          "name": "tokenId",
          "type": "uint256"
        }
      ],
      "name": "approve",
      "outputs": [],
      "stateMutability": "nonpayable",
      "type": "function"
    },
    {
      "inputs": [
        {
          "internalType": "address",
          "name": "owner",
          "type": "address"
        }
      ],
      "name": "balanceOf",
      "outputs": [
        {
          "internalType": "uint256",
          "name": "",
          "type": "uint256"
        }
      ],
      "stateMutability": "view",
      "type": "function"
    },
    {
      "inputs": [],
      "name": "baseTokenURI",
      "outputs": [
        {
          "internalType": "string",
          "name": "",
          "type": "string"
        }
      ],
      "stateMutability": "view",
      "type": "function"
    },
    {
      "inputs": [
        {
          "internalType": "uint256[]",
          "name": "tokenIds",
          "type": "uint256[]"
        }
      ],
      "name": "batchMarkAsUsed",
      "outputs": [],
      "stateMutability": "nonpayable",
      "type": "function"
    },
    {
      "inputs": [],
      "name": "eventDate",
      "outputs": [
        {
          "internalType": "uint256",
          "name": "",
          "type": "uint256"
        }
      ],
      "stateMutability": "view",
      "type": "function"
    },
    {
      "inputs": [],
      "name": "eventName",
      "outputs": [
        {
          "internalType": "string",
          "name": "",
          "type": "string"
        }
      ],
      "stateMutability": "view",
      "type": "function"
    },
    {
      "inputs": [],
      "name": "eventOrganizer",
      "outputs": [
        {
          "internalType": "address",
          "name": "",
          "type": "address"
        }
      ],
      "stateMutability": "view",
      "type": "function"
    },
    {
      "inputs": [],
      "name": "eventVenue",
      "outputs": [
        {
          "internalType": "string",
          "name": "",
          "type": "string"
        }
      ],
      "stateMutability": "view",
      "type": "function"
    },
    {
      "inputs": [],
      "name": "factory",
      "outputs": [
        {
          "internalType": "address",
          "name": "",
          "type": "address"
        }
      ],
      "stateMutability": "view",
      "type": "function"
    },
    {
      "inputs": [
        {
          "internalType": "uint256",
          "name": "tokenId",
          "type": "uint256"
        }
      ],
      "name": "getApproved",
      "outputs": [
        {
          "internalType": "address",
          "name": "",
          "type": "address"
        }
      ],
      "stateMutability": "view",
      "type": "function"
    },
    {
      "inputs": [],
      "name": "getEventDetails",
      "outputs": [
        {
          "internalType": "string",
          "name": "name",
          "type": "string"
        },
        {
          "internalType": "string",
          "name": "venue",
          "type": "string"
        },
        {
          "internalType": "uint256",
          "name": "date",
          "type": "uint256"
        },
        {
          "internalType": "uint256",
          "name": "price",
          "type": "uint256"
        },
        {
          "internalType": "uint256",
          "name": "supply",
          "type": "uint256"
        },
        {
          "internalType": "uint256",
          "name": "sold",
          "type": "uint256"
        },
        {
          "internalType": "address",
          "name": "organizer",
          "type": "address"
        }
      ],
      "stateMutability": "view",
      "type": "function"
    },
    {
      "inputs": [
        {
          "internalType": "uint256",
          "name": "tokenId",
          "type": "uint256"
        }
      ],
      "name": "getMaxResalePrice",
      "outputs": [
        {
          "internalType": "uint256",
          "name": "maxPrice",
          "type": "uint256"
        }
      ],
      "stateMutability": "view",
      "type": "function"
    },
    {
      "inputs": [
        {
          "internalType": "address",
          "name": "owner",
          "type": "address"
        }
      ],
      "name": "getTicketsByOwner",
      "outputs": [
        {
          "internalType": "uint256[]",
          "name": "tokenIds",
          "type": "uint256[]"
        }
      ],
      "stateMutability": "view",
      "type": "function"
    },
    {
      "inputs": [
        {
          "internalType": "address",
          "name": "owner",
          "type": "address"
        },
        {
          "internalType": "address",
          "name": "operator",
          "type": "address"
        }
      ],
      "name": "isApprovedForAll",
      "outputs": [
        {
          "internalType": "bool",
          "name": "",
          "type": "bool"
        }
      ],
      "stateMutability": "view",
      "type": "function"
    },
    {
      "inputs": [
        {
          "internalType": "uint256",
          "name": "tokenId",
          "type": "uint256"
        }
      ],
      "name": "markAsUsed",
      "outputs": [],
      "stateMutability": "nonpayable",
      "type": "function"
    },
    {
      "inputs": [],
      "name": "maxResalePricePercent",
      "outputs": [
        {
          "internalType": "uint256",
          "name": "",
          "type": "uint256"
        }
      ],
      "stateMutability": "view",
      "type": "function"
    },
    {
      "inputs": [],
      "name": "maxSupply",
      "outputs": [
        {
          "internalType": "uint256",
          "name": "",
          "type": "uint256"
        }
      ],
      "stateMutability": "view",
      "type": "function"
    },
    {
      "inputs": [],
      "name": "maxTicketsPerWallet",
      "outputs": [
        {
          "internalType": "uint256",
          "name": "",
          "type": "uint256"
        }
      ],
      "stateMutability": "view",
      "type": "function"
    },
    {
      "inputs": [],
      "name": "name",
      "outputs": [
        {
          "internalType": "string",
          "name": "",
          "type": "string"
        }
      ],
      "stateMutability": "view",
      "type": "function"
    },
    {
      "inputs": [],
      "name": "owner",
      "outputs": [
        {
          "internalType": "address",
          "name": "",
          "type": "address"
        }
      ],
      "stateMutability": "view",
      "type": "function"
    },
    {
      "inputs": [
        {
          "internalType": "uint256",
          "name": "tokenId",
          "type": "uint256"
        }
      ],
      "name": "ownerOf",
      "outputs": [
        {
          "internalType": "address",
          "name": "",
          "type": "address"
        }
      ],
      "stateMutability": "view",
      "type": "function"
    },
    {
      "inputs": [],
      "name": "purchaseTicket",
      "outputs": [
        {
          "internalType": "uint256",
          "name": "tokenId",
          "type": "uint256"
        }
      ],
      "stateMutability": "payable",
      "type": "function"
    },
    {
      "inputs": [
        {
          "internalType": "uint256",
          "name": "quantity",
          "type": "uint256"
        }
      ],
      "name": "purchaseTickets",
      "outputs": [
        {
          "internalType": "uint256[]",
          "name": "tokenIds",
          "type": "uint256[]"
        }
      ],
      "stateMutability": "payable",
      "type": "function"
    },
    {
      "inputs": [],
      "name": "remainingTickets",
      "outputs": [
        {
          "internalType": "uint256",
          "name": "",
          "type": "uint256"
        }
      ],
      "stateMutability": "view",
      "type": "function"
    },
    {
      "inputs": [],
      "name": "renounceOwnership",
      "outputs": [],
      "stateMutability": "nonpayable",
      "type": "function"
    },
    {
      "inputs": [
        {
          "internalType": "uint256",
          "name": "tokenId",
          "type": "uint256"
        },
        {
          "internalType": "uint256",
          "name": "salePrice",
          "type": "uint256"
        }
      ],
      "name": "royaltyInfo",
      "outputs": [
        {
          "internalType": "address",
          "name": "",
          "type": "address"
        },
        {
          "internalType": "uint256",
          "name": "",
          "type": "uint256"
        }
      ],
      "stateMutability": "view",
      "type": "function"
    },
    {
      "inputs": [
        {
          "internalType": "address",
          "name": "from",
          "type": "address"
        },
        {
          "internalType": "address",
          "name": "to",
          "type": "address"
        },
        {
          "internalType": "uint256",
          "name": "tokenId",
          "type": "uint256"
        }
      ],
      "name": "safeTransferFrom",
      "outputs": [],
      "stateMutability": "nonpayable",
      "type": "function"
    },
    {
      "inputs": [
        {
          "internalType": "address",
          "name": "from",
          "type": "address"
        },
        {
          "internalType": "address",
          "name": "to",
          "type": "address"
        },
        {
          "internalType": "uint256",
          "name": "tokenId",
          "type": "uint256"
        },
        {
          "internalType": "bytes",
          "name": "data",
          "type": "bytes"
        }
      ],
      "name": "safeTransferFrom",
      "outputs": [],
      "stateMutability": "nonpayable",
      "type": "function"
    },
    {
      "inputs": [
        {
          "internalType": "address",
          "name": "operator",
          "type": "address"
        },
        {
          "internalType": "bool",
          "name": "approved",
          "type": "bool"
        }
      ],
      "name": "setApprovalForAll",
      "outputs": [],
      "stateMutability": "nonpayable",
      "type": "function"
    },
    {
      "inputs": [
        {
          "internalType": "string",
          "name": "newBaseURI",
          "type": "string"
        }
      ],
      "name": "setBaseURI",
      "outputs": [],
      "stateMutability": "nonpayable",
      "type": "function"
    },
    {
      "inputs": [
        {
          "internalType": "bytes4",
          "name": "interfaceId",
          "type": "bytes4"
        }
      ],
      "name": "supportsInterface",
      "outputs": [
        {
          "internalType": "bool",
          "name": "",
          "type": "bool"
        }
      ],
      "stateMutability": "view",
      "type": "function"
    },
    {
      "inputs": [],
      "name": "symbol",
      "outputs": [
        {
          "internalType": "string",
          "name": "",
          "type": "string"
        }
      ],
      "stateMutability": "view",
      "type": "function"
    },
    {
      "inputs": [],
      "name": "ticketPrice",
      "outputs": [
        {
          "internalType": "uint256",
          "name": "",
          "type": "uint256"
        }
      ],
      "stateMutability": "view",
      "type": "function"
    },
    {
      "inputs": [
        {
          "internalType": "uint256",
          "name": "",
          "type": "uint256"
        }
      ],
      "name": "ticketPurchasePrice",
      "outputs": [
        {
          "internalType": "uint256",
          "name": "",
          "type": "uint256"
        }
      ],
      "stateMutability": "view",
      "type": "function"
    },
    {
      "inputs": [
        {
          "internalType": "uint256",
          "name": "",
          "type": "uint256"
        }
      ],
      "name": "ticketUsed",
      "outputs": [
        {
          "internalType": "bool",
          "name": "",
          "type": "bool"
        }
      ],
      "stateMutability": "view",
      "type": "function"
    },
    {
      "inputs": [
        {
          "internalType": "address",
          "name": "",
          "type": "address"
        }
      ],
      "name": "ticketsPurchasedBy",
      "outputs": [
        {
          "internalType": "uint256",
          "name": "",
          "type": "uint256"
        }
      ],
      "stateMutability": "view",
      "type": "function"
    },
    {
      "inputs": [
        {
          "internalType": "uint256",
          "name": "index",
          "type": "uint256"
        }
      ],
      "name": "tokenByIndex",
      "outputs": [
        {
          "internalType": "uint256",
          "name": "",
          "type": "uint256"
        }
      ],
      "stateMutability": "view",
      "type": "function"
    },
    {
      "inputs": [
        {
          "internalType": "address",
          "name": "owner",
          "type": "address"
        },
        {
          "internalType": "uint256",
          "name": "index",
          "type": "uint256"
        }
      ],
      "name": "tokenOfOwnerByIndex",
      "outputs": [
        {
          "internalType": "uint256",
          "name": "",
          "type": "uint256"
        }
      ],
      "stateMutability": "view",
      "type": "function"
    },
    {
      "inputs": [
        {
          "internalType": "uint256",
          "name": "tokenId",
          "type": "uint256"
        }
      ],
      "name": "tokenURI",
      "outputs": [
        {
          "internalType": "string",
          "name": "",
          "type": "string"
        }
      ],
      "stateMutability": "view",
      "type": "function"
    },
    {
      "inputs": [],
      "name": "totalSold",
      "outputs": [
        {
          "internalType": "uint256",
          "name": "",
          "type": "uint256"
        }
      ],
      "stateMutability": "view",
      "type": "function"
    },
    {
      "inputs": [],
      "name": "totalSupply",
      "outputs": [
        {
          "internalType": "uint256",
          "name": "",
          "type": "uint256"
        }
      ],
      "stateMutability": "view",
      "type": "function"
    },
    {
      "inputs": [
        {
          "internalType": "address",
          "name": "from",
          "type": "address"
        },
        {
          "internalType": "address",
          "name": "to",
          "type": "address"
        },
        {
          "internalType": "uint256",
          "name": "tokenId",
          "type": "uint256"
        }
      ],
      "name": "transferFrom",
      "outputs": [],
      "stateMutability": "nonpayable",
      "type": "function"
    },
    {
      "inputs": [
        {
          "internalType": "address",
          "name": "newOwner",
          "type": "address"
        }
      ],
      "name": "transferOwnership",
      "outputs": [],
      "stateMutability": "nonpayable",
      "type": "function"
    },
    {
      "inputs": [
        {
          "internalType": "uint256",
          "name": "tokenId",
          "type": "uint256"
        },
        {
          "internalType": "uint256",
          "name": "resalePrice",
          "type": "uint256"
        }
      ],
      "name": "validateResalePrice",
      "outputs": [
        {
          "internalType": "bool",
          "name": "valid",
          "type": "bool"
        }
      ],
      "stateMutability": "view",
      "type": "function"
    },
    {
      "inputs": [
        {
          "internalType": "uint256",
          "name": "tokenId",
          "type": "uint256"
        }
      ],
      "name": "verifyTicket",
      "outputs": [
        {
          "internalType": "bool",
          "name": "isValid",
          "type": "bool"
        },
        {
          "internalType": "address",
          "name": "holder",
          "type": "address"
        },
        {
          "internalType": "bool",
          "name": "used",
          "type": "bool"
        }
      ],
      "stateMutability": "view",
      "type": "function"
    },
    {
      "inputs": [],
      "name": "withdrawFunds",
      "outputs": [],
      "stateMutability": "nonpayable",
      "type": "function"
    }
  ],
  "bytecode": "0x6080604052346108f6576134f680380380610019816108fb565b928339810190610180818303126108f65780516001600160401b0381116108f65782610046918301610920565b60208201516001600160401b0381116108f65783610065918401610920565b60408301519092906001600160401b0381116108f65784610087918301610920565b936060820151608083015160a08401519060c08501519260e0860151946101008701519060018060401b0382116108f6576100c3918801610920565b986100d1610120880161098b565b976101606100e26101408a0161098b565b980151996001600160601b038b168b036108f65781516001600160401b0381116103ad57600054600181811c911680156108ec575b602082101461053857601f811161089e575b50806020601f821160011461082d57600091610822575b508160011b916000199060031b1c1916176000555b8051906001600160401b0382116103ad5760015490600182811c92168015610818575b60208310146105385781601f8493116107bd575b50602090601f83116001146107455760009261073a575b50508160011b916000199060031b1c1916176001555b6101c23361099f565b6001600e556001600160a01b03891615610728578051906001600160401b0382116103ad5760105490600182811c9216801561071e575b60208310146105385781601f8493116106c3575b50602090601f831160011461064b57600092610640575b50508160011b916000199060031b1c1916176010555b8051906001600160401b0382116103ad5760115490600182811c92168015610636575b60208310146105385781601f8493116105db575b50602090601f831160011461056357600092610558575b50508160011b916000199060031b1c1916176011555b60125560135560145560155560165583516001600160401b0381116103ad57601754600181811c9116801561054e575b602082101461053857601f81116104d3575b50602094601f821160011461046b57948192939495600092610460575b50508160011b916000199060031b1c1916176017555b601880546001600160a01b03199081166001600160a01b0385161790915560198054821633179055906127106001600160601b03851611610408576001600160a01b03169081156103c3576040805190810194906001600160401b038611818710176103ad5761039e95604052838152602060018060601b03831691015260a01b1617600b5561099f565b604051612a8d90816109e98239f35b634e487b7160e01b600052604160045260246000fd5b60405162461bcd60e51b815260206004820152601960248201527f455243323938313a20696e76616c6964207265636569766572000000000000006044820152606490fd5b60405162461bcd60e51b815260206004820152602a60248201527f455243323938313a20726f79616c7479206665652077696c6c206578636565646044820152692073616c65507269636560b01b6064820152608490fd5b0151905038806102fd565b601f19821695601760005260206000209160005b8881106104bb575083600195969798106104a2575b505050811b01601755610313565b015160001960f88460031b161c19169055388080610494565b9192602060018192868501518155019401920161047f565b60176000527fc624b66cc0138b8fabc209247f72d758e1cf3343756d543badbf24212bed8c15601f830160051c8101916020841061052e575b601f0160051c01905b81811061052257506102e0565b60008155600101610515565b909150819061050c565b634e487b7160e01b600052602260045260246000fd5b90607f16906102ce565b015190503880610288565b60116000908152935060008051602061347683398151915291905b601f19841685106105c0576001945083601f198116106105a7575b505050811b0160115561029e565b015160001960f88460031b161c19169055388080610599565b8181015183556020948501946001909301929091019061057e565b6011600052909150600080516020613476833981519152601f840160051c81016020851061062f575b90849392915b601f830160051c82018110610620575050610271565b6000815585945060010161060a565b5080610604565b91607f169161025d565b015190503880610224565b6010600090815293506000805160206134d683398151915291905b601f19841685106106a8576001945083601f1981161061068f575b505050811b0160105561023a565b015160001960f88460031b161c19169055388080610681565b81810151835560209485019460019093019290910190610666565b60106000529091506000805160206134d6833981519152601f840160051c810160208510610717575b90849392915b601f830160051c8201811061070857505061020d565b600081558594506001016106f2565b50806106ec565b91607f16916101f9565b6040516342bcdf7f60e11b8152600490fd5b0151905038806101a3565b6001600090815293506000805160206134b683398151915291905b601f19841685106107a2576001945083601f19811610610789575b505050811b016001556101b9565b015160001960f88460031b161c1916905538808061077b565b81810151835560209485019460019093019290910190610760565b60016000529091506000805160206134b6833981519152601f840160051c810160208510610811575b90849392915b601f830160051c8201811061080257505061018c565b600081558594506001016107ec565b50806107e6565b91607f1691610178565b905083015138610140565b60008080529250600080516020613496833981519152905b601f1983168410610886576001935082601f1981161061086d575b5050811b01600055610155565b85015160001960f88460031b161c191690553880610860565b85810151825560209384019360019092019101610845565b60008052600080516020613496833981519152601f830160051c8101602084106108e5575b601f830160051c820181106108d9575050610129565b600081556001016108c3565b50806108c3565b90607f1690610117565b600080fd5b6040519190601f01601f191682016001600160401b038111838210176103ad57604052565b919080601f840112156108f65782516001600160401b0381116103ad57602090610952601f8201601f191683016108fb565b928184528282870101116108f65760005b81811061097857508260009394955001015290565b8581018301518482018401528201610963565b51906001600160a01b03821682036108f657565b600d80546001600160a01b039283166001600160a01b0319821681179092559091167f8be0079c531659141344cd1fd0a4f28419497f9722a3daafe3b4186f6b6457e0600080a356fe6080604081815260048036101561001557600080fd5b600092833560e01c90816301ffc9a7146118485750806305aaff31146117e257806306fdde0314611731578063081812fc14611711578063095ea7b3146115a45780631209b1f61461158557806318160ddd1461156657806321846c7614611400578063219a4414146113ab57806323b872dd1461138657806324600fc3146112cf5780632a55205a1461122d5780632b2f0a0c1461120e5780632f745c59146111e557806342842e0e146111b15780634bfbe5df146111925780634f6ccce7146110ff578063543cb81f1461104057806355f804b314610e8f5780635817b00414610d495780635d50483214610d095780635da6a04114610c225780636352211e14610bf1578063642b5f9b14610bc557806367aa23e214610b635780636e7ffd4714610b3c57806370a0823114610b0f578063715018a614610ab25780637514d7cb14610a895780638043c9c014610a6b5780638da5cb5b14610a425780639106d7ba14610a2357806395d89b411461096f578063a1277600146107d3578063a22cb46514610704578063ac67b4d0146106e5578063b88d4fde14610657578063c45a01551461062e578063c63a80ef146105f6578063c87b56dd146104eb578063d547cfb714610410578063d5abeb01146103f1578063e22bda35146103bc578063e2bb3ccf14610338578063e985e9c5146102e65763f2fde38b1461021d57600080fd5b346102e25760203660031901126102e25761023661194a565b9061023f6127b1565b6001600160a01b03918216928315610290575050600d54826001600160601b0360a01b821617600d55167f8be0079c531659141344cd1fd0a4f28419497f9722a3daafe3b4186f6b6457e08380a380f35b906020608492519162461bcd60e51b8352820152602660248201527f4f776e61626c653a206e6577206f776e657220697320746865207a65726f206160448201526564647265737360d01b6064820152fd5b8280fd5b50503461033457806003193601126103345760ff8160209361030661194a565b61030e611965565b6001600160a01b0391821683526005875283832091168252855220549151911615158152f35b5080fd5b505034610334578160031936011261033457601254601354601454600f5460185461039295936001600160a01b039091169290610373611aff565b956103a061037f611bc5565b8751998a9960e08b5260e08b0190611925565b9089820360208b0152611925565b958701526060860152608085015260a084015260c08301520390f35b5050346103345781600319360112610334576103ed906103da611bc5565b9051918291602083526020830190611925565b0390f35b5050346103345781600319360112610334576020906014549051908152f35b8284346104e857806003193601126104e857815191828260175461043381611ac5565b90818452602095600191876001821691826000146104c1575050600114610477575b5050506103ed9291610468910385611a14565b51928284938452830190611925565b919086935060178352600080516020612a388339815191525b8284106104a957505050820101816104686103ed610455565b8054848a018601528895508794909301928101610490565b60ff19168782015293151560051b8601909301935084925061046891506103ed9050610455565b80fd5b5090346102e257602091826003193601126105f25735600081815260026020526040902054610524906001600160a01b03161515611ec2565b8352600a825280832092815180948290805461053f81611ac5565b91828552600191886001821691826000146105cb57505060011461058d575b5050506103ed939291610572910386611a14565b815161057d816119f8565b5251928284938452830190611925565b8552868520879350859291905b8284106105b357505050820101816105726103ed61055e565b8054848b01860152899550889490930192810161059a565b60ff19168782015293151560051b8601909301935084925061057291506103ed905061055e565b8380fd5b5050346103345760203660031901126103345760209181906001600160a01b0361061e61194a565b168152601c845220549051908152f35b50503461033457816003193601126103345760195490516001600160a01b039091168152602090f35b8382346103345760803660031901126103345761067261194a565b9061067b611965565b916044356064359367ffffffffffffffff85116106e157366023860112156106e1576106b66106d9948660246106de98369301359101611a52565b926106c96106c484336124bd565b611d55565b6106d4838383612585565b612972565b61285c565b80f35b8580fd5b5050346103345781600319360112610334576020906016549051908152f35b5090346102e257806003193601126102e25761071e61194a565b90602435918215158093036107cf576001600160a01b03169233841461078d5750338452600560205280842083855260205280842060ff1981541660ff8416179055519081527f17307eab39ab6107e8899845ad3d59bd9653f200f220920489ca2b5937696c3160203392a380f35b6020606492519162461bcd60e51b8352820152601960248201527f4552433732313a20617070726f766520746f2063616c6c6572000000000000006044820152fd5b8480fd5b5090602092836003193601126104e8578235906107ee612009565b600f946107fd83600f54611ccb565b6014541061095f5760139461081484601354611c64565b340361095157601254421015610943576015548015159081610926575b506109185750338252601c815283822061084c848254611ccb565b905561085783611f4c565b94825b848110610873576001600e558551806103ed8982611a89565b60019081895401808a558354818752601b86528887205580610895838b611f7e565b526108a0813361205f565b6108e5856108df6108b084612205565b8b519283916108d06108c3838501611cd8565b9182815194859201611902565b0103601f198101835282611a14565b826122ce565b83549088519182527fdbaaf4c87ce30816c961a81d110622a3227ede77953d4383d514ff88ab2e0fd3863393a30161085a565b845163c0e54d7360e01b8152fd5b9050338452601c835261093c8587862054611ccb565b1138610831565b845163437eb95360e01b8152fd5b845163569e8c1160e01b8152fd5b505050516352df9fe560e01b8152fd5b8284346104e857806003193601126104e85781519182826001936001549461099686611ac5565b91828552602096876001821691826000146104c15750506001146109c7575050506103ed9291610468910385611a14565b9190869350600183527fb10e2d527612073b26eecdfd717e6a320cf44b4afac2b0732d9fcbe2b7fa0cf65b828410610a0b57505050820101816104686103ed610455565b8054848a0186015288955087949093019281016109f2565b505034610334578160031936011261033457602090600f549051908152f35b505034610334578160031936011261033457600d5490516001600160a01b039091168152602090f35b5050346103345781600319360112610334576103ed906103da611aff565b50503461033457816003193601126103345760185490516001600160a01b039091168152602090f35b83346104e857806003193601126104e857610acb6127b1565b600d80546001600160a01b0319811690915581906001600160a01b03167f8be0079c531659141344cd1fd0a4f28419497f9722a3daafe3b4186f6b6457e08280a380f35b50503461033457602036600319011261033457602090610b35610b3061194a565b611f92565b9051908152f35b50346102e25760203660031901126102e2576020928291358152601b845220549051908152f35b8284346104e85760203660031901126104e857610b7e61194a565b91610b8883611f92565b610b9181611f4c565b925b818110610ba7578251806103ed8682611a89565b80610bb460019287611de7565b610bbe8287611f7e565b5201610b93565b50346102e25760203660031901126102e2578160209360ff92358152601a855220541690519015158152f35b5091346104e85760203660031901126104e85750610c1160209235611f0e565b90516001600160a01b039091168152f35b50346102e25760203660031901126102e2576018548135916001600160a01b0391821633141580610cfb575b610ced576000838152600260205260409020546001600160a01b031615610cdf57828552601a60205260ff8486205416610cd1575060207f32925aefa541c29eaf0d325823fe8ab33af9907c54c122bb705b970297221c0091838652601a8252848620600160ff19825416179055610cc584611f0e565b9451944286521693a380f35b8351630869773360e41b8152fd5b8351630ccf9c7760e31b8152fd5b835163327d424160e01b8152fd5b5081600d5416331415610c4e565b5091903461033457816003193601126103345760145491600f548303928311610d36576020838351908152f35b634e487b7160e01b815260118452602490fd5b50346102e25760209160206003193601126105f25767ffffffffffffffff9180358381116106e157366023820112156106e157808201359384116106e15760246005913660248760051b83010111610e8b576018546001600160a01b039390841633141580610e7d575b610e6d57885b878110610dc4578980f35b80821b83018401356000818152600260205260409020546001600160a01b031615610e5d57808b52601a808b5260ff898d205416610e4d579060019291818d528b52888c208360ff1982541617905586610e1d82611f0e565b16907f32925aefa541c29eaf0d325823fe8ab33af9907c54c122bb705b970297221c008c8b51428152a301610db9565b8851630869773360e41b81528890fd5b8751630ccf9c7760e31b81528790fd5b855163327d424160e01b81528590fd5b5083600d5416331415610db3565b8780fd5b50829034610334576020806003193601126102e25767ffffffffffffffff9180358381116107cf57366023820112156107cf57610ed59036906024818501359101611a52565b601854909590336001600160a01b0391821614159081611031575b50611024575084519283116110115750610f0b601754611ac5565b601f8111610fc0575b50602090601f8311600114610f5157508293829392610f46575b50508160011b916000199060031b1c19161760175580f35b015190508380610f2e565b60178452601f19831694600080516020612a38833981519152929185905b878210610fa8575050836001959610610f8f575b505050811b0160175580f35b015160001960f88460031b161c19169055838080610f83565b80600185968294968601518155019501930190610f6f565b60178452600080516020612a38833981519152601f840160051c81019160208510611007575b601f0160051c01905b818110610ffc5750610f14565b848155600101610fef565b9091508190610fe6565b634e487b7160e01b845260419052602483fd5b5163327d424160e01b8152fd5b9050600d541633141587610ef0565b509190346103345760203660031901126103345782356000818152600260205260409020549092906001600160a01b0316156110ef5761107f83611f0e565b928152601a60205260ff828220541615928391826110b9575b50825193151584526001600160a01b03166020840152159082015260609150f35b909350601254906201518082018092116110dc5750606094504211159238611098565b634e487b7160e01b815260118652602490fd5b8151630ccf9c7760e31b81528490fd5b5082346104e85760203660031901126104e8575080359060085482101561113a5760208361112c84611e75565b91905490519160031b1c8152f35b608490602084519162461bcd60e51b8352820152602c60248201527f455243373231456e756d657261626c653a20676c6f62616c20696e646578206f60448201526b7574206f6620626f756e647360a01b6064820152fd5b5050346103345781600319360112610334576020906012549051908152f35b505034610334576106d96106de916111c836611991565b919251926111d5846119f8565b8684526106c96106c484336124bd565b505034610334578060031936011261033457602090610b3561120561194a565b60243590611de7565b5050346103345781600319360112610334576020906015549051908152f35b8284346104e8578161123e3661197b565b92908152600c60205220825190611254826119c6565b546001600160a01b0380821680845260a09290921c6020840152919290156112a3575b611292612710916001600160601b0360208601511690611c64565b049151169082519182526020820152f35b915061271061129284516112b6816119c6565b600b54848116825260a01c602082015293915050611277565b50346102e257826003193601126102e2576112e8612009565b6018546001600160a01b03908116913383141580611378575b610ced5747928315611369578580808681945af161131d611db7565b501561135b57507feaff4b37086828766ad3268786972c0cd24259d4c87a80f9d3963a3c3d999b0d91602091601854169351908152a26001600e5580f35b83516312171d8360e31b8152fd5b5083516367e3990d60e01b8152fd5b5081600d5416331415611301565b83346104e8576106de61139836611991565b916113a66106c484336124bd565b612585565b50346102e2576113ba3661197b565b6000828152600260205260409020549092906001600160a01b031615610cdf57506113f6838560649360209752601b8752205460165490611c64565b0410159051908152f35b5091908160031936011261033457611416612009565b600f54601454111561155757601354340361154857601254421015611539576015548015159081611506575b506114f757338252602092601c8452818320805491600183018093116114e45750556001600f54019182600f55828152601b84528134912055611485823361205f565b6114ae836114a861149585612205565b84519283916108d06108c3838501611cd8565b836122ce565b8051348152827fdbaaf4c87ce30816c961a81d110622a3227ede77953d4383d514ff88ab2e0fd3853393a36001600e5551908152f35b634e487b7160e01b855260119052602484fd5b5163c0e54d7360e01b81529050fd5b9050338352601c6020528183205460018101809111611526571138611442565b634e487b7160e01b845260118552602484fd5b5163437eb95360e01b81529050fd5b5163569e8c1160e01b81529050fd5b516352df9fe560e01b81529050fd5b5050346103345781600319360112610334576020906008549051908152f35b5050346103345781600319360112610334576020906013549051908152f35b50346102e257816003193601126102e2576115bd61194a565b6024359290916001600160a01b03919082806115d887611f0e565b169416938085146116c4578033149081156116a5575b501561163d57848652602052842080546001600160a01b0319168317905561161583611f0e565b167f8c5be1e5ebec7d5bd14f71427d1e84f3dd0314c0f7b2291e5b200ac8c7c3b9258480a480f35b6020608492519162461bcd60e51b8352820152603d60248201527f4552433732313a20617070726f76652063616c6c6572206973206e6f7420746f60448201527f6b656e206f776e6572206f7220617070726f76656420666f7220616c6c0000006064820152fd5b90508652600560205281862033875260205260ff8287205416386115ee565b506020608492519162461bcd60e51b8352820152602160248201527f4552433732313a20617070726f76616c20746f2063757272656e74206f776e656044820152603960f91b6064820152fd5b5091346104e85760203660031901126104e85750610c1160209235611c8d565b8284346104e857806003193601126104e8578151918282835461175381611ac5565b90818452602095600191876001821691826000146104c1575050600114611787575050506103ed9291610468910385611a14565b91908693508280527f290decd9548b62a8d60345a988386fc84ba6bc95484008f6362f93160ef3e5635b8284106117ca57505050820101816104686103ed610455565b8054848a0186015288955087949093019281016117b1565b50346102e25760203660031901126102e25780356000818152600260205260409020549091906001600160a01b03161561183a5750611832828460649360209652601b8652205460165490611c64565b049051908152f35b8251630ccf9c7760e31b8152fd5b925050346102e25760203660031901126102e2573563ffffffff60e01b81168091036102e2576020925063152a902d60e11b811490811561188b575b5015158152f35b632483248360e11b8114915081156118a5575b5038611884565b63780e9d6360e01b8114915081156118bf575b503861189e565b6380ac58cd60e01b8114915081156118f1575b81156118e0575b50386118b8565b6301ffc9a760e01b149050386118d9565b635b5e139f60e01b811491506118d2565b60005b8381106119155750506000910152565b8181015183820152602001611905565b9060209161193e81518092818552858086019101611902565b601f01601f1916010190565b600435906001600160a01b038216820361196057565b600080fd5b602435906001600160a01b038216820361196057565b6040906003190112611960576004359060243590565b6060906003190112611960576001600160a01b0390600435828116810361196057916024359081168103611960579060443590565b6040810190811067ffffffffffffffff8211176119e257604052565b634e487b7160e01b600052604160045260246000fd5b6020810190811067ffffffffffffffff8211176119e257604052565b90601f8019910116810190811067ffffffffffffffff8211176119e257604052565b67ffffffffffffffff81116119e257601f01601f191660200190565b929192611a5e82611a36565b91611a6c6040519384611a14565b829481845281830111611960578281602093846000960137010152565b602090602060408183019282815285518094520193019160005b828110611ab1575050505090565b835185529381019392810192600101611aa3565b90600182811c92168015611af5575b6020831014611adf57565b634e487b7160e01b600052602260045260246000fd5b91607f1691611ad4565b6040519060008260105491611b1383611ac5565b80835292602090600190818116908115611ba15750600114611b40575b5050611b3e92500383611a14565b565b91509260106000527f1b6847dc741a1b0cd08d278845f9d819d87b734759afb55fe2de5cb82a9ae672936000925b828410611b895750611b3e9450505081016020013880611b30565b85548885018301529485019487945092810192611b6e565b91505060209250611b3e94915060ff191682840152151560051b8201013880611b30565b6040519060008260115491611bd983611ac5565b80835292602090600190818116908115611ba15750600114611c03575050611b3e92500383611a14565b91509260116000527f31ecc21a745e3968a04e9570e4425bc18fa8019c68028196b546d1669c200c68936000925b828410611c4c5750611b3e9450505081016020013880611b30565b85548885018301529485019487945092810192611c31565b81810292918115918404141715611c7757565b634e487b7160e01b600052601160045260246000fd5b600081815260026020526040902054611cb0906001600160a01b03161515611ec2565b6000908152600460205260409020546001600160a01b031690565b91908201809211611c7757565b60175460009291611ce882611ac5565b91600190818116908115611d425750600114611d0357505050565b90919293506017600052600080516020612a38833981519152906000915b848310611d2f575050500190565b8181602092548587015201920191611d21565b60ff191683525050811515909102019150565b15611d5c57565b60405162461bcd60e51b815260206004820152602d60248201527f4552433732313a2063616c6c6572206973206e6f7420746f6b656e206f776e6560448201526c1c881bdc88185c1c1c9bdd9959609a1b6064820152608490fd5b3d15611de2573d90611dc882611a36565b91611dd66040519384611a14565b82523d6000602084013e565b606090565b611df081611f92565b821015611e1c5760018060a01b0316600052600660205260406000209060005260205260406000205490565b60405162461bcd60e51b815260206004820152602b60248201527f455243373231456e756d657261626c653a206f776e657220696e646578206f7560448201526a74206f6620626f756e647360a81b6064820152608490fd5b600854811015611eac5760086000527ff3f7a9fe364faab93b216da50a3214154f22a0a2b415b23a84c8169e8b636ee30190600090565b634e487b7160e01b600052603260045260246000fd5b15611ec957565b60405162461bcd60e51b815260206004820152601860248201527f4552433732313a20696e76616c696420746f6b656e20494400000000000000006044820152606490fd5b6000908152600260205260409020546001600160a01b0316611f31811515611ec2565b90565b67ffffffffffffffff81116119e25760051b60200190565b90611f5682611f34565b611f636040519182611a14565b8281528092611f74601f1991611f34565b0190602036910137565b8051821015611eac5760209160051b010190565b6001600160a01b03168015611fb257600052600360205260406000205490565b60405162461bcd60e51b815260206004820152602960248201527f4552433732313a2061646472657373207a65726f206973206e6f7420612076616044820152683634b21037bbb732b960b91b6064820152608490fd5b6002600e541461201a576002600e55565b60405162461bcd60e51b815260206004820152601f60248201527f5265656e7472616e637947756172643a207265656e7472616e742063616c6c006044820152606490fd5b9060409182519261206f846119f8565b60008085526001600160a01b038316918215806121c2576000868152600260205260409020546120ab906001600160a01b031615155b156129eb565b60085490868452602091600983528084862055600160401b8110156121ae57926002889693611b3e9a989693612108896120ef8960016106d99f9b01600855611e75565b90919082549060031b91821b91600019901b1916179055565b15612181575b600086815260026020526040902054612131906001600160a01b031615156120a5565b848452600381528284208054600101905585845252812080546001600160a01b031916831790557fddf252ad1be2c89b69c2b068fc378daa952ba7f163c4a11628f55a4df523b3ef8180a4612880565b61218a87611f92565b8585526006825283852081865282528684862055868552600782528385205561210e565b634e487b7160e01b85526041600452602485fd5b6064825162461bcd60e51b815260206004820152602060248201527f4552433732313a206d696e7420746f20746865207a65726f20616464726573736044820152fd5b80156122b057600081805b612298575061221e81611a36565b9061222c6040519283611a14565b808252601f1961223b82611a36565b013660208401375b80928015612291576000198201918211611c77578193600a926030908484068201809211611c775785511115611eac5760f81b6001600160f81b03191660001a908401601f01530491612243565b5050905090565b906000198114611c77576001600a9101910480612210565b506040516122bd816119c6565b60018152600360fc1b602082015290565b6000818152600260205260409020549192916001600160a01b03161561246157600090808252602091600a8352604081209085519067ffffffffffffffff821161244d5761231c8354611ac5565b601f811161240a575b508490601f831160011461238657907ff8e1a15aba9398e019f0b49df1a4fde98ee17ae345cb5f6b5e2c27f5033e8ce796978361237b575b50508160011b916000199060031b1c19161790555b604051908152a1565b01519050388061235d565b9196601f198816848452868420935b8181106123f357509160019391897ff8e1a15aba9398e019f0b49df1a4fde98ee17ae345cb5f6b5e2c27f5033e8ce7999a94106123da575b505050811b019055612372565b015160001960f88460031b161c191690553880806123cd565b929387600181928786015181550195019301612395565b838252858220601f840160051c810191878510612443575b601f0160051c01905b8181106124385750612325565b82815560010161242b565b9091508190612422565b634e487b7160e01b81526041600452602490fd5b60405162461bcd60e51b815260206004820152602e60248201527f45524337323155524953746f726167653a2055524920736574206f66206e6f6e60448201526d32bc34b9ba32b73a103a37b5b2b760911b6064820152608490fd5b906001600160a01b0380806124d184611f0e565b16931691838314938415612504575b5083156124ee575b50505090565b6124fa91929350611c8d565b16143880806124e8565b909350600052600560205260406000208260005260205260ff6040600020541692386124e0565b1561253257565b60405162461bcd60e51b815260206004820152602560248201527f4552433732313a207472616e736665722066726f6d20696e636f72726563742060448201526437bbb732b960d91b6064820152608490fd5b6125a99161259284611f0e565b6001600160a01b039384841693918516841461252b565b838216938415612760578391826126bd575090506008549085600052600960205281604060002055600160401b8210156119e25761260f926125f6876120ef856001899701600855611e75565b82860361268a575b5061260886611f0e565b161461252b565b7fddf252ad1be2c89b69c2b068fc378daa952ba7f163c4a11628f55a4df523b3ef60008481526004602052604081206001600160601b0360a01b9081815416905583825260036020526040822060001981540190558482526040822060018154019055858252600260205284604083209182541617905580a4565b61269390611f92565b604060008781526006602052818120838252602052888282205588815260076020522055386125fe565b8583036126cf575b5061260f926125f6565b6126da919250611f92565b600019810191908211611c775761260f9284926000908882526020906007825260409182842054828103612729575b508a845283838120558684526006815282842091845252812055926126c5565b8785526006825283852083865282528385205488865260068352848620828752835280858720558552600782528385205538612709565b60405162461bcd60e51b8152602060048201526024808201527f4552433732313a207472616e7366657220746f20746865207a65726f206164646044820152637265737360e01b6064820152608490fd5b600d546001600160a01b031633036127c557565b606460405162461bcd60e51b815260206004820152602060248201527f4f776e61626c653a2063616c6c6572206973206e6f7420746865206f776e65726044820152fd5b60809060208152603260208201527f4552433732313a207472616e7366657220746f206e6f6e20455243373231526560408201527131b2b4bb32b91034b6b83632b6b2b73a32b960711b60608201520190565b1561286357565b60405162461bcd60e51b81528061287c60048201612809565b0390fd5b909190803b1561296a576020604051809281630a85bd0160e11b96878252336004830152816128c960009889938460248501526044840152608060648401526084830190611925565b03926001600160a01b03165af190829082612921575b5050612913576128ed611db7565b8051908161290e5760405162461bcd60e51b81528061287c60048201612809565b602001fd5b6001600160e01b0319161490565b909192506020813d602011612962575b8161293e60209383611a14565b810103126103345751906001600160e01b0319821682036104e857509038806128df565b3d9150612931565b505050600190565b9290803b156129e2576129c29160209160018060a01b039460405180958194829389630a85bd0160e11b9b8c86523360048701521660248501526044840152608060648401526084830190611925565b03916000968791165af190829082612921575050612913576128ed611db7565b50505050600190565b156129f257565b60405162461bcd60e51b815260206004820152601c60248201527f4552433732313a20746f6b656e20616c7265616479206d696e746564000000006044820152606490fdfec624b66cc0138b8fabc209247f72d758e1cf3343756d543badbf24212bed8c15a26469706673582212208f37e99e42efa536fddd6ffaae70a6806f166d637c8ced84afdd63990189a8b164736f6c6343000819003331ecc21a745e3968a04e9570e4425bc18fa8019c68028196b546d1669c200c68290decd9548b62a8d60345a988386fc84ba6bc95484008f6362f93160ef3e563b10e2d527612073b26eecdfd717e6a320cf44b4afac2b0732d9fcbe2b7fa0cf61b6847dc741a1b0cd08d278845f9d819d87b734759afb55fe2de5cb82a9ae672",
  "linkReferences": {},
  "deployedLinkReferences": {}
}